:020000040000FA
:1000000000008A11252C0034F200030E8301F10058
:100010000A088A01F000040883160313E100831222
:1000200003130B1D17288B120B118101061383126A
:1000300003130C1E6B28831603135F088316031328
:100040005E06031D2728831603130C126B288316E4
:1000500003135F08603E83160313A00000300318EB
:10006000013EA1002008831203138400831383162A
:1000700003132118831783120313000899008316B2
:1000800003132008831203138400831383160313BE
:100090002118831700308312031380008316031383
:1000A0005F0883160313A000A101A00A0319A10A87
:1000B0002108803E803E031D5F2810302002031C73
:1000C000652883160313A001A101831603132008DA
:1000D00083160313DF00831203130C1DB628831647
:1000E00003130C1183120313171C952817108F018B
:1000F0008E01160883160313A00083160313D7007E
:10010000D8015708D800D7018312031315088316A6
:100110000313A000A101200883160313D7040030A5
:10012000D804831603135D14B02883120313171425
:10013000160883160313A00083160313D500D601F7
:100140005508D600D501831203131508831603132F
:10015000A000A101200883160313D5040030D604A3
:10016000831603130C15831203130C118316031348
:10017000E00A8316031361088312031384007008D6
:100180008A008301710E8300F20E720E09008A113B
:100190007F268A11831603135D115D1083160313E6
:1001A000A20183160313A4012208A300FF0000305C
:1001B0008A113F258A1183160313A4007F08A30028
:1001C0000830A6002330A5008030A7002508FE00D7
:1001D0002608FF0027088A11A2278A118316031315
:1001E000A6012208A500FF0000308A11C1248A114F
:1001F000083083160313A6005030A5008030A700F6
:100200002508FE002608FF0027088A11A2278A1168
:10021000831603132308FF0024088A11C1248A11BE
:10022000083083160313A6005230A5008030A700C3
:100230002508FE002608FF0027088A11A2278A1138
:100240000130831603132402031D2829F5302302ED
:10025000031C4129831603132208AE3EA50000307B
:100260000318013EA600250883120313840083139C
:10027000831603132618831702308312031380009A
:1002800078290130831603132402031D49292C30D9
:10029000230203186229831603132208AE3EA3002B
:1002A00000300318013EA4002308831203138400C6
:1002B0008313831603132418831701308312031347
:1002C00080007829831603132208AE3EA300003075
:1002D0000318013EA4002308831203138400831330
:1002E000831603132418831703308312031380002B
:1002F00083160313A20A0C302202031CD1280A30F1
:10030000FD000030FE000030FF0000308A11932510
:100310008A1183160313A201083083160313A40065
:100320002330A3008030A5002308FE002408FF002E
:1003300025088A11A2278A1183160313A401220813
:10034000A300FF0000308A11C1248A1108308316EF
:100350000313A4005030A3008030A5002308FE0042
:100360002408FF0025088A11A2278A118316031387
:100370002208AE3EA30000300318013EA40023086B
:100380008312031384008313831603132418831723
:1003900083120313000883160313A500A300A4010E
:1003A0002308FF0000308A11C1248A110830831607
:1003B0000313A4005230A3008030A5002308FE00E0
:1003C0002408FF0025088A11A2278A118316031327
:1003D000A20A0C302202031C8C290A30FD000030D6
:1003E000FE000030FF0000308A1193258A11831629
:1003F0000313A201083083160313A4002330A300C3
:100400008030A5002308FE002408FF0025088A117B
:10041000A2278A1183160313A4012208A300FF0058
:1004200000308A11C1248A11083083160313A400F6
:100430005030A3008030A5002308FE002408FF00F0
:1004400025088A11A2278A11831603132208AE3EBB
:10045000A30000300318013EA400230883120313F5
:100460008400831383160313241883178312031342
:10047000000883160313A500A300A4012308FF00AE
:1004800000308A11C1248A11083083160313A40096
:100490005230A3008030A5002308FE002408FF008E
:1004A00025088A11A2278A1183160313A20A0C3089
:1004B0002202031CFA29831603135D1C192C5D10FC
:1004C0000730831603135802031D682A5930570258
:1004D000031C632B0730831603135802031D722A73
:1004E0009E3057020318632B0730831603135C02F8
:1004F000031D7C2A59305B02031C632B07308316D3
:1005000003135C02031D862A9E305B020318632BD3
:100510000530831603135602031D902A47305502F7
:10052000031CD12A0530831603135602031D9A2A91
:10053000963055020318D12A0530831603135A0248
:10054000031DA42A47305902031CD12A0530831603
:1005500003135A02031DAE2A963059020318D12AFA
:100560008316031322083B3EA30000300318013E0C
:10057000A400230883120313840083138316031338
:100580002418831702308312031380008316031389
:10059000D701D80183160313D501D601831603139F
:1005A000A20A0130831603135602031DD92A7D3097
:1005B0005502031C1A2B0130831603135602031D28
:1005C000E32AC230550203181A2B01308316031395
:1005D0005A02031DED2A7D305902031C1A2B0130EB
:1005E000831603135A02031DF72AC2305902031857
:1005F0001A2B8316031322083B3EA3000030031876
:10060000013EA4002308831203138400831383167E
:1006100003132418831701308312031380008316F9
:100620000313D701D80183160313D501D60183160E
:100630000313A20A0130831603135A02031D222B4F
:100640007D305902031C632B0130831603135A02B9
:10065000031D2C2BC23059020318632B053083165F
:1006600003135602031D362B47305502031C632B20
:100670000530831603135602031D402B9630550296
:100680000318632B8316031322083B3EA30000309C
:100690000318013EA400230883120313840083136C
:1006A0008316031324188317033083120313800067
:1006B00083160313D701D80183160313D501D6017E
:1006C00083160313A20A3A30831603135802031D3C
:1006D0006B2B99305702031C012C3E3083160313F9
:1006E0005802031D752B803057020318012C01306E
:1006F000831603135602031D7F2B7D305502031C06
:10070000012C0130831603135602031D892BC230BE
:1007100055020318012C073083160313A400FA3086
:10072000A3008030A5002308FE002408FF00250850
:100730008A11A2278A1183160313D701D8018316C1
:100740000313D501D601013083160313A300A203BE
:10075000831203138B13831603132208A4000B3098
:10076000A5008316031324083B3EA600003003189F
:10077000013EA70026088312031384008313831607
:100780000313271883178312031300088316031318
:10079000A8002508AE3EA60000300318013EA700C1
:1007A0002608831203138400831383160313271868
:1007B0008317831203130008831603132806031DEF
:1007C000A301A403A50BB12B2408A20083120313D9
:1007D0008B178316031323080319012C0830A40078
:1007E0001C30A3008030A5002308FE002408FF0071
:1007F00025088A11A2278A11831203130617810183
:100800008B1683160313570883160313DB00831616
:100810000313580883160313DC00831603135508CB
:1008200083160313D9008316031356088316031384
:10083000DA0083160313E001133083160313220238
:10084000031C5B2AA2015B2A08004030FE0007302F
:10085000FF0080308A1100001F278A1100008316D4
:100860000313BB007F08BA004230BC000730BD0054
:10087000831603133A08BE003B08BF00FF30BA07D7
:10088000031CBB033E083F040319BD2C04303C0786
:10089000BE00BF01BF0D3D08BF073E08FE003F0878
:1008A000FF0080308A1100001F278A110000831684
:1008B0000313C1007F08C0003C08FE003D08FF0094
:1008C00080308A1100001F278A110000831603134D
:1008D000C300BF007F08C200BE0002303C07BE005C
:1008E000BF01BF0D3D08BF073E08FE003F08FF00E7
:1008F00080308A1100001F278A110000831603131D
:10090000BF00C5007F08BE00C40083160313400863
:10091000C4004108C500FF30C007031CC1034408E0
:1009200045040319B62C4208FE004308FF0080303E
:100930008A1100000C278A11000083160313C400DB
:100940003E088312031384008313831603133F1896
:100950008317440883120313800083160313C20A0B
:100960000319C30ABE0A0319BF0A852C0630831671
:100970000313BC070318BD0A382C8A110000C728CE
:10098000080083120313A1007F08A000A2018312B4
:10099000031320082104031DD02C2208031D182D49
:1009A000831203132208363EA30000300318013ED1
:1009B000A4000A30FD000030FE002008FF002108DE
:1009C0008A11C9268A117F0883120313A500230800
:1009D00083120313840083138312031324188317D1
:1009E00025088312031380000A30FD000030FE004A
:1009F000831203132008FF0021088A11E4258A11BD
:100A000083120313A1007F08A0003030A50723083C
:100A10008312031384008313831203132418831790
:100A2000250883120313800083120313A20AC72C24
:100A3000831203132208A000831203132008A100CD
:100A4000A003210803193E2D2008363EA1000030E6
:100A50000318013EA20021088312031384008313AC
:100A600083120313221883178312031300088312BF
:100A70000313A3008A1133268A111C2D0800831248
:100A80000313D0007F08CF00D1000310510DCF0019
:100A90000310CF0D81304F04D000831203139F0049
:100AA0000130FD000030FE000030FF0000308A11F0
:100AB00093258A11831203139F1483120313D10108
:100AC000831203139F1C672D83120313D10A831211
:100AD00003135108D200013A031D792D0130FD00A6
:100AE0000030FE000030FF0000308A1193258A118B
:100AF0005D2D831203131E0883120313D300D1004C
:100B0000D000831603131E0883120313CF00D201F3
:100B1000D001D2014F08D100D0040030D3045008D6
:100B2000FF005308080083120313D7007F08D60084
:100B30007E08D5007D08D400831203135408D80022
:100B40005508D9005608DA005708DB00FF30D407F3
:100B5000FF30031CD507FF30031CD607FF30031CF2
:100B6000D707580859045A045B040319E32D4A3087
:100B7000D8000130D900DA01DB01FF308312031302
:100B80005807DC00FF30DD0059080318590FDD0756
:100B9000FF30DE005A0803185A0FDE07FF30DF006F
:100BA0005B0803185B0FDF075C08D8005D08D900FD
:100BB0005E08DA005F08DB005C085D045E045F0429
:100BC000031DBD2D9C2D080083160313C7007F084D
:100BD000C6007E08C9007D08C800CA01CB010130EB
:100BE000CC00CD0148084904031DFA2DFF30FF0059
:100BF000FF30322E8316031348084908CE00CE1B5F
:100C0000082E0310C80DC90D0310CC0DCD0DFA2D03
:100C1000831603134C084D0403192D2E490847026F
:100C2000031D142E48084602031C242E83160313AA
:100C30004C08CA074D0803184D0FCB074808C602D9
:100C40004908031C490FC702031083160313C90C7C
:100C5000C80C0310CD0CCC0C082E831603134A08C5
:100C6000FF004B08080083160313A9008316031323
:100C70005E0A83160313AA0010302A020318AA0181
:100C8000831603135F08831603132A06031D5A2EC7
:100C90000730AC00CE30AB008030AD002B08FE003A
:100CA0002C08FF002D088A1172278A11FF30FF00DF
:100CB000FF307E2E831603135E08603E83160313F7
:100CC000AB0000300318013EAC002B088312031365
:100CD00084008313831603132C18831729088312A7
:100CE00003138000831603132A0883160313DE0000
:100CF000831603130C160030FF0000300800831623
:100D00000313861606168717071787150715871406
:100D100007140516051585140514871686138616FF
:100D200050309F00831203179F151F159F141F1427
:100D30009E171E179E161E169E151E159E141E1417
:100D40008316031306130830990018159B1598167F
:100D5000181283120313981783160313811281113B
:100D600001158114011083120313900105309700BF
:100D7000831603130C11831203130C110B178B171B
:100D80008F018E01831603130C15831203131014A5
:100D9000080083160313D0007F08CF007E08D2001E
:100DA0007D08D1005204031DD92EFF30FF00FF3013
:100DB0000B2F013083160313D3008316031351083E
:100DC0005208D400D41BE92E0310D10DD20DD30A42
:100DD000DD2E00308316031353040319062F520827
:100DE0005002031DF52E51084F02031CFF2E8316DF
:100DF00003135108CF025208031C520FD0020310F4
:100E000083160313D20CD10CD303E92E83160313DC
:100E10004F08FF0050080800003A0319132F803ACA
:100E200003191A2F00347E08840083137F18831758
:100E3000000808007F088A007E0882000800003A47
:100E40000319272F803A0319312FFF0100347E0840
:100E5000840083137F1883170008FF00840A0008AA
:100E600008008A1100001A27FD00FE0FFF03FF0A89
:100E70008A1100001A27FC007D08FF007C0808008A
:100E80000834003446340834D53400340234003495
:100E900048340834D7340034023400344A34083437
:100EA000D9340034023400344C340834DB34003498
:100EB0000234003403340034DE34003401340034AE
:100EC00054340834DF3400340134003455340834E9
:100ED000E03400340134003456340834E234003451
:100EE0000134003483120313B0007F08AF007E0882
:100EF000AE00B1018312031331082E07B2002F0890
:100F00000318013EB30030080318013EB400320854
:100F1000FE003308FF0034088A110C278A1183125F
:100F20000313B50035080319A12F350883120313E5
:100F30009900831203130C1E992F83120313B10A15
:100F40007A2F080083120313A8007F08A7007E08E9
:100F5000A600A9018312031329082607AA0027085F
:100F60000318013EAB0028080318013EAC002A0814
:100F7000FE002B08FF002C088A110C278A1183120F
:100F80000313AD002D080319CD2F2D088A11332628
:100F90008A1183120313A90AAA2F08004234553478
:100FA000463446344534523420344F345734453473
:100FB000523446344C344F3457340A3400345434A9
:100FC00049344D34303420344F34573446340A34A5
:100FD000003449344E34543420344534523452347D
:100FE0000A340034831203139900831203130C1E76
:100FF000F52F0800533459344E3443340A34003446
:1010000050344934523431343A342034003450347A
:101010004934523432343A34203400345034493470
:10102000453431343A342034003450344934453472
:1010300032343A34203400344C3449346734683420
:1010400074340A340034693420343D34203400349C
:10105000773431343A3420340034743431343A340F
:1010600020340034303420340A3400343134203415
:101070000A340034463420340A34003477343A34A5
:101080002034003474343A342034003400340034D2
:1010900000340034003400340034003409340034A7
:0E10A000203400340A340034003400340034AC
:02400E00D43F9D
:00000001FF
