:020000040000FA
:1000000000008A11222B0034F200030E8301F1005C
:100010000A088A01F000040883120317AA00831259
:1000200003130B1D15280B118101831203130C1EE2
:100030006928831203172608831203172506031D58
:100040002528831603130C12692883120317260828
:100050005C3E83160313B90000300318013EBA005A
:1000600039088312031384008313831603133A1889
:1000700083178312031300089900831603133908AA
:100080008312031384008313831603133A18831710
:10009000003083120313800083120317260883168F
:1000A0000313B900BA01B90A0319BA0A3A08803E23
:1000B000803E031D5D2810303902031C632883161F
:1000C0000313B901BA018316031339088312031706
:1000D000A600831203130C1D9828831603130C111A
:1000E00083120313171C852817108F018E01160821
:1000F00083120317A9008312031315088312031731
:10010000A2008312031720149228831203131714DA
:10011000160883120317A80083120313150883120D
:100120000317A100831603130C15831203130C117C
:1001300083120317A70A831203172A0883120313D3
:10014000840070088A008301710E8300F20E720E23
:10015000090083160313BB01BC018A11B9248A115B
:10016000831203172011201083160313BD01831679
:1001700003133D08D33EBE0000300318013EBF000C
:100180003E088312031384008313831603133F185E
:1001900083170030831203138000831603133D0876
:1001A000D93EBE0000300318013EBF003E08831256
:1001B000031384008313831603133F18831700303F
:1001C000831203138000831603133D08DF3EBE0035
:1001D00000300318013EBF003E0883120313840061
:1001E0008313831603133F188317003083120313FE
:1001F0008000831603133D08E53EBE00003003185F
:10020000013EBF003E08831203138400831383164C
:1002100003133F18831700308312031380008316E3
:100220000313BD0A06303D02031CB728BD0183122B
:100230000317201CF2292010E73083120317220233
:10024000031C3329F030220203183329E7308312CC
:1002500003172402031C3329F03024020318332926
:100260008312031720151E30831603133C02031854
:10027000E62983120317201DE629831603133C0881
:10028000203EBE0000300318013EBF003E0883122E
:10029000031384008313831603133F1883178312F9
:1002A00003172108831203138000831603133C08ED
:1002B0003E3EBE0000300318013EBF003E088312E0
:1002C000031384008313831603133F1883178312C9
:1002D00003172208831203138000003083120317D0
:1002E00028040319A8290630831603133B020318B8
:1002F000A8293B08D33EBE0000300318013EBF00D2
:100300003E088312031384008313831603133F18DC
:1003100083173C08831203138000831603133B08E2
:10032000D93EBE0000300318013EBF003E088312D4
:10033000031384008313831603133F188317831258
:100340000317280883120313800083160313BB0AC4
:1003500000308312031729040319E329063083169A
:1003600003133D020318E3293D08DF3EBE000030C1
:100370000318013EBF003E08831203138400831359
:10038000831603133F1883173C088312031380005E
:10039000831603133D08E53EBE0000300318013EFE
:1003A000BF003E08831203138400831383160313D4
:1003B0003F18831783120317290883120313800041
:1003C00083160313BD0A83160313BC0A8312031793
:1003D000220883120317A400831203172108831233
:1003E0000317A3001E30831603133C02031C1D2BAE
:1003F000BE01831603133E08203EBF0000300318E1
:10040000013EC0003F088312031384008313831648
:100410000313401883178312031300088316031372
:10042000C1008A11BE238A11063083160313C0004F
:100430005130BF008030C1003F08FE004008FF007F
:1004400041088A115B258A11831603133E083E3E3C
:10045000BF0000300318013EC0003F0883120313A1
:100460008400831383160313401883178312031326
:10047000000883160313C1008A11BE238A110630B7
:1004800083160313C0005330BF008030C1003F0803
:10049000FE004008FF0041088A115B258A1183167F
:1004A0000313BE0A1E303E02031CF929BE01831647
:1004B00003133E08D33EBF0000300318013EC000C6
:1004C0003F08831203138400831383160313401819
:1004D000831783120313000883160313C1008A11C4
:1004E000BE238A11063083160313C0005130BF00AB
:1004F0008030C1003F08FE004008FF0041088A111B
:100500005B258A11831603133E08D93EBF000030D5
:100510000318013EC0003F088312031384008313B5
:1005200083160313401883178312031300088316DE
:100530000313C1008A11BE238A11063083160313E8
:10054000C0005130BF008030C1003F08FE004008AD
:10055000FF0041088A115B258A11831603133E08A8
:10056000DF3EBF0000300318013EC0003F08831289
:100570000313840083138316031340188317831215
:100580000313000883160313C1008A11BE238A11C6
:10059000063083160313C0005130BF008030C10005
:1005A0003F08FE004008FF0041088A115B258A11C0
:1005B000831603133E08E53EBF0000300318013EDA
:1005C000C0003F08831203138400831383160313B0
:1005D0004018831783120313000883160313C10006
:1005E0008A11BE238A11063083160313C0005330CC
:1005F000BF008030C1003F08FE004008FF004108F6
:100600008A115B258A1183160313BE0A06303E0247
:10061000031C572A0630BF002D30BE008030C000BA
:100620003E08FE003F08FF0040088A115B258A1142
:1006300083160313BB01BC01BD0183120317A7017D
:10064000172908007B30FE000430FF0080308A113B
:10065000000009258A11000083160313C8007F08D3
:10066000C7007D30C9000430CA0083160313470851
:10067000CB004808CC00FF30C707031CC8034B0859
:100680004C040319BA2B04304907CB00CC01CC0D24
:100690004A08CC074B08FE004C08FF0080308A1146
:1006A000000009258A11000083160313CE007F087D
:1006B000CD004908FE004A08FF0080308A11000082
:1006C00009258A11000083160313D000CC007F088F
:1006D000CF00CB0002304907CB00CC01CC0D4A083B
:1006E000CC074B08FE004C08FF0080308A11000048
:1006F00009258A11000083160313CC00D2007F085D
:10070000CB00D100831603134D08D1004E08D20050
:10071000FF30CD07031CCE03510852040319B32B3D
:100720004F08FE005008FF0080308A110000F624B8
:100730008A11000083160313D1004B0883120313A0
:1007400084008313831603134C18831751088312F4
:100750000313800083160313CF0A0319D00ACB0AB0
:100760000319CC0A822B063083160313C90703181A
:10077000CA0A352B8A110000A92808008316031322
:10078000A000A1010030831603132004031DCB2B0E
:100790002108031D082C831603132108B53EA2006F
:1007A00000300318013EA3000A30FF0020088A1120
:1007B0008B258A1183160313A400220883120313C6
:1007C00084008313831603132318831724088312CA
:1007D000031380000A30FF008316031320088A11D8
:1007E0002A258A1183160313A0003030A40722089B
:1007F00083120313840083138316031323188317B0
:10080000240883120313800083160313A10AC22B4A
:10081000831603132108A000831603132008A100E8
:10082000A003210803192E2C2008B53EA10000309A
:100830000318013EA20021088312031384008313CE
:1008400083160313221883178312031300088316D9
:100850000313A3008A112F248A110C2C080083167D
:100860000313C20083120317250A83160313C30060
:10087000103043020318C30183120317260883169E
:1008800003134306031D562C0530C500E530C40094
:100890008030C6004408FE004508FF0046088A1163
:1008A0005B258A11FF30FF00FF307A2C831203177B
:1008B00025085C3E83160313C40000300318013E74
:1008C000C5004408831203138400831383160313A3
:1008D00045188317420883120313800083160313FD
:1008E000430883120317A500831603130C16003068
:1008F000FF00003008000A3400340334003421348F
:1009000001340134003455340634223401340134C6
:10091000003456340634233401340134003457345F
:100920000634243401340134003458340634253478
:10093000013401340034593406342634013401348E
:1009400000345A34063427340134013400345B3423
:10095000063428340134013400345C34063429343C
:100960000134013400345D3406342B340134013455
:10097000003483160313051505168716861386168D
:1009800050309F00831203179F111F119E131F10D9
:100990009F101E121E159E15083083160313990012
:1009A00018159B159816181283120313981783169F
:1009B000031381128111011181100110831203139D
:1009C00090011016901605309700831603130C1132
:1009D000831203130C110B178B178F018E018316D3
:1009E00003130C158312031310140800003A0319A3
:1009F000FD2C803A0319042D00347E0884008313F3
:100A00007F188317000808007F088A007E0882008C
:100A10000800003A0319112D803A03191B2DFF011C
:100A200000347E08840083137F1883170008FF00BA
:100A3000840A000808008A1100000425FD00FE0F4A
:100A4000FF03FF0A8A1100000425FC007D08FF0057
:100A50007C08080083160313EB007F08EC00ED010F
:100A60000130EE006C08031D372DFF305A2D831620
:100A700003136C08EF00EF1B422D0310EC0D031065
:100A8000EE0D372D0030831603136E040319572D16
:100A90006C086B02031C502D6E08ED076C08EB020E
:100AA000031083160313EC0C0310EE0C422D831677
:100AB00003136D08080083160313AF007F08AE0010
:100AC0007E08AD00B0018316031330082D07B10076
:100AD0002E080318013EB2002F080318013EB30090
:100AE0003108FE003208FF0033088A11F6248A110B
:100AF00083160313B400340803198A2D34088312B3
:100B000003139900831203130C1E822D8316031303
:100B1000B00A632D080083120313EC007F08ED0078
:100B20006D08031D952DFF30B82D0130831203137E
:100B3000EE00831203136D08EF00EF1BA32D0310CB
:100B4000ED0DEE0A992D0030831203136E04031984
:100B5000B52D6D086C02031CAF2D6D08EC0203105F
:100B600083120313ED0CEE03A32D831203136C0801
:100B7000080083160313A7007F08A6007E08A500BF
:100B8000A8018316031328082507A90026080318BF
:100B9000013EAA0027080318013EAB002908FE0009
:100BA0002A08FF002B088A11F6248A1183160313E2
:100BB000AC002C080319E42D2C088A112F248A116B
:100BC00083160313A80AC12D080042345534463455
:100BD00046344534523420344F345734453452343B
:100BE00046344C344F3457340A3400345434493486
:100BF0004D34303420344F34573446340A340034C2
:100C000049344E34543420344534523452340A3446
:100C10000034831203139900831203130C1E0C2E4D
:100C2000080050344934523431343A3420340034DA
:100C300050344934523432343A342034003450344D
:100C40004934453431343A34203400345034493452
:100C5000453432343A3420340034533459344E3429
:100C600043340A340034773431343A342034003495
:100C7000743431343A3420340034303420340A347B
:100C80000034313420340A340034463420340A34F9
:100C9000003477343A342034003474343A34203415
:100CA0000034093400340A34003400340034003491
:0C0CB00000340034003400340034003400
:02400E00D43F9D
:00000001FF
