:020000040000FA
:1000000000008A114F2B0034F200030E8301F1002F
:100010000A088A01F000040883160313EB00831218
:1000200003130B1D15280B118101831203130C1EE2
:100030006928831603136708831603136606031DD6
:100040002528831603130C126928831603136708E7
:10005000B43E83120313A00000300318013EA10038
:1000600020088312031384008313831203132118BF
:1000700083178312031300089900831203132008C7
:10008000831203138400831383120313211883172D
:100090000030831203138000831603136708831252
:1000A0000313A000A101A00A0319A10A2108803EA0
:1000B000803E031D5D2810302002031C632883123C
:1000C0000313A001A1018312031320088316031355
:1000D000E700831203130C1DB428831603130C11BD
:1000E00083120313171C932817108F018E01160813
:1000F00083120313A00083160313DF00E0015F08DF
:10010000E000DF0183120313150883120313A0001C
:10011000A101200883160313DF040030E0048316D6
:1001200003136514AE2883120313171416088312E1
:100130000313A00083120313EE00EF016E08EF001B
:10014000EE0183120313150883120313A000A1010B
:10015000200883120313EE040030EF048316031308
:100160000C15831203130C1183160313E80A653070
:100170006802031C6329073083120313A1003B307C
:10018000A0008030A2002008FE002108FF00220805
:100190008A112C268A11073083120313A1005A30CA
:1001A000A0008030A2002008FE002108FF002208E5
:1001B0008A112C268A11831603130C088A116924CC
:1001C0008A11073083120313A1009630A0008030FB
:1001D000A2002008FE002108FF0022088A112C2618
:1001E0008A11073083120313A1006130A000803010
:1001F000A2002008FE002108FF0022088A112C26F8
:100200008A11831603130D088A1169248A11073095
:1002100083120313A1009630A0008030A2002008B2
:10022000FE002108FF0022088A112C268A110730BF
:1002300083120313A1004C30A0008030A2002008DC
:10024000FE002108FF0022088A112C268A11831241
:1002500003130C088A1169248A11073083120313CF
:10026000A1009630A0008030A2002008FE002108E6
:10027000FF0022088A112C268A11073083120313EB
:10028000A1005330A0008030A2002008FE00210809
:10029000FF0022088A112C268A11831203130D08ED
:1002A0008A1169248A11073083120313A100963042
:1002B000A0008030A2002008FE002108FF002208D4
:1002C0008A112C268A11831603136B0883120313D9
:1002D000840070088A008301710E8300F20E720E92
:1002E000090083120313A3018A11F5258A118316CD
:1002F000031365116510831203138B138101FA3008
:1003000083160313EA007D3083160313E90083127A
:100310000313010883120313A400831203138B1722
:10032000073083120313A6006E30A5008030A700AB
:100330002508FE002608FF0027088A11F4268A11E6
:100340008312031324088A1169248A110730831247
:100350000313A6009630A5008030A7002508FE00F4
:100360002608FF0027088A11F4268A118312031336
:100370008B138101AE3083160313E1000130E200DC
:10038000753083160313E3000730E4008312031370
:10039000010883120313A400831203138B17073081
:1003A00083120313A6008430A5008030A70025081F
:1003B000FE002608FF0027088A11F4268A118312FE
:1003C000031324088A1169248A1107308312031346
:1003D000A5009630A4008030A6002408FE00250861
:1003E000FF0026088A11F4268A1183120313810163
:1003F0000B1183160313651C4A2B651007308316F7
:1004000003136002031D062A59305F02031CEF2A02
:100410000730831603136002031D102A9E305F020B
:100420000318EF2A0730831603136402031D1A2AE8
:1004300059306302031CEF2A07308316031364024A
:10044000031D242A9E3063020318EF2A053083120D
:1004500003136F02031D2E2A47306E02031C692A04
:100460000530831203136F02031D382A96306E0283
:100470000318692A0530831603136202031D422AFA
:1004800047306102031C692A053083160313620298
:10049000031D4C2A963061020318692A0730831223
:1004A0000313A5007C30A4008030A6002408FE00C1
:1004B0002508FF0026088A11F4268A1183160313E3
:1004C000DF01E00183120313EE01EF018312031336
:1004D000A30A0130831203136F02031D712A7D30BA
:1004E0006E02031CAC2A0130831203136F02031D3A
:1004F0007B2AC2306E020318AC2A01308316031324
:100500006202031D852A7D306102031CAC2A013082
:10051000831603136202031D8F2AC230610203187F
:10052000AC2A073083120313A5007830A400803072
:10053000A6002408FE002508FF0026088A11F426DC
:100540008A1183160313DF01E00183120313EE0106
:10055000EF0183120313A30A01308316031362020F
:10056000031DB42A7D306102031CEF2A013083167B
:1005700003136202031DBE2AC23061020318EF2A70
:100580000530831203136F02031DC82A47306E0221
:10059000031CEF2A0530831203136F02031DD22AB6
:1005A00096306E020318EF2A073083120313A5005A
:1005B0008030A4008030A6002408FE002508FF003B
:1005C00026088A11F4268A1183160313DF01E0013D
:1005D00083120313EE01EF0183120313A30A1F30EA
:1005E000831603136002031DF72AA5305F02031C64
:1005F000322B2030831603136002031D012B0830B9
:100600005F020318322B0130831203136F02031DA4
:100610000B2B7D306E02031C322B0130831203132F
:100620006F02031D152BC2306E020318322B0730E8
:1006300083120313A5006830A4008030A6002408AC
:10064000FE002508FF0026088A11F4268A11831669
:100650000313DF01E00183120313EE01EF018312A4
:100660000313A30A831603135F0883160313E3001F
:1006700083160313600883160313E4008312031325
:100680006E0883160313E100831203136F088316A9
:100690000313E20083160313E801F5290800B730BD
:1006A000FE000530FF0080308A11000074268A1198
:1006B000000083160313C5007F08C400B930C600CC
:1006C0000530C700831603134408C8004508C90055
:1006D000FF30C407031CC503480849040319E72B6E
:1006E00004304607C800C901C90D4708C9074808B2
:1006F000FE004908FF0080308A11000074268A112C
:10070000000083160313CB007F08CA004608FE00D2
:100710004708FF0080308A11000074268A1100000B
:1007200083160313CD00C9007F08CC00C800023037
:100730004607C800C901C90D4708C9074808FE0097
:100740004908FF0080308A11000074268A110000D9
:1007500083160313C900CF007F08C800CE0083169C
:1007600003134A08CE004B08CF00FF30CA07031C12
:10077000CB034E084F040319E02B4C08FE004D0834
:10078000FF0080308A11000061268A110000831664
:100790000313CE00480883120313840083138316C7
:1007A0000313491883174E0883120313800083161E
:1007B0000313CC0A0319CD0AC80A0319C90AAF2BBF
:1007C000063083160313C6070318C70A622B8A1163
:1007D00000007129080083120313AE007F08AD00EA
:1007E000AF01831203132D082E04031DFA2B2F08CB
:1007F000031D422C831203132F08483EB000003023
:100800000318013EB1000A30FD000030FE002D0843
:10081000FF002E088A1174258A117F0883120313A2
:10082000B20030088312031384008313831203136E
:100830003118831732088312031380000A30FD0039
:100840000030FE00831203132D08FF002E088A11CA
:10085000D9248A1183120313AE007F08AD00303013
:10086000B207300883120313840083138312031327
:100870003118831732088312031380008312031385
:10088000AF0AF12B831203132F08AD008312031359
:100890002D08AE00AD032E080319682C2D08483E24
:1008A000AE0000300318013EAF002E088312031380
:1008B00084008313831203132F18831783120313E7
:1008C000000883120313B0008A1128258A11462CD0
:1008D000080083120313B300B40100308312031322
:1008E0003304031D762C3408031DB32C8312031329
:1008F00034084D3EB50000300318013EB6000A3002
:10090000FF0033088A11C6268A1183120313B70029
:1009100035088312031384008313831203133618DC
:10092000831737088312031380000A30FF008312F5
:10093000031333088A1195268A1183120313B30017
:100940003030B707350883120313840083138312F2
:10095000031336188317370883120313800083129A
:100960000313B40A6D2C831203133408B3008312EB
:1009700003133308B400B30334080319D82C330825
:100980004D3EB40000300318013EB5003408831218
:100990000313840083138312031335188317831200
:1009A000031300089900831203130C1AB72CD32CDD
:1009B000080083120313E6007F08E5007E08E800C4
:1009C0007D08E700E901EA010130EB00EC0167086E
:1009D0006804031DEF2CFF30FF00FF30272D83122A
:1009E000031367086808ED00ED1BFD2C0310E70DED
:1009F000E80D0310EB0DEC0DEF2C831203136B08C5
:100A00006C040319222D68086602031D092D67086E
:100A10006502031C192D831203136B08E9076C0888
:100A200003186C0FEA076708E5026808031C680FE3
:100A3000E602031083120313E80CE70C0310EC0C1E
:100A4000EB0CFD2C831203136908FF006A080800F1
:100A500083120313A80083160313660A8312031379
:100A6000A900103029020318A9018316031367088F
:100A7000831203132906031D4F2D0730AB002030CE
:100A8000AA008030AC002A08FE002B08FF002C08CA
:100A90008A112C268A11FF30FF00FF30732D831638
:100AA00003136608B43E83120313AA000030031830
:100AB000013EAB002A0883120313840083138312C0
:100AC00003132B1883172808831203138000831243
:100AD0000313290883160313E600831603130C1669
:100AE0000030FF000030080083160313D1007F0898
:100AF000D0007E08D3007D08D2005304031D842D4E
:100B0000FF30FF00FF30B62D013083160313D400F1
:100B10008316031352085308D500D51B942D0310D8
:100B2000D20DD30DD40A882D00308316031354043C
:100B30000319B12D53085102031DA02D5208500274
:100B4000031CAA2D831603135208D0025308031C5A
:100B5000530FD102031083160313D30CD20CD4030A
:100B6000942D831603135008FF00510808000A341F
:100B700000348C3407346E340034023400348E3444
:100B80000734DF3400340234003490340734E13465
:100B900000340234003492340734E3340034023435
:100BA000003403340034E634003401340034983423
:100BB0000734E73400340134003499340734E8341E
:100BC0000034013400349A340734E93400340134F9
:100BD00000349B340734EA340034013400349C344C
:100BE0000734EC3400340134003483160313051544
:100BF000051687168613861650309F00831203173A
:100C00009F111F119E131F109F101E121E159E155F
:100C1000083083160313990018159B15981618129F
:100C20008312031398178316031381128111011184
:100C3000811001108312031390010C1005309700EE
:100C4000831603130C11831203130C110B178B174C
:100C50008F018E011014080083120313C2007F0855
:100C6000C1007E08C000831203138B138312031389
:100C7000C3018312031343084007C400410803184B
:100C8000013EC50042080318013EC6004408FE00AC
:100C90004508FF0046088A1161268A118312031352
:100CA000C70047080319602E4708831203139900F1
:100CB000831203130C1E582E83120313C30A392EFA
:100CC0000800003A0319682E803A03196F2E003489
:100CD0007E08840083137F188317000808007F08AC
:100CE0008A007E0882000800003A03197C2E803AB0
:100CF0000319862EFF0100347E08840083137F18B9
:100D000083170008FF00840A000808008A11000009
:100D10006F26FD00FE0FFF03FF0A8A1100006F26F9
:100D2000FC007D08FF007C08080083160313D60032
:100D30007F08D700D8010130D9005708031DA22E23
:100D4000FF30C52E831603135708DA00DA1BAD2EC9
:100D50000310D70D0310D90DA22E003083160313F4
:100D600059040319C22E57085602031CBB2E5908FA
:100D7000D8075708D602031083160313D70C0310A5
:100D8000D90CAD2E831603135808080083160313DD
:100D9000DB007F08DC005C08031DD02EFF30F32E43
:100DA000013083160313DD00831603135C08DE0095
:100DB000DE1BDE2E0310DC0DDD0AD42E0030831680
:100DC00003135D040319F02E5C085B02031CEA2E7A
:100DD0005C08DB02031083160313DC0CDD03DE2E3C
:100DE000831603135B08080083120313BA007F08FD
:100DF000B9007E08B800BB01831203133B08380713
:100E0000BC0039080318013EBD003A080318013E32
:100E1000BE003C08FE003D08FF003E088A11612626
:100E20008A1183120313BF003F0803191F2F3F08C5
:100E30008A1128258A1183120313BB0AFC2E08008D
:100E400042345534463446344534523420344F34D9
:100E500057344534523446344C344F3457340A34C2
:100E60000034543449344D34303420344F34573402
:100E700046340A34003449344E3454342034453432
:100E8000523452340A34003483120313990083120B
:100E900003130C1E472F08005034493452343134A8
:100EA0003A342034003450344934523432343A34F1
:100EB0002034003450344934453431343A34203409
:100EC000003450344934453432343A342034003418
:100ED000533459344E3443340A3400347734313483
:100EE0003A3420340034743431343A342034003409
:100EF000303420340A340034313420340A3400349D
:100F0000463420340A34003477343A342034003400
:100F100074343A3420340034003400340034003463
:100F20000034003400340034093400340A3400340E
:0A0F300000340034003400340034B3
:02400E00D43F9D
:00000001FF
