:020000040000FA
:1000000000008A11712B0034F200030E8301F1000D
:100010000A088A01F000040883120317A300831260
:1000200003130C1E6328831603136E088316031331
:100030006D06031D1F28831603130C1263288316F5
:1000400003136E08B43E83120313A000003003189C
:10005000013EA1002008831203138400831383123E
:1000600003132118831783120313000899008312C6
:1000700003132008831203138400831383120313D2
:100080002118831700308312031380008316031393
:100090006E0883120313A000A101A00A0319A10A8C
:1000A0002108803E803E031D572810302002031C8B
:1000B0005D2883120313A001A101831203132008FA
:1000C00083160313EE00831203130C1DAE28831650
:1000D00003130C1183120313171C8D2817108F01A3
:1000E0008E01160883120313A00083160313E60083
:1000F000E7016608E700E60183120313150883127F
:100100000313A000A101200883160313E6040030A6
:10011000E704831603136C14A8288312031317141F
:10012000160883120313A00083160313E400E501ED
:100130006408E500E4018312031315088312031316
:10014000A000A101200883160313E4040030E50495
:10015000831603130C15831203130C118312031758
:10016000230883120313840070088A008301710E30
:100170008300F20E720E090083120313A2018A118A
:1001800013268A11831603136C116C108312031348
:100190008B138101FA3083120317A2007D30831282
:1001A0000317A10083120313010883120313A30092
:1001B000831203138B17073083120313A5009C309F
:1001C000A4008030A6002408FE002508FF002608B1
:1001D0008A1116278A118312031323088A11862491
:1001E0008A11073083120313A500C430A4008030A5
:1001F000A6002408FE002508FF0026088A111627FD
:100200008A11831203138B138101AE3083160313FB
:10021000E8000130E900753083160313EA00073067
:10022000EB0083120313010883120313A30083124C
:1002300003138B17073083120313A500B230A400F9
:100240008030A6002408FE002508FF0026088A1139
:1002500016278A118312031323088A1186248A1110
:10026000073083120313A500C430A4008030A60019
:100270002408FE002508FF0026088A1116278A1187
:10028000831203138101831603136C1CD92A6C108B
:100290000730831603136702031D50295930660285
:1002A000031C3C2A0730831603136702031D5A29D7
:1002B0009E30660203183C2A0730831603136B0234
:1002C000031D642959306A02031C3C2A0730831637
:1002D00003136B02031D6E299E306A0203183C2A29
:1002E000831603136C150530831603136502031D73
:1002F0007B2947306402031CB6290530831603139B
:100300006502031D8529963064020318B62905305D
:10031000831603136902031D8F2947306802031CEB
:10032000B6290530831603136902031D99299630F7
:1003300068020318B629073083120313A500AA30F8
:10034000A4008030A6002408FE002508FF0026082F
:100350008A1116278A1183160313E601E701831613
:100360000313E401E50183120313A20A013083168B
:1003700003136502031DBE297D306402031CF929A5
:100380000130831603136502031DC829C2306402BD
:100390000318F9290130831603136902031DD229BA
:1003A0007D306802031CF9290130831603136902AA
:1003B000031DDC29C23068020318F92907308312B3
:1003C0000313A500A630A4008030A6002408FE0078
:1003D0002508FF0026088A1116278A1183160313A1
:1003E000E601E70183160313E401E5018312031319
:1003F000A20A0130831603136902031D012A7D300E
:100400006802031C3C2A0130831603136902031D92
:100410000B2AC230680203183C2A053083160313E6
:100420006502031D152A47306402031C3C2A05306F
:10043000831603136502031D1F2A963064020318F6
:100440003C2A073083120313A500AE30A40080308D
:10045000A6002408FE002508FF0026088A1116279A
:100460008A1183160313E601E70183160313E401DF
:10047000E50183120313A20A093083120313220237
:10048000031CBE2A831603136C1DBE2A0230FF0014
:100490008312031322088A1142278A11831203133D
:1004A000A400A5012408523EA6000030A700003099
:1004B0000318250FA707260883120313840083134C
:1004C00083120313271883178316031364088312F8
:1004D00003138000840A8316031365088312031331
:1004E0008000831203132408A03EA40025080318EB
:1004F000250F003EA50024088312031384008313F4
:1005000083120313251883178316031366088312B7
:1005100003138000840A83160313670883120313EE
:10052000800083120313A20A8312031301088312AB
:100530000313A3000730A500B230A4008030A6004A
:100540002408FE002508FF0026088A1116278A11B4
:100550008312031323088A1186248A110730831219
:100560000313A400C430A3008030A5002308FE00BC
:100570002408FF0025088A1116278A118312031305
:100580008B1783160313660883160313EA0083167A
:100590000313670883160313EB0083160313640821
:1005A00083160313E80083160313650883160313E9
:1005B000E9000A30831203132202031C6C2BA301EF
:1005C0000230FF008312031323088A1142278A1185
:1005D00083120313A400A5012408523EA600003094
:1005E000A70000300318250FA7072608831203135E
:1005F00084008313831203132718831783120313B2
:10060000000883120313A80083120313840A00084E
:1006100083120313A9002808FF0029088A110D245A
:100620008A11073083120313A700C230A60080305E
:10063000A8002608FE002708FF0028088A111627B0
:100640008A11831203132408A03EA400250803186E
:10065000250F003EA5002408831203138400831392
:1006600083120313251883178312031300088312C0
:100670000313A60083120313840A000883120313D2
:10068000A7002608FF0027088A110D248A110730C9
:1006900083120313A500C430A4008030A6002408F0
:1006A000FE002508FF0026088A1116278A118312EA
:1006B0000313A30A0A302302031CE02A0730A40014
:1006C0009630A3008030A5002308FE002408FF0018
:1006D00025088A1116278A1183120317A0014029C1
:1006E0000800D530FE000530FF0080308A11000080
:1006F00096268A11000083160313C5007F08C400E4
:10070000D730C6000530C700831603134408C8005D
:100710004508C900FF30C407031CC5034808490445
:100720000319092C04304607C800C901C90D470840
:10073000C9074808FE004908FF0080308A11000000
:1007400096268A11000083160313CB007F08CA0087
:100750004608FE004708FF0080308A1100009626F8
:100760008A11000083160313CD00C9007F08CC0056
:10077000C80002304607C800C901C90D4708C907AB
:100780004808FE004908FF0080308A1100009626C4
:100790008A11000083160313C900CF007F08C80028
:1007A000CE00831603134A08CE004B08CF00FF305B
:1007B000CA07031CCB034E084F040319022C4C0834
:1007C000FE004D08FF0080308A11000083268A1148
:1007D000000083160313CE0048088312031384001D
:1007E000831383160313491883174E0883120313C8
:1007F000800083160313CC0A0319CD0AC80A031913
:10080000C90AD12B063083160313C6070318C70A7B
:10081000842B8A110000BC28080083120313B00047
:100820007F08AF00B101831203132F0830040319AE
:100830005F2C31084A3EB20000300318013EB3007D
:100840000A30FD000030FE002F08FF0030088A113A
:1008500092258A117F0883120313B4003208831291
:10086000031384008313831203133318831734088C
:100870008312031380000A30FD000030FE00831253
:1008800003132F08FF0030088A11F7248A118312FE
:100890000313B0007F08AF003030B4073208831272
:1008A000031384008313831203133318831734084C
:1008B00083120313800083120313B10A132C8312D3
:1008C00003133108AF00831203132F08B000AF03E6
:1008D00030080319852C2F084A3EB0000030031859
:1008E000013EB10030088312031384008313831286
:1008F00003133118831783120313000883120313A1
:10090000B2008A1146258A11632C08008312031352
:10091000B500B6010030831203133504031D932C78
:100920003608031DD02C8312031336084E3EB70041
:1009300000300318013EB8000A30FF0035088A1164
:10094000E8268A1183120313B900370883120313B0
:100950008400831383120313381883173908831212
:10096000031380000A30FF008312031335088A1135
:10097000B7268A1183120313B5003030B907370840
:10098000831203138400831383120313381883170D
:10099000390883120313800083120313B60A8A2CCA
:1009A000831203133608B500831203133508B6000B
:1009B000B50336080319F62C35084E3EB600003054
:1009C0000318013EB7003608831203138400831313
:1009D000831203133718831783120313000883123B
:1009E0000313B8008A1146258A11D42C08008312FB
:1009F0000313E7007F08E6007E08E9007D08E800B1
:100A0000EA01EB010130EC00ED0168086904031D07
:100A10000D2DFF30FF00FF30452D831203136808B2
:100A20006908EE00EE1B1B2D0310E80DE90D031005
:100A3000EC0DED0D0D2D831203136C086D040319DD
:100A4000402D69086702031D272D68086602031CF4
:100A5000372D831203136C08EA076D0803186D0F16
:100A6000EB076808E6026908031C690FE702031038
:100A700083120313E90CE80C0310ED0CEC0C1B2D96
:100A8000831203136A08FF006B0808008312031324
:100A9000AA00831603136D0A83120313AB001030F0
:100AA0002B020318AB01831603136E088312031382
:100AB0002B06031D6D2D0730AD006030AC0080307B
:100AC000AE002C08FE002D08FF002E088A114E26CD
:100AD0008A11FF30FF00FF30912D831603136D083C
:100AE000B43E83120313AC0000300318013EAD0086
:100AF0002C088312031384008313831203132D180D
:100B000083172A08831203138000831203132B0810
:100B100083160313ED00831603130C160030FF0039
:100B20000030080083160313D1007F08D0007E0830
:100B3000D3007D08D2005304031DA22DFF30FF0017
:100B4000FF30D42D013083160313D4008316031312
:100B500052085308D500D51BB22D0310D20DD30D6A
:100B6000D40AA62D00308316031354040319CF2D85
:100B700053085102031DBE2D52085002031CC82DFC
:100B8000831603135208D0025308031C530FD102DB
:100B9000031083160313D30CD20CD403B22D831687
:100BA00003135008FF00510808000A340034BA3417
:100BB0000734E434003402340034BC340734E634FF
:100BC000003402340034BE340734E83400340234D4
:100BD0000034C0340734EA340034023400340334BF
:100BE0000034ED34003401340034C6340734EE34BC
:100BF000003401340034C734073420340134013464
:100C00000034C83407342134013401340034C93489
:100C100007342234013401340034CA340734243414
:100C200001340134003483160313051505168716A5
:100C30008613861650309F00831203179F111F11D1
:100C40009E131F109F101E121E159E15083083162E
:100C50000313990018159B15981618128312031385
:100C6000981783160313811281110111811001104D
:100C70000530831203139700831603130C1183129C
:100C800003130C1190010B178B178F018E01831624
:100C900003130C158312031310140800831203139B
:100CA000C4007F08C3007E08C200831203138B13A5
:100CB00083120313C5018312031345084207C600BC
:100CC00043080318013EC70044080318013EC8004A
:100CD0004608FE004708FF0048088A1183268A114B
:100CE00083120313C90049080319822E490883128D
:100CF00003139900831203130C1E7A2E831203131D
:100D0000C50A5B2E0800003A03198A2E803A03199F
:100D1000912E00347E08840083137F188317000807
:100D200008007F088A007E0882000800003A031944
:100D30009E2E803A0319A82EFF0100347E088400FD
:100D400083137F1883170008FF00840A0008080037
:100D50008A1100009126FD00FE0FFF03FF0A8A1191
:100D600000009126FC007D08FF007C080800831627
:100D70000313D6007F08D700D8010130D9005708E7
:100D8000031DC42EFF30E72E831603135708DA0025
:100D9000DA1BCF2E0310D70D0310D90DC42E00304F
:100DA0008316031359040319E42E57085602031C33
:100DB000DD2E5908D8075708D602031083160313EF
:100DC000D70C0310D90CCF2E831603135808080034
:100DD00083160313E0007F08E1006108031DF22E73
:100DE000FF30152F013083160313E200831603131F
:100DF0006108E300E31B002F0310E10DE20AF62E69
:100E000000308316031362040319122F6108600275
:100E1000031C0C2F6108E002031083160313E10C7E
:100E2000E203002F831603136008080083120313E4
:100E3000BC007F08BB007E08BA00BD01831203130B
:100E40003D083A07BE003B080318013EBF003C08BE
:100E50000318013EC0003E08FE003F08FF004008A6
:100E60008A1183268A1183120313C10041080319D2
:100E7000412F41088A1146258A1183120313BD0AA6
:100E80001E2F080083160313DB007F08DC00DD0142
:100E90000830DE00831603135B1C502F5C08DD074F
:100EA000031083160313DB0C03105C0DDF00DC0062
:100EB0005E03DF00DE005F08031D4A2F5D080800A7
:100EC00042345534463446344534523420344F3459
:100ED00057344534523446344C344F3457340A3442
:100EE000003449344E34543420344534523452346E
:100EF0000A34003450344934523431343A342034D2
:100F0000003450344934523432343A3420340034CA
:100F100050344934453431343A3420340034503478
:100F20004934453432343A3420340034533459345B
:100F30004E3443340A340034773431343A34203474
:100F40000034743431343A342034003430342034B2
:100F50000A340034313420340A3400344634203426
:100F60000A34003477343A342034003474343A3458
:100F700020340034003400340034003400340034B1
:100F800000340034093400340A34003400340034AE
:060F9000003400340034BF
:02400E00D43F9D
:00000001FF
