:020000040000FA
:1000000000008A11F22A0034F200030E8301F1008D
:100010000A088A01F000040883120313ED0083121A
:1000200003130C1E80288312031369088312031321
:100030006706031D2728831203136A08831203131C
:100040006806031D2728831603130C1280288312C9
:1000500003136908343E83120313A0000030A1008B
:10006000831203136A0803186A0A03193A288312D1
:100070000313A107831203132008831203138400C0
:1000800083138312031321188317831203130008A9
:10009000990083120313200883120313840083132F
:1000A0008312031321188317003083120313800077
:1000B000013083120313690783120313A000A10107
:1000C000A10D831203136A0883120313A1072108E9
:1000D000803E803E031D6E2810302002031C7428D1
:1000E00083120313A001A1018312031320088312BA
:1000F0000313E90083120313210883120313EA0098
:10010000831203130C1DCC28831603130C118312C6
:100110000313171CAB2817108F018E0116088312CA
:100120000313A00083120313E100E2016108E2005F
:10013000E10183120313150883120313A000A10128
:10014000200883120313E1040030E204013083121B
:100150000313EB00C6288312031317141608831227
:100160000313A00083120313DF00E0015F08E00027
:10017000DF0183120313150883120313A000A101EA
:10018000200883120313DF040030E00483160313F6
:100190000C15831203130C1183120313EC0A653040
:1001A0006C02031CE328053083120313A1004B30BB
:1001B000A0008030A2002008FE002108FF002208D5
:1001C0008A111F258A11831203136D0883120313EA
:1001D000840070088A008301710E8300F20E720E93
:1001E000090083120313B0018316031306130515C8
:1001F0000516871207128711071387130612831239
:100200000313871207128711071387130612831629
:10021000031387168613861650309F008312031728
:100220009F111F119E131F109F101E121E159E1549
:10023000083083160313990018159B159816181289
:1002400083120313981705309700831603130C11BC
:100250008312031390010B178B178F018E018316E6
:1002600003130C15831203131014003083120313AD
:100270006B040319E72A1D30831203136202031D66
:10028000432961306102031C73291E30831203135A
:100290006202031D4D297830610203187329013071
:1002A000831203136002031D57297D305F02031C74
:1002B00073290130831203136002031D6129C230C8
:1002C0005F0203187329053083120313B200543000
:1002D000B1008030B3003108FE003208FF0033085F
:1002E0008A111F258A110730831203136202031D2E
:1002F0007B2959306102031CC42A0730831203137F
:100300006202031D85299E3061020318C42A07304A
:10031000831203136602031D8F2959306502031CE3
:10032000C42A0730831203136602031D99299E30E5
:1003300065020318C42A831203136308FF006408CC
:100340008A117A248A11053083120313B200843093
:10035000B1008030B3003108FE003208FF003308DE
:100360008A111F258A11831203136508FF0066088E
:100370008A117A248A11053083120313B200843063
:10038000B1008030B3003108FE003208FF003308AE
:100390008A111F258A11831203135F08FF0060086A
:1003A0008A117A248A11053083120313B200843033
:1003B000B1008030B3003108FE003208FF0033087E
:1003C0008A111F258A11831203136108FF00620836
:1003D0008A117A248A11053083120313B200863001
:1003E000B1008030B3003108FE003208FF0033084E
:1003F0008A111F258A110530831203136002031D21
:10040000032A47305F02031C3E2A05308312031380
:100410006002031D0D2A96305F0203183E2A053044
:10042000831203136402031D172A47306302031C5F
:100430003E2A0530831203136402031D212A9630DD
:10044000630203183E2A053083120313B20068309A
:10045000B1008030B3003108FE003208FF003308DD
:100460008A111F258A1183120313E101E20183120D
:100470000313DF01E00183120313B00A013083127A
:1004800003136002031D462A7D305F02031C812A8C
:100490000130831203136002031D502AC2305F0231
:1004A0000318812A0130831203136402031D5A2AA0
:1004B0007D306302031C812A01308312031364021E
:1004C000031D642AC23063020318812A0530831297
:1004D0000313B2006430B1008030B3003108FE0075
:1004E0003208FF0033088A111F258A118312031373
:1004F000E101E20183120313DF01E0018312031320
:10050000B00A0130831203136402031D892A7D306F
:100510006302031CC42A0130831203136402031D07
:10052000932AC23063020318C42A053083120313CE
:100530006002031D9D2A47305F02031CC42A053058
:10054000831203136002031DA72A96305F0203186B
:10055000C42A053083120313B2006C30B10080301E
:10056000B3003108FE003208FF0033088A111F254E
:100570008A1183120313E101E20183120313DF01E5
:10058000E00183120313B00A83120313610883127C
:100590000313E50083120313620883120313E600BA
:1005A000831203135F0883120313E3008312031300
:1005B000600883120313E40083120313E101E201D4
:1005C00083120313DF01E00183120313EB010730F1
:1005D0008312031330020318B00183120313EC01DA
:1005E00035290800B330FE000430FF0080308A1146
:1005F0000000FE248A11000083120313C5007F0847
:10060000C400B530C6000430C70083120313440889
:10061000C8004508C900FF30C407031CC5034808CB
:10062000490403198A2B04304607C800C901C90DC3
:100630004708C9074808FE004908FF0080308A11B2
:100640000000FE248A11000083120313CB007F08F0
:10065000CA004608FE004708FF0080308A110000EB
:10066000FE248A11000083120313CD00C9007F0805
:10067000CC00C80002304607C800C901C90D4708B0
:10068000C9074808FE004908FF0080308A110000B1
:10069000FE248A11000083120313C900CF007F08D3
:1006A000C800CE00831203134A08CE004B08CF00C7
:1006B000FF30CA07031CCB034E084F040319832BDA
:1006C0004C08FE004D08FF0080308A110000EB242A
:1006D0008A11000083120313CE004808831203130B
:1006E0008400831383120313491883174E0883125F
:1006F0000313800083120313CC0A0319CD0AC80A1E
:100700000319C90A522B063083120313C6070318B4
:10071000C70A052B8A110000F12808008312031371
:10072000A30083120313670883120313A400A40A0F
:10073000103024020318A4012408A500A601831286
:1007400003136908831203132506031DB32B8312B9
:1007500003136A08831203132606031DB32BFF300D
:10076000FF00FF30E72B831203136708343E831228
:100770000313A4000030A7008312031368080318B2
:10078000680A0319C62B83120313A70783120313E6
:10079000240883120313840083138312031327187E
:1007A0008317230883120313800083120313250881
:1007B00083120313E7008312031326088312031323
:1007C000E800831603130C160030FF000030080009
:1007D00083120313D1007F08D0007E08D3007D0868
:1007E000D200D401D5010130D600D70152085304FC
:1007F000031DFE2BFF30FF00FF30362C8312031346
:1008000052085308D800D81B0C2C0310D20DD30D5E
:100810000310D60DD70DFE2B831203135608570471
:100820000319312C53085102031D182C5208500291
:10083000031C282C831203135608D40757080318E7
:10084000570FD5075208D0025308031C530FD1028B
:10085000031083120313D30CD20C0310D70CD60C45
:100860000C2C831203135408FF0055080800831250
:100870000313DA007F08D9007E08DC007D08DB0066
:100880005C04031D472CFF30FF00FF30792C013042
:1008900083120313DD00831203135B085C08DE0080
:1008A000DE1B572C0310DB0DDC0DDD0A4B2C00305A
:1008B000831203135D040319742C5C085A02031D90
:1008C000632C5B085902031C6D2C831203135B0815
:1008D000D9025C08031C5C0FDA02031083120313B5
:1008E000DC0CDB0CDD03572C831203135908FF00CB
:1008F0005A08080083120313A9007F08A800AA0160
:100900008312031328082904031D892C2A08031DB8
:10091000B22C0A30FD000030FE00831203132808B9
:10092000FF0029088A1137248A117F0883120313D4
:10093000AB000A30FD000030FE002808FF00290847
:100940008A11E8238A1183120313A9007F08A800E3
:100950003030AB072B088A118E238A1183120313C0
:10096000AA0A802C080009340034033400346B34A4
:10097000003401340034783405345F3400340234F8
:1009800000347A34053461340034023400347C3469
:10099000053463340034023400347E340534653465
:1009A00000340234003480340534673400340234B7
:1009B000003482340534693400340234003488341D
:1009C00005346C34003401340034893405346E3419
:1009D000003401340034003A0319F22C803A031930
:1009E000F92C00347E08840083137F1883170008D5
:1009F00008007F088A007E0882000800003A031978
:100A0000062D803A0319102DFF0100347E08840062
:100A100083137F1883170008FF00840A000808006A
:100A20008A110000F924FD00FE0FFF03FF0A8A115E
:100A30000000F924FC007D08FF007C0808008312F8
:100A40000313A9007F08A8007E08AA00AC01831246
:100A500003132C082A07AD0028080318013EAB0039
:100A600029080318013EAE002D08FE002B08FF00E8
:100A70002E088A11EB248A1183120313AF002F086A
:100A800003194A2D2F088A118E238A11831203130A
:100A9000AC0A272D080049344E34543420344534F0
:100AA000523452340A340034533459344E344334BB
:100AB0000A340034773431343A3420340034743416
:100AC00031343A3420340034303420340A340034A1
:100AD000313420340A340034463420340A340034AB
:100AE00077343A342034003474343A3420340034C7
:100AF0000034003400340034003400340034003456
:100B00000034003400340034093400340A34003432
:040B10000034003479
:02400E00D43F9D
:00000001FF
