:020000040000FA
:1000000000008A11172A0034F200030E8301F10068
:100010000A088A01F000040883160313E000831223
:1000200003130B1D15280B118101831203130C1EE2
:100030006928831603135E08831603135D06031DE8
:100040002528831603130C126928831603135E08F0
:10005000A03E83160313B00000300318013EB10028
:10006000300883120313840083138316031331189B
:1000700083178312031300089900831603133008B3
:100080008312031384008313831603133118831719
:100090000030831203138000831603135E08831657
:1000A0000313B000B101B00A0319B10A3108803E50
:1000B000803E031D5D2810303002031C6328831628
:1000C0000313B001B1018316031330088316031321
:1000D000DE00831203130C1DB428831603130C11C6
:1000E00083120313171C932817108F018E01160813
:1000F00083160313B00083160313D600D7015608E6
:10010000D700D60183120313150883160313B0001A
:10011000B101300883160313D6040030D7048316C8
:1001200003135C14AE2883120313171416088316E6
:100130000313B00083160313D400D5015408D5006F
:10014000D40183120313150883160313B000B10101
:10015000300883160313D4040030D5048316031328
:100160000C15831203130C1183160313DF0A831675
:100170000313600883120313840070088A0083014C
:10018000710E8300F20E720E090083160313B20182
:10019000B3018A110F248A11831603135C115C10BA
:1001A000831603135C1C75295C1007308316031338
:1001B0005702031DDD2859305602031C0029073061
:1001C000831603135702031DE7289E3056020318B7
:1001D00000290730831603135B02031DF1285930F1
:1001E0005A02031C00290730831603135B02031D08
:1001F000FB289E305A0203180029831603135C154E
:1002000083160313B20A0A30330203185D298316DA
:1002100003135C1D5D291530831603133202031C82
:100220005D290230FF0033088A110C258A118316DC
:100230000313B400B50134083B3EB6000030B700EC
:1002400000300318350FB7073608831203138400F4
:100250008313831603133718831783160313540865
:10026000831203138000840A831603135508831234
:10027000031380008316031334084F3EB40035087F
:100280000318350F003EB5003408831203138400B1
:100290008313831603133518831783160313560825
:1002A000831203138000840A8316031357088312F2
:1002B0000313800083160313B30A8316031356082F
:1002C00083160313DA0083160313570883160313E8
:1002D000DB0083160313540883160313D800831618
:1002E0000313550883160313D900831603130C1147
:1002F0000A30831603133302031C0F2AB4010230A1
:10030000FF008316031334088A110C258A11831603
:100310000313B500B60135083B3EB7000030B80006
:1003200000300318360FB807370883120313840010
:1003300083138316031338188317831203130008DB
:1003400083160313B90083120313840A000883166B
:100350000313BA003908FF003A088A11B3228A1140
:10036000053083160313B8009E30B7008030B90003
:100370003708FE003808FF0039088A11B0248A11B6
:100380008316031335084F3EB50036080318360FA1
:10039000003EB600350883120313840083138316CE
:1003A00003133618831783120313000883160313ED
:1003B000B70083120313840A000883160313B800DE
:1003C0003708FF0038088A11B3228A1105308316D6
:1003D0000313B600A030B5008030B7003508FE002A
:1003E0003608FF0037088A11B0248A1183160313D8
:1003F000B40A0A303402031C7F290530B50072307C
:10040000B4008030B6003408FE003508FF0036081E
:100410008A11B0248A1183160313B201B301831623
:1004200003130C1583160313DF01D02808007E3058
:10043000FE000430FF0080308A1100005D248A1124
:10044000000083120313E4007F08E3008030E5001E
:100450000430E600831203136308E7006408E80031
:10046000FF30E307031CE403670868040319AF2A9D
:1004700004306507E700E801E80D6608E80767084B
:10048000FE006808FF0080308A1100005D248A1198
:10049000000083120313EA007F08E9006508FE00EC
:1004A0006608FF0080308A1100005D248A11000078
:1004B00083120313EC00E8007F08EB00E700023032
:1004C0006507E700E801E80D6608E8076708FE0031
:1004D0006808FF0080308A1100005D248A11000046
:1004E00083120313E800EE007F08E700ED0083129B
:1004F00003136908ED006A08EE00FF30E907031CEA
:10050000EA036D086E040319A82A6B08FE006C0844
:10051000FF0080308A1100004A248A1100008312F3
:100520000313ED00670883120313840083138312FF
:100530000313681883176D08831203138000831256
:100540000313EB0A0319EC0AE70A0319E80A772AEE
:10055000063083120313E5070318E60A2A2A8A11D4
:100560000000C528080083120313A1007F08A00023
:10057000A2018312031320082104031DC22A2208AA
:10058000031D0A2B831203132208363EA3000030FA
:100590000318013EA4000A30FD000030FE002008D0
:1005A000FF0021088A11CC238A117F0883120313CC
:1005B000A5002308831203138400831383120313FB
:1005C0002418831725088312031380000A30FD00C6
:1005D0000030FE00831203132008FF0021088A1157
:1005E00031238A1183120313A1007F08A000303049
:1005F000A5072308831203138400831383120313B4
:100600002418831725088312031380008312031311
:10061000A20AB92A831203132208A000831203132B
:100620002008A100A00321080319302B2008363E22
:10063000A10000300318013EA20021088312031319
:100640008400831383120313221883178312031366
:10065000000883120313A3008A1180238A110E2B32
:10066000080083160313C1007F08C0007E08C30082
:100670007D08C200C401C5010130C600C70142089F
:100680004304031D472BFF30FF00FF307F2B8316F1
:10069000031342084308C800C81B552B0310C20DA2
:1006A000C30D0310C60DC70D472B83160313460851
:1006B000470403197A2B43084102031D612B4208AA
:1006C0004002031C712B831603134608C407470816
:1006D0000318470FC5074208C0024308031C430F15
:1006E000C102031083160313C30CC20C0310C70C02
:1006F000C60C552B831603134408FF004508080059
:1007000083160313BB00831603135D0A83160313BA
:10071000BC0010303C020318BC01831603135E08B2
:10072000831603133C06031DA72B0530BE002A3099
:10073000BD008030BF003D08FE003E08FF003F08BE
:100740008A11B0248A11FF30FF00FF30CB2B8316B3
:1007500003135D08A03E83160313BD000030031889
:10076000013EBE003D0883120313840083138316E9
:1007700003133E1883173B0883120313800083166C
:1007800003133C0883160313DD00831603130C16B2
:100790000030FF000030080083160313CA007F08F2
:1007A000C9007E08CC007D08CB004C04031DDC2B67
:1007B000FF30FF00FF300E2C013083160313CD00F5
:1007C000831603134B084C08CE00CE1BEC2B0310F2
:1007D000CB0DCC0DCD0AE02B0030831603134D0456
:1007E0000319092C4C084A02031DF82B4B08490237
:1007F000031C022C831603134B08C9024C08031C6C
:100800004C0FCA02031083160313CC0CCB0CCD0380
:10081000EC2B831603134908FF004A0808008316CF
:1008200003130515051687168613861650309F008C
:10083000831203179F111F119E131F109F101E126A
:100840001E159E15083083160313990018159B1565
:100850009816181283120313981783160313811224
:1008600081110111811001108312031390010530D1
:100870009700831603130C11831203130C110B172B
:100880008B178F018E01831603130C15831203132C
:1008900010140800003A0319512C803A0319582CFF
:1008A00000347E08840083137F1883170008080033
:1008B0007F088A007E0882000800003A0319652C30
:1008C000803A03196F2CFF0100347E0884008313E3
:1008D0007F1883170008FF00840A000808008A11A7
:1008E00000005824FD00FE0FFF03FF0A8A110000DC
:1008F0005824FC007D08FF007C0808000834003400
:1009000096340534D4340034023400349834053439
:10091000D6340034023400349A340534D8340034E8
:10092000023400349C340534DA34003402340034A8
:1009300003340034DD34003401340034A23405348F
:10094000DE34003401340034A3340534DF340034A1
:1009500001340034A4340534E1340034013400346B
:1009600083120313B0007F08AF007E08AE00B10110
:100970008312031331082E07B2002F080318013E1B
:10098000B30030080318013EB4003208FE003308FB
:10099000FF0034088A114A248A1183120313B50018
:1009A00035080319DF2C35088312031399008312CD
:1009B00003130C1ED72C83120313B10AB82C0800A2
:1009C00083120313A8007F08A7007E08A600A901D0
:1009D0008312031329082607AA0027080318013EDB
:1009E000AB0028080318013EAC002A08FE002B08C3
:1009F000FF002C088A114A248A1183120313AD00C8
:100A00002D0803190B2D2D088A1180238A118312BA
:100A10000313A90AE82C080083160313CF007F08EC
:100A2000D000D1010830D200831603134F1C1A2DB9
:100A30005008D107031083160313CF0C0310500D79
:100A4000D300D0005203D300D2005308031D142D4D
:100A50005108080042345534463446344534523443
:100A600020344F3457344534523446344C344F34A8
:100A700057340A340034543449344D34303420343B
:100A80004F34573446340A34003449344E345434E5
:100A900020344534523452340A3400348312031360
:100AA0009900831203130C1E512D08005034493451
:100AB000523431343A3420340034503449345234CE
:100AC00032343A34203400345034493445343134EB
:100AD0003A342034003450344934453432343A34D2
:100AE00020340034533459344E3443340A340034FF
:100AF000773431343A3420340034743431343A3475
:100B000020340034303420340A340034313420347A
:100B10000A340034463420340A34003477343A340A
:100B20002034003474343A34203400340034003437
:100B3000003400340034003400340034093400340C
:0A0B40000A3400340034003400349D
:02400E00D43F9D
:00000001FF
