:020000040000FA
:1000000000008A11D62A0034F200030E8301F100A9
:100010000A088A01F000040883160313BC00831247
:1000200003130B1D17288B120B118101071083126C
:1000300003130C1E6B28831603133A08831603134D
:100040003906031D2728831603130C126B28831609
:1000500003133A084D3E83120313DD0000300318EA
:10006000013EDE005D0883120313840083138312B4
:1000700003135E1883178312031300089900831279
:1000800003135D0883120313840083138312031385
:100090005E18831700308312031380008316031346
:1000A0003A0883120313DD00DE01DD0A0319DE0ABC
:1000B0005E08803E803E031D5F2810305D02031CF9
:1000C000652883120313DD01DE01831203135D082B
:1000D00083160313BA00831203130C1DB62883166C
:1000E00003130C1183120313171C952817108F018B
:1000F0008E01160883120313DD0083160313B2006A
:10010000B3013208B300B20183120313150883123E
:100110000313DD00DE015D0883160313B204003013
:10012000B304831603133814B0288312031317146F
:10013000160883120313DD0083160313B000B10108
:100140003008B100B00183120313150883120313A2
:10015000DD00DE015D0883160313B0040030B10436
:10016000831603130C15831203130C118316031348
:10017000BB0A831603133C08831203138400700820
:100180008A008301710E8300F20E720E0900831241
:100190000313DF018A112F248A11831603133811E8
:1001A000381083160313381CCA2A381007308316F8
:1001B00003133302031DDE2859303202031C092ABF
:1001C0000730831603133302031DE8289E303202E2
:1001D0000318092A0730831603133702031DF22878
:1001E00059303602031C092A0730831603133702DD
:1001F000031DFC289E3036020318092A0530831699
:1002000003133102031D062947303002031C57290E
:100210000530831603133102031D10299630300276
:10022000031857290530831603133502031D1A29B5
:1002300047303402031C5729053083160313350257
:10024000031D2429963034020318572906308312DF
:100250000313E1000030E0008030E2006008FE009F
:100260006108FF0062088A1102258A1183120313B4
:100270005F08393EE00000300318013EE1006008ED
:1002800083120313840083138312031361188317EB
:10029000023083120313800083160313B201B301EB
:1002A00083160313B001B10183120313DF0A013077
:1002B000831603133102031D5F297D303002031CB6
:1002C000B0290130831603133102031D6929C2309E
:1002D00030020318B0290130831603133502031DC1
:1002E00073297D303402031CB029013083160313B7
:1002F0003502031D7D29C23034020318B0290530B0
:1003000083120313E100FC30E0008030E20060085B
:10031000FE006108FF0062088A1102258A1183121B
:1003200003135F08393EE00000300318013EE1008E
:10033000600883120313840083138312031361186C
:100340008317013083120313800083160313B20155
:10035000B30183160313B001B10183120313DF0A43
:100360000130831603133502031DB8297D30340292
:10037000031C092A0130831603133502031DC22909
:10038000C23034020318092A0530831603133102E0
:10039000031DCC2947303002031C092A053083167F
:1003A00003133102031DD629963030020318092A9F
:1003B000063083120313E1000430E0008030E200D5
:1003C0006008FE006108FF0062088A1102258A1198
:1003D000831203135F08393EE00000300318013E2A
:1003E000E100600883120313840083138312031354
:1003F00061188317033083120313800083160313DD
:10040000B201B30183160313B001B10183120313C8
:10041000DF0A3A30831603133302031D112A993081
:100420003202031CB22A3E30831603133302031D2B
:100430001B2A803032020318B22A013083160313BC
:100440003102031D252A7D303002031CB22A0130FF
:10045000831603133102031D2F2AC2303002031802
:10046000B22A053083120313E100E730E000803048
:10047000E2006008FE006108FF0062088A110225A0
:100480008A1183160313B201B30183160313B0015B
:10049000B101013083120313E000DF035F08E100C4
:1004A0000B30E200831203136108393EE300003091
:1004B0000318013EE40063088312031384008313CE
:1004C0008312031364188317831203130008831223
:1004D0000313E50062089D3EE30005300318013E6A
:1004E000E4006308FE006408FF0080308A116B247A
:1004F0008A11831203136506031DE001E103E20B79
:10050000522A6108DF0060080319992A0530E100CA
:10051000E030E0008030E2006008FE006108FF008B
:1005200062088A1102258A118312031307148101BC
:100530008B16053083120313E100ED30E0008030AC
:10054000E2006008FE006108FF0062088A110225CF
:100550008A11831203135F088A1172238A1183128E
:100560000313DF0183160313320883160313B60047
:1005700083160313330883160313B700831603137C
:10058000300883160313B40083160313310883164F
:100590000313B50083160313BB0113308312031337
:1005A0005F02031CD128DF01D12808009F30FE0024
:1005B0000430FF0080308A1100007E248A11000080
:1005C00083160313A1007F08A000A130A20004300D
:1005D000A300831603132008A4002108A500FF3000
:1005E000A007031CA1032408250403196E2B043063
:1005F0002207A400A501A50D2308A5072408FE00D5
:100600002508FF0080308A1100007E248A11000036
:1006100083160313A7007F08A6002208FE00230804
:10062000FF0080308A1100007E248A1100008316AA
:100630000313A900A5007F08A800A4000230220728
:10064000A400A501A50D2308A5072408FE00250880
:10065000FF0080308A1100007E248A11000083167A
:100660000313A500AB007F08A400AA0083160313A0
:100670002608AA002708AB00FF30A607031CA70323
:100680002A082B040319672B2808FE002908FF00FD
:1006900080308A1100006B248A1100008316031336
:1006A000AA00240883120313840083138316031300
:1006B000251883172A088312031380008316031357
:1006C000A80A0319A90AA40A0319A50A362B063099
:1006D00083160313A2070318A30AE92A8A1100004C
:1006E000C728080083120313A000A1010030831261
:1006F00003132004031D7F2B2108031DBC2B831231
:1007000003132108353EA20000300318013EA30068
:100710000A30FF0020088A1132258A118312031340
:10072000A40022088312031384008313831203138B
:100730002318831724088312031380000A30FF0054
:100740008312031320088A11D1248A118312031300
:10075000A0003030A40722088312031384008313FF
:1007600083120313231883172408831203138000B2
:1007700083120313A10A762B831203132108A0000E
:10078000831203132008A100A00321080319E22B00
:100790002008353EA10000300318013EA2002108C8
:1007A0008312031384008313831203132218831705
:1007B00083120313000883120313A3008A11E32397
:1007C0008A11C02B080083120313E600831603135B
:1007D000390A83120313E700103067020318E70198
:1007E000831603133A08831203136706031D0A2CAA
:1007F0000530E9008C30E8008030EA006808FE002F
:100800006908FF006A088A1102258A11FF30FF007B
:10081000FF302E2C8316031339084D3E8312031329
:10082000E80000300318013EE90068088312031352
:1008300084008313831203136918831766088312D5
:100840000313800083120313670883160313B90090
:10085000831603130C160030FF00003008008316C7
:1008600003130515051687168613861650309F004C
:10087000831203179F111F119E131F109F101E122A
:100880001E159E15831603130710083099001815BE
:100890009B159816181283120313981783160313C7
:1008A000811281110111811401108312031390012F
:1008B00005309700831603130C11831203130C11D8
:1008C0000B178B178F018E01831603130C158312E0
:1008D000031310140800003A0319722C803A03190C
:1008E000792C00347E08840083137F188317000856
:1008F00008007F088A007E0882000800003A031979
:10090000862C803A0319902CFF0100347E08840065
:1009100083137F1883170008FF00840A000808006B
:100920008A1100007924FD00FE0FFF03FF0A8A11DF
:1009300000007924FC007D08FF007C0808000834D2
:10094000003410340634B03400340234003412342D
:100950000634B23400340234003414340634B4346F
:1009600000340234003416340634B6340034023411
:10097000003403340034B9340034013400341C34FE
:100980000634BA340034013400341D340634BB3428
:100990000034013400341E340634BD3400340134D4
:1009A000003483120313EB007F08EC00ED010130EB
:1009B000EE006C08031DDE2CFF30012D83120313A3
:1009C0006C08EF00EF1BE92C0310EC0D0310EE0D8B
:1009D000DE2C0030831203136E040319FE2C6C0806
:1009E0006B02031CF72C6E08ED076C08EB0203107A
:1009F00083120313EC0C0310EE0CE92C8312031387
:100A00006D08080083120313AF007F08AE007E0854
:100A1000AD00B0018312031330082D07B1002E087A
:100A20000318013EB2002F080318013EB30031083D
:100A3000FE003208FF0033088A116B248A118312EA
:100A40000313B40034080319312D3408831203133F
:100A50009900831203130C1E292D83120313B00A6D
:100A60000A2D080083160313AC007F08AD002D0883
:100A7000031D3C2DFF305F2D013083160313AE00A4
:100A8000831603132D08AF00AF1B4A2D0310AD0DC5
:100A9000AE0A402D0030831603132E0403195C2D7B
:100AA0002D082C02031C562D2D08AC0203108316B2
:100AB0000313AD0CAE034A2D831603132C08080054
:100AC00083120313A7007F08A6007E08A500A801D3
:100AD0008312031328082507A90026080318013EDE
:100AE000AA0027080318013EAB002908FE002A08C7
:100AF000FF002B088A116B248A1183120313AC00A8
:100B00002C0803198B2D2C088A11E3238A118312D8
:100B10000313A80A682D080042345534463446347D
:100B20004534523420344F345734453452344634EB
:100B30004C344F3457340A34003403340334033410
:100B400003340334033403340334033403340334ED
:100B50000334543449344D34303420344F34573412
:100B600046340A34003449344E3454342034453445
:100B7000523452340A34003483120313990083121E
:100B800003130C1EBF2D0800503449345234313445
:100B90003A342034003450344934523432343A3404
:100BA0002034003450344934453431343A3420341C
:100BB000003450344934453432343A34203400342B
:100BC0004C3449346734683474340A340034533450
:100BD00059344E3443340A340034693420343D34BB
:100BE00020340034773431343A34203400347434CF
:100BF00031343A3420340034303420340A34003470
:100C0000313420340A340034463420340A34003479
:100C100077343A342034003474343A342034003495
:100C20000034003400340034003400340034003424
:0E0C3000093400340A34003400340034003437
:02400E00D43F9D
:00000001FF
