:020000040000FA
:1000000000008A119D2A0034F200030E8301F100E2
:100010000A088A01F000040883160313EA00831219
:1000200003130C1E63288316031366088316031339
:100030006506031D1F28831603130C1263288316FD
:1000400003136608B43E83120313A00000300318A4
:10005000013EA1002008831203138400831383123E
:1000600003132118831783120313000899008312C6
:1000700003132008831203138400831383120313D2
:100080002118831700308312031380008316031393
:10009000660883120313A000A101A00A0319A10A94
:1000A0002108803E803E031D572810302002031C8B
:1000B0005D2883120313A001A101831203132008FA
:1000C00083160313E600831203130C1DAE28831658
:1000D00003130C1183120313171C8D2817108F01A3
:1000E0008E01160883120313A00083160313DE008B
:1000F000DF015E08DF00DE0183120313150883129F
:100100000313A000A101200883160313DE040030AE
:10011000DF04831603136414A8288312031317142F
:10012000160883120313A00083160313DC00DD01FD
:100130005C08DD00DC01831203131508831203132E
:10014000A000A101200883160313DC040030DD04A5
:10015000831603130C15831203130C118316031358
:100160006A0883120313840070088A008301710EE9
:100170008300F20E720E090083120313A2018A118A
:100180003F258A118316031364116410831203132D
:100190008B138101FA3083160313E9007D30831637
:1001A0000313E80083120313010883120313A3004F
:1001B000831203138B17063083120313A500AA3092
:1001C000A4008030A6002408FE002508FF002608B1
:1001D0008A1142268A118312031323088A11B2233B
:1001E0008A11063083120313A500D230A400803098
:1001F000A6002408FE002508FF0026088A114226D2
:100200008A11831203138B138101AE3083160313FB
:10021000E0000130E100753083160313E20007307F
:10022000E30083120313010883120313A300831254
:1002300003138B17063083120313A500C030A400EC
:100240008030A6002408FE002508FF0026088A1139
:1002500042268A118312031323088A11B2238A11BA
:10026000063083120313A400D230A3008030A5000F
:100270002308FE002408FF0025088A1142268A115F
:1002800083120313810183160313641C982A6410DC
:100290000730831603135F02031D502959305E0295
:1002A000031C3C2A0730831603135F02031D5A29DF
:1002B0009E305E0203183C2A073083160313630244
:1002C000031D642959306202031C3C2A073083163F
:1002D00003136302031D6E299E30620203183C2A39
:1002E0008316031364150530831603135D02031D83
:1002F0007B2947305C02031CB629053083160313A3
:100300005D02031D852996305C020318B62905306D
:10031000831603136102031D8F2947306002031CFB
:10032000B6290530831603136102031D99299630FF
:1003300060020318B629063083120313A400B830F4
:10034000A3008030A5002308FE002408FF00250834
:100350008A1142268A1183160313DE01DF018316F8
:100360000313DC01DD0183120313A20A013083169B
:1003700003135D02031DBE297D305C02031CF929B5
:100380000130831603135D02031DC829C2305C02CD
:100390000318F9290130831603136102031DD229C2
:1003A0007D306002031CF9290130831603136102BA
:1003B000031DDC29C23060020318F92906308312BC
:1003C0000313A400B430A3008030A5002308FE006E
:1003D0002408FF0025088A1142268A118316031378
:1003E000DE01DF0183160313DC01DD018312031339
:1003F000A20A0130831603136102031D012A7D3016
:100400006002031C3C2A0130831603136102031DA2
:100410000B2AC230600203183C2A053083160313EE
:100420005D02031D152A47305C02031C3C2A05307F
:10043000831603135D02031D1F2A96305C02031806
:100440003C2A063083120313A400BC30A300803082
:10045000A5002308FE002408FF0025088A11422673
:100460008A1183160313DE01DF0183160313DC01F7
:10047000DD0183120313A20A09308312031322023F
:10048000031C802A83160313641D802A1B308316E5
:1004900003135F02031D4E2A59305E02031C802A9B
:1004A000831603135C08FF005D088A1139238A1143
:1004B000063083120313A400D030A3008030A500BF
:1004C0002308FE002408FF0025088A1142268A110D
:1004D000831603135E08FF005F088A1139238A110F
:1004E000063083120313A400D230A3008030A5008D
:1004F0002308FE002408FF0025088A1142268A11DD
:10050000831603135E0883160313E2008316031396
:100510005F0883160313E300831603135C08831636
:100520000313E000831603135D0883160313E10031
:1005300083160313E701402908000130FE0005304F
:10054000FF0080308A110000C2258A11000083124A
:100550000313E5007F08E4000330E6000530E70000
:10056000831203136408E8006508E900FF30E4071C
:10057000031CE503680869040319352B043066077A
:10058000E800E901E90D6708E9076808FE00690865
:10059000FF0080308A110000C2258A1100008312FA
:1005A0000313EB007F08EA006608FE006708FF00FF
:1005B00080308A110000C2258A11000083120313C3
:1005C000ED00E9007F08EC00E80002306607E80073
:1005D000E901E90D6708E9076808FE006908FF00FE
:1005E00080308A110000C2258A1100008312031393
:1005F000E900EF007F08E800EE00831203136A08A9
:10060000EE006B08EF00FF30EA07031CEB036E08F7
:100610006F0403192E2B6C08FE006D08FF0080305C
:100620008A110000AF258A11000083120313EE0027
:100630006808831203138400831383120313691859
:1006400083176E0883120313800083120313EC0ACE
:100650000319ED0AE80A0319E90AFD2A0630831294
:100660000313E6070318E70AB02A8A110000BC2822
:10067000080083120313AD007F08AC00AE018312A3
:1006800003132C082D0403198B2B2E08473EAF00B3
:1006900000300318013EB0000A30FD000030FE00BB
:1006A0002C08FF002D088A11BE248A117F088312AE
:1006B0000313B1002F0883120313840083138312E2
:1006C00003133018831731088312031380000A3094
:1006D000FD000030FE00831203132C08FF002D08DC
:1006E0008A1123248A1183120313AD007F08AC0002
:1006F0003030B1072F088312031384008313831251
:1007000003133018831731088312031380008312F8
:100710000313AE0A3F2B831203132E08AC0083127F
:1007200003132C08AD00AC032D080319B12B2C08C2
:10073000473EAD0000300318013EAE002D08831285
:10074000031384008313831203132E188317831259
:100750000313000883120313AF008A1172248A1155
:100760008F2B080083120313B200B30100308312F1
:1007700003133204031DBF2B3308031DFC2B83120C
:10078000031333084C3EB40000300318013EB5009B
:100790000A30FF0032088A1114268A1183120313CB
:1007A000B6003408831203138400831383120313E7
:1007B0003518831736088312031380000A30FF00B0
:1007C0008312031332088A11E3258A11831203135B
:1007D000B2003030B6073408831203138400831349
:1007E000831203133518831736088312031380000E
:1007F00083120313B30AB62B831203133308B20018
:10080000831203133208B300B20333080319222CF6
:1008100032084C3EB30000300318013EB4003308E8
:100820008312031384008313831203133418831772
:1008300083120313000883120313B5008A11722474
:100840008A11002C080083160313C5007F08C4001A
:100850007E08C7007D08C600C801C9010130CA0072
:10086000CB0146084704031D392CFF30FF00FF3041
:10087000712C8316031346084708CC00CC1B472C69
:100880000310C60DC70D0310CA0DCB0D392C8316EE
:1008900003134A084B0403196C2C47084502031D37
:1008A000532C46084402031C632C831603134A0886
:1008B000C8074B0803184B0FC9074608C40247086E
:1008C000031C470FC502031083160313C70CC60C85
:1008D0000310CB0CCA0C472C831603134808FF00E7
:1008E0004908080083120313A70083160313650A3F
:1008F00083120313A800103028020318A8018316DE
:1009000003136608831203132806031D992C06306F
:10091000AA006E30A9008030AB002908FE002A082A
:10092000FF002B088A117A258A11FF30FF00FF3063
:10093000BD2C831603136508B43E83120313A9006C
:1009400000300318013EAA00290883120313840013
:100950008313831203132A188317270883120313A0
:10096000800083120313280883160313E5008316FF
:1009700003130C160030FF00003008008316031329
:10098000CE007F08CD007E08D0007D08CF00500447
:10099000031DCE2CFF30FF00FF30002D01308316E9
:1009A0000313D100831603134F085008D200D21B43
:1009B000DE2C0310CF0DD00DD10AD22C00308316BF
:1009C000031351040319FB2C50084E02031DEA2C9B
:1009D0004F084D02031CF42C831603134F08CD025D
:1009E0005008031C500FCE02031083160313D00CC3
:1009F000CF0CD103DE2C831603134D08FF004E08E5
:100A000008000A340034C8340634DC3400340234BC
:100A10000034CA340634DE34003402340034CC34BA
:100A20000634E034003402340034CE340634E23488
:100A300000340234003403340034E534003401342B
:100A40000034D4340634E634003401340034D53470
:100A50000634E734003401340034D6340634E83444
:100A6000003401340034D7340634E934003401341E
:100A70000034D8340634EB340034013400348316A7
:100A800003130515051687168613861650309F002A
:100A9000831203179F111F119E131F109F101E1208
:100AA0001E159E15083083160313990018159B1503
:100AB00098161812831203139817831603138112C2
:100AC0008111011181100110053083120313970069
:100AD000831603130C11831203130C1190010B17CF
:100AE0008B178F018E01831603130C1583120313CA
:100AF0001014080083120313C1007F08C0007E0891
:100B0000BF00831203138B1383120313C2018312DA
:100B1000031342083F07C30040080318013EC40006
:100B200041080318013EC5004308FE004408FF00C9
:100B300045088A11AF258A1183120313C60046089F
:100B40000319AE2D46088312031399008312031371
:100B50000C1EA62D83120313C20A872D0800003A2B
:100B60000319B62D803A0319BD2D00347E08840088
:100B700083137F188317000808007F088A007E0807
:100B800082000800003A0319CA2D803A0319D42DB7
:100B9000FF0100347E08840083137F188317000848
:100BA000FF00840A000808008A110000BD25FD002E
:100BB000FE0FFF03FF0A8A110000BD25FC007D081F
:100BC000FF007C08080083160313D3007F08D400BD
:100BD000D5010130D6005408031DF02DFF30132E2F
:100BE000831603135408D700D71BFB2D0310D40D15
:100BF0000310D60DF02D003083160313560403198D
:100C0000102E54085302031C092E5608D507540809
:100C1000D302031083160313D40C0310D60CFB2D40
:100C2000831603135508080083160313D8007F08A2
:100C3000D9005908031D1E2EFF30412E01308316A6
:100C40000313DA00831603135908DB00DB1B2C2E79
:100C50000310D90DDA0A222E0030831603135A042A
:100C600003193E2E59085802031C382E5908D80281
:100C7000031083160313D90CDA032C2E83160313E7
:100C80005808080083120313B9007F08B8007E08D3
:100C9000B700BA01831203133A083707BB003808BC
:100CA0000318013EBC0039080318013EBD003B0893
:100CB000FE003C08FF003D088A11AF258A1183120F
:100CC0000313BE003E0803196D2E3E088A117224DC
:100CD0008A1183120313BA0A4A2E0800423455348B
:100CE000463446344534523420344F345734453436
:100CF000523446344C344F3457340A340034493477
:100D00004E34543420344534523452340A3400348E
:100D100050344934523431343A342034003450346D
:100D20004934523432343A34203400345034493463
:100D3000453431343A342034003450344934453465
:100D400032343A3420340034533459344E3443343A
:100D50000A340034773431343A3420340034743473
:100D600031343A3420340034303420340A340034FE
:100D7000313420340A340034463420340A34003408
:100D800077343A342034003474343A342034003424
:100D900000340034003400340034003400340034B3
:100DA000093400340A340034003400340034003490
:020DB00000340D
:02400E00D43F9D
:00000001FF
