:020000040000FA
:1000000000008A11CB280034F200030E8301F100B6
:100010000A088A01F000040883160313A80083125B
:1000200003130C1E63288316031326088316031379
:100030002506031D1F28831603130C12632883163D
:1000400003132608403E83120313A0000030031858
:10005000013EA1002008831203138400831383123E
:1000600003132118831783120313000899008312C6
:1000700003132008831203138400831383120313D2
:100080002118831700308312031380008316031393
:10009000260883120313A000A101A00A0319A10AD4
:1000A0002108803E803E031D572810302002031C8B
:1000B0005D2883120313A001A101831203132008FA
:1000C00083160313A600831203130C1DA628171C06
:1000D000882817108F018E01160883120313A000C1
:1000E00083120313ED00EE016D08EE00ED018312A3
:1000F0000313150883120313A000A1012008831223
:100100000313ED040030EE04831603132414A32814
:10011000831203131714160883120313A00083120B
:100120000313EB00EC016B08EC00EB0183120313EB
:10013000150883120313A000A101200883120313E2
:10014000EB040030EC04831203130C118316031329
:10015000A70A65302702031CBD280430831203134D
:10016000A1001930A0008030A2002008FE00210864
:10017000FF0022088A1110238A118316031328080E
:1001800083120313840070088A008301710E8300B8
:10019000F20E720E09007930FE000330FF0080304D
:1001A0008A11000058238A11000083120313D10022
:1001B0007F08D0007B30D2000330D30083120313BA
:1001C0005008D4005108D500FF30D007031CD103DC
:1001D000540855040319632904305207D400D5018B
:1001E000D50D5308D5075408FE005508FF00803090
:1001F0008A11000058238A11000083120313D700CC
:100200007F08D6005208FE005308FF0080308A1194
:10021000000058238A11000083120313D900D5006F
:100220007F08D800D40002305207D400D501D50D84
:100230005308D5075408FE005508FF0080308A1186
:10024000000058238A11000083120313D500DB003D
:100250007F08D400DA00831203135608DA00570827
:10026000DB00FF30D607031CD7035A085B040319D1
:100270005C295808FE005908FF0080308A110000F0
:1002800045238A11000083120313DA0054088312F5
:1002900003138400831383120313551883175A081A
:1002A00083120313800083120313D80A0319D90A97
:1002B000D40A0319D50A2B29063083120313D20757
:1002C0000318D30ADE288A110000672908008A1162
:1002D000AB238A1183120313A30183160313241C77
:1002E000F4290730831203136E02031D7929593054
:1002F0006D02031C9C290730831203136E02031D39
:1003000083299E306D0203189C290730831603133E
:100310002302031D8D2959302202031C9C2907301A
:10032000831603132302031D97299E30220203180C
:100330009C298316031324156430831203132302AC
:100340000318D92983160313241DD92983120313F3
:100350006B08FF006C088A11D7228A1104308312BF
:100360000313A5004E30A4008030A6002408FE0030
:100370002508FF0026088A11DC238A118312031343
:100380006D08FF006E088A11D7228A11043083128B
:100390000313A5005030A4008030A6002408FE00FE
:1003A0002508FF0026088A11DC238A118312031313
:1003B000A30A831203136D0883160313A20083128A
:1003C00003136E0883160313A300831203136B0831
:1003D00083160313A000831203136C088316031300
:1003E000A10083160313241083160313A7016D299C
:1003F000080083120313DD007F08DC007E08DF00A5
:100400007D08DE00E001E1010130E200E3015E0869
:100410005F04031D0F2AFF30FF00FF30472A8312BD
:1004200003135E085F08E400E41B1D2A0310DE0DC1
:10043000DF0D0310E20DE30D0F2A83120313620890
:1004400063040319422A5F085D02031D292A5E081E
:100450005C02031C392A831203136208E007630855
:100460000318630FE1075E08DC025F08031C5F0FDF
:10047000DD02031083120313DF0CDE0C0310E30C08
:10048000E20C1D2A831203136008FF0061080800B4
:1004900083120313A70083160313250A8312031381
:1004A000A800103028020318A80183160313260899
:1004B000831203132806031D6F2A0430AA00083094
:1004C000A9008030AB002908FE002A08FF002B0895
:1004D0008A1110238A11FF30FF00FF30932A831600
:1004E00003132508403E83120313A90000300318AC
:1004F000013EAA0029088312031384008313831288
:1005000003132A188317270883120313800083120A
:100510000313280883160313A500831603130C1670
:100520000030FF000030080083120313E6007F084C
:10053000E5007E08E8007D08E7006804031DA42AA2
:10054000FF30FF00FF30D62A013083120313E90089
:100550008312031367086808EA00EA1BB42A031031
:10056000E70DE80DE90AA82A003083120313690495
:100570000319D12A68086602031DC02A67086502AC
:10058000031CCA2A831203136708E5026808031CC8
:10059000680FE602031083120313E80CE70CE9036B
:1005A000B42A831203136508FF006608080083124B
:1005B0000313AD007F08AC00AE01831203132C08B7
:1005C0002D04031DE62A2E08031D0F2B0A30FD0003
:1005D0000030FE00831203132C08FF002D088A113F
:1005E00094228A117F0883120313AF000A30FD00A2
:1005F0000030FE002C08FF002D088A11F9218A1115
:1006000083120313AD007F08AC003030AF072F0812
:100610008A1148228A1183120313AE0ADD2A0800C8
:1006200083120313BA007F08B9007E08B800831252
:1006300003138B1383120313BB01831203133B08B1
:100640003807BC0039080318013EBD003A080318FA
:10065000013EBE003C08FE003D08FF003E088A1136
:1006600045238A1183120313BF003F080319442B4B
:100670003F08831203139900831203130C1E3C2BB3
:1006800083120313BB0A1D2B0800003A03194C2BDD
:10069000803A0319532B00347E08840083137F189B
:1006A0008317000808007F088A007E08820008007F
:1006B000003A0319602B803A03196A2BFF010034BA
:1006C0007E08840083137F1883170008FF00840AC4
:1006D000000808008A1100005323FD00FE0FFF03ED
:1006E000FF0A8A1100005323FC007D08FF007C08EC
:1006F000080008340034463404346B3400340234C7
:100700000034483404346D340034023400344A3444
:100710000434A0340034023400344C340434A234A1
:1007200000340234003403340034A534003401347E
:10073000003452340434A6340034013400345334C9
:100740000434A73400340134003454340434A9345C
:10075000003401340034831603130515051687167B
:100760008613861650309F00831203179F111F11A6
:100770009E131F109F101E121E159E150830831603
:100780000313990018159B1598161812831203135A
:10079000981705309700831603130C118312031367
:1007A00090010B178B178F018E01831603130C1505
:1007B000831203131014080083120313B2007F087E
:1007C000B1007E08B000B301831203133308300771
:1007D000B40031080318013EB50032080318013E89
:1007E000B6003408FE003508FF0036088A1145239C
:1007F0008A1183120313B70037080319072C37082F
:100800008A1148228A1183120313B30AE42B0800C9
:1008100042345534463446344534523420344F340F
:1008200057344534523446344C344F3457340A34F8
:10083000003449344E345434203445345234523424
:100840000A340034533459344E3443340A340034B7
:10085000773431343A3420340034743431343A3417
:1008600020340034303420340A340034313420341D
:100870000A340034463420340A34003477343A34AD
:100880002034003474343A342034003400340034DA
:1008900000340034003400340034003409340034AF
:0A08A0000A34003400340034003440
:02400E00D43F9D
:00000001FF
