:020000040000FA
:1000000000008A11192B0034F200030E8301F10065
:100010000A088A01F000040883120317B100831252
:1000200003130C1E6328831203172D088312031772
:100030002C06031D1F28831603130C12632883123A
:1000400003172D08C83E83120313A00000300318C5
:10005000013EA1002008831203138400831383123E
:1000600003132118831783120313000899008312C6
:1000700003132008831203138400831383120313D2
:100080002118831700308312031380008312031793
:100090002D0883120313A000A101A00A0319A10ACD
:1000A0002108803E803E031D572810302002031C8B
:1000B0005D2883120313A001A101831203132008FA
:1000C00083120317AD00831203130C1DAE28831691
:1000D00003130C1183120313171C8D2817108F01A3
:1000E0008E01160883120313A00083120317A500C4
:1000F000A6012508A600A501831203131508831283
:100100000313A000A101200883120317A5040030E7
:10011000A604831203172B14A828831203131714A1
:10012000160883120313A00083120313ED00EE01DF
:100130006D08EE00ED0183120313150883120313FB
:10014000A000A101200883120313ED040030EE0487
:10015000831603130C15831203130C118312031758
:10016000310883120313840070088A008301710E22
:100170008300F20E720E09008A11FB258A11831288
:1001800003172B112B10831203138B138101FA30E9
:1001900083120317B0007D3083120317AF00831260
:1001A0000313010883120313A200831203138B1796
:1001B000073083120313A4006C30A3008030A50025
:1001C0002308FE002408FF0025088A11CA268A1188
:1001D0008312031322088A112E248A1107308312F6
:1001E0000313A4009430A3008030A5002308FE0070
:1001F0002408FF0025088A11CA268A1183120313D6
:100200008B138101AE3083120317A7000130A800C1
:10021000753083120317A9000730AA008312031355
:10022000010883120313A200831203138B170730F4
:1002300083120313A4008230A3008030A50023089A
:10024000FE002408FF0025088A11CA268A1183129D
:10025000031322088A112E248A11073083120313F4
:10026000A3009430A2008030A4002208FE002308DE
:10027000FF0024088A11CA268A1183120313A201DF
:10028000831203138101831203172B1CE3292B1004
:100290000730831203172602031D50295930250207
:1002A000031C73290730831203172602031D5A29E2
:1002B0009E302502031873290730831203172A0280
:1002C000031D642959302902031C73290730831246
:1002D00003172A02031D6E299E3029020318732971
:1002E000831203172B150A308312031322020318FB
:1002F000CB29831203172B1DCB290230FF00831259
:10030000031322088A11F6268A1183120313A3000D
:10031000A4012308A03EA5000030A6000030031869
:10032000240FA60725088312031384008313831266
:10033000031326188317831203136D088312031304
:100340008000840A831203136E0883120313800053
:10035000831203132308B43EA30024080318240FB8
:10036000003EA40023088312031384008313831226
:10037000031324188317831203172508831203130A
:100380008000840A83120317260883120313800057
:1003900083120313A20A831203172508831203177B
:1003A000A90083120317260883120317AA008312D9
:1003B00003136D0883120317A700831203136E083B
:1003C00083120317A8000A30831203132202031CAE
:1003D000762AA3010230FF008312031323088A1137
:1003E000F6268A1183120313A400A5012408A03E57
:1003F000A6000030A70000300318250FA707260825
:1004000083120313840083138312031327188317A3
:1004100083120313000883120313A800831203132B
:10042000840A000883120313A9002808FF00290882
:100430008A11B5238A11073083120313A700923063
:10044000A6008030A8002608FE002708FF00280824
:100450008A11CA268A11831203132408B43EA40009
:1004600025080318250F003EA50024088312031356
:100470008400831383120313251883178312031335
:10048000000883120313A60083120313840A0008D2
:1004900083120313A7002608FF0027088A11B5233B
:1004A0008A11073083120313A5009430A400803012
:1004B000A6002408FE002508FF0026088A11CA2687
:1004C0008A1183120313A30A0A302302031CEA29A8
:1004D0000730A4006630A3008030A5002308FE008A
:1004E0002408FF0025088A11CA268A1183120317DF
:1004F000AE014029080083120313B7007F08B6003D
:100500007E08B500B801831203133508FE003608D3
:10051000FF0037088A1189258A1183120313B90055
:100520003908031D962A3808031DF32A8312031382
:100530003808593EB90000300318013EBA003508AA
:10054000FE003608FF0037088A1189258A118312B8
:100550000313BB000A30FF003B088A119C268A1156
:1005600083120313BC00390883120313840083131E
:10057000831203133A1883173C0883120313800075
:10058000831203133508FE003608FF0037088A116E
:1005900089258A1183120313BB000A30FF003B0830
:1005A0008A116B268A11FD00831203133508FE00A1
:1005B0003608FF0037088A117D258A1130308312F2
:1005C0000313BC07390883120313840083138312B7
:1005D00003133A1883173C08831203138000831215
:1005E0000313B80A832A831203133808B500831251
:1005F00003133508B600B50336080319182B350860
:10060000593EB60000300318013EB7003608831289
:100610000313840083138312031337188317831281
:10062000031300089900831203130C1AF72A132BE3
:100630000800BD30FE000530FF0080308A11000048
:100640009C258A11000083120313E2007F08E10059
:10065000BF30E3000530E400831203136108E500B6
:100660006208E600FF30E107031CE2036508660448
:100670000319B12B04306307E500E601E60D6408B9
:10068000E6076508FE006608FF0080308A1100005A
:100690009C258A11000083120313E8007F08E700FD
:1006A0006308FE006408FF0080308A1100009C256A
:1006B0008A11000083120313EA00E6007F08E900B4
:1006C000E50002306307E500E601E60D6408E60791
:1006D0006508FE006608FF0080308A1100009C2536
:1006E0008A11000083120313E600EC007F08E50086
:1006F000EB00831203136708EB006808EC00FF307F
:10070000E707031CE8036B086C040319AA2B6908AC
:10071000FE006A08FF0080308A11000089258A11D6
:10072000000083120313EB00650883120313840097
:10073000831383120313661883176B088312031342
:10074000800083120313E90A0319EA0AE50A031970
:10075000E60A792B063083120313E3070318E40A31
:100760002C2B8A110000BC28080083120313B00050
:100770007F08AF00B101831203132F08300403195F
:10078000072C3108553EB20000300318013EB3007B
:100790000A30FD000030FE002F08FF0030088A11EB
:1007A0003A258A117F0883120313B400320883129A
:1007B000031384008313831203133318831734083D
:1007C0008312031380000A30FD000030FE00831204
:1007D00003132F08FF0030088A119F248A11831207
:1007E0000313B0007F08AF003030B4073208831223
:1007F00003138400831383120313331883173408FD
:1008000083120313800083120313B10ABB2B8312DC
:1008100003133108AF00831203132F08B000AF0396
:10082000300803192D2C2F08553EB0000030031856
:10083000013EB10030088312031384008313831236
:100840000313311883178312031300088312031351
:10085000B2008A11EE248A110B2C080083120313B4
:10086000BD00BE010030831203133D04031D3B2C69
:100870003E08031D782C831203133E085D3EBF0023
:1008800000300318013EC0000A30FF003D088A1105
:100890009C268A1183120313C1003F08831203139D
:1008A00084008313831203134018831741088312B3
:1008B000031380000A30FF00831203133D088A11DE
:1008C0006B268A1183120313BD003030C1073F0825
:1008D00083120313840083138312031340188317B6
:1008E000410883120313800083120313BE0A322CC3
:1008F000831203133E08BD00831203133D08BE009C
:10090000BD033E0803199E2C3D085D3EBE0000302D
:100910000318013EBF003E088312031384008313B3
:10092000831203133F1883178312031300088312E3
:100930000313C0008A11EE248A117C2C0800831650
:100940000313D9007F08D8007E08DB007D08DA0099
:10095000DC01DD010130DE00DF015A085B04031D0C
:10096000B52CFF30FF00FF30ED2C831603135A081F
:100970005B08E000E01BC32C0310DA0DDB0D031055
:10098000DE0DDF0DB52C831603135E085F0403191B
:10099000E82C5B085902031DCF2C5A085802031C8F
:1009A000DF2C831603135E08DC075F0803185F0F54
:1009B000DD075A08D8025B08031C5B0FD90203103D
:1009C00083160313DB0CDA0C0310DF0CDE0CC32CD4
:1009D000831603135C08FF005D08080083120313ED
:1009E000AA00831203172C0A83120313AB001030E2
:1009F0002B020318AB01831203172D088312031374
:100A00002B06031D152D0730AD003030AC008030B3
:100A1000AE002C08FE002D08FF002E088A11362695
:100A20008A11FF30FF00FF30392D831203172C0885
:100A3000C83E83120313AC0000300318013EAD0022
:100A40002C088312031384008313831203132D18BD
:100A500083172A08831203138000831203132B08C1
:100A600083120317AC00831603130C160030FF002B
:100A70000030080083160313E2007F08E1007E08BF
:100A8000E4007D08E3006404031D4A2DFF30FF00ED
:100A9000FF307C2D013083160313E500831603130A
:100AA00063086408E600E61B5A2D0310E30DE40D0D
:100AB000E50A4E2D00308316031365040319772DC4
:100AC00064086202031D662D63086102031C702D19
:100AD000831603136308E1026408031C640FE20237
:100AE000031083160313E40CE30CE5035A2D83165D
:100AF00003136108FF0062080800003A0319812D02
:100B000008007E08840083137F1883177D08800007
:100B10000800003A0319902D803A0319972D0034EC
:100B20007E08840083137F188317000808007F085D
:100B30008A007E0882000800003A0319A42D803A3A
:100B40000319AE2DFF0100347E08840083137F1843
:100B500083170008FF00840A000808008A110000BB
:100B60009725FD00FE0FFF03FF0A8A11000097255D
:100B7000FC007D08FF007C0808000A3400348A3439
:100B800007346D340034023400348C340734253497
:100B90000134023400348E340734273401340234F3
:100BA00000349034073429340134023400340334DF
:100BB00000342C34013401340034963407342D349D
:100BC000013401340034973407342E3401340134B5
:100BD0000034983407342F3401340134003499340C
:100BE000073430340134013400349A340734323459
:100BF00001340134003483160313051505168716D6
:100C00008613861650309F00831203179F111F1101
:100C10009E131F109F101E121E159E15083083165E
:100C20000313990018159B159816181283120313B5
:100C3000981783160313811281110111811001107D
:100C40000530831203139700831603130C118312CC
:100C500003130C1190010B178B178F018E01831654
:100C600003130C15831203131014080083120313CB
:100C7000CC007F08CB007E08CA00831203138B13BD
:100C800083120313CD01831203134D084A07CE00CC
:100C90004B080318013ECF004C080318013ED0005A
:100CA0004E08FE004F08FF0050088A1189258A115E
:100CB00083120313D100510803196A2E51088312BD
:100CC00003139900831203130C1E622E8312031365
:100CD000CD0A432E080083160313E7007F08E800BF
:100CE000E9010130EA006808031D782EFF309B2ED1
:100CF000831603136808EB00EB1B832E0310E80D2B
:100D00000310EA0D782E0030831603136A040319CA
:100D1000982E68086702031C912E6A08E907680884
:100D2000E702031083160313E80C0310EA0C832E6A
:100D3000831603136908080083160313EC007F0869
:100D4000ED006D08031DA62EFF30C92E013083165D
:100D50000313EE00831603136D08EF00EF1BB42E90
:100D60000310ED0DEE0AAA2E0030831603136E0455
:100D70000319C62E6D086C02031CC02E6D08EC0210
:100D8000031083160313ED0CEE03B42E8316031326
:100D90006C08080083120313C4007F08C3007E0898
:100DA000C200C5018312031345084207C600430869
:100DB0000318013EC70044080318013EC800460856
:100DC000FE004708FF0048088A1189258A1183120E
:100DD0000313C90049080319F52E49088A11EE24A6
:100DE0008A1183120313C50AD22E08008312031737
:100DF000A0007F08A100A2010830A30083120317FE
:100E0000201C042F2108A207031083120317A00C33
:100E10000310210DA400A1002303A400A3002408B3
:100E2000031DFE2E2208080083120313D4007F083E
:100E3000D3007E08D200831203138B138312031393
:100E40005208FE005308FF0054088A1189258A11B0
:100E5000831203139900831203130C1E2B2F080017
:100E600042345534463446344534523420344F34B9
:100E700057344534523446344C344F3457340A34A2
:100E8000003449344E3454342034453452345234CE
:100E90000A34003450344934523431343A34203432
:100EA000003450344934523432343A34203400342B
:100EB00050344934453431343A34203400345034D9
:100EC0004934453432343A342034003453345934BC
:100ED0004E3443340A340034773431343A342034D5
:100EE0000034743431343A34203400343034203413
:100EF0000A340034313420340A3400344634203487
:100F00000A34003477343A342034003474343A34B8
:100F10002034003400340034003400340034003411
:100F200000340034093400340A340034003400340E
:060F30000034003400341F
:02400E00D43F9D
:00000001FF
