:020000040000FA
:1000000000008A11352A0034F200030E8301F1004A
:100010000A088A01F000040883160313AE00831255
:1000200003130C1E6328831603132C088316031373
:100030002B06031D1F28831603130C126328831637
:1000400003132C08473E83120313A000003003184B
:10005000013EA1002008831203138400831383123E
:1000600003132118831783120313000899008312C6
:1000700003132008831203138400831383120313D2
:100080002118831700308312031380008316031393
:100090002C0883120313A000A101A00A0319A10ACE
:1000A0002108803E803E031D572810302002031C8B
:1000B0005D2883120313A001A101831203132008FA
:1000C00083160313AC00831203130C1DAE28831692
:1000D00003130C1183120313171C8D2817108F01A3
:1000E0008E01160883120313A00083120313EE007F
:1000F000EF016E08EF00EE0183120313150883125F
:100100000313A000A101200883120313EE040030A2
:10011000EF04831603132A14A82883120313171459
:10012000160883120313A00083120313EC00ED01E1
:100130006C08ED00EC0183120313150883120313FE
:10014000A000A101200883120313EC040030ED0489
:10015000831603130C15831203130C118316031358
:10016000AD0A65302D02031CC52804308312031329
:10017000A100B830A0008030A2002008FE002108B5
:10018000FF0022088A11AF238A11831603132E0859
:1001900083120313840070088A008301710E8300A8
:1001A000F20E720E09008A114A248A118312031377
:1001B000A301831603132A1C9029831203136C08CE
:1001C000FF006D088A1195218A11043083120313F0
:1001D000A500ED30A4008030A6002408FE0025080C
:1001E000FF0026088A117B248A11831203136E08EC
:1001F000FF006F088A1195218A11043083120313BE
:10020000A500EF30A4008030A6002408FE002508D9
:10021000FF0026088A117B248A11073083120313FA
:100220006F02031D152959306E02031C382907304F
:10023000831203136F02031D1F299E306E020318E1
:1002400038290730831603132902031D2929593041
:100250002802031C38290730831603132902031DC3
:1002600033299E30280203183829831603132A15D0
:1002700064308312031323020318752983160313B2
:100280002A1D7529831203136C08FF006D088A115B
:1002900095218A11043083120313A500ED30A400C8
:1002A0008030A6002408FE002508FF0026088A11D9
:1002B0007B248A11831203136E08FF006F088A11D2
:1002C00095218A11043083120313A500EF30A40096
:1002D0008030A6002408FE002508FF0026088A11A9
:1002E0007B248A1183120313A30A831203136E085B
:1002F00083160313A800831203136F0883160313D6
:10030000A900831203136C0883160313A60083123B
:1003100003136D0883160313A700831603132A1013
:1003200083160313AD01D928080083120313AD000F
:100330007F08AC0083120313C201831203132C083D
:100340002D040319082A831203134208433E831223
:100350000313AE0000300318013EAF000A30FD0069
:100360000030FE002C08FF002D088A116C238A1132
:100370007F0883120313B000B1002E088312031309
:1003800084008313831203132F18831731088312F9
:10039000031380000A30FD000030FE0083120313B7
:1003A0002C08FF002D088A11D1228A118312031311
:1003B000AD007F08AC00831203134208433E831252
:1003C0000313AE0000300318013EAF002E08831265
:1003D000031384008313831203132F1883178312CC
:1003E0000313000883120313B0003030B0072E0847
:1003F0008312031384008313831203132F188317AC
:10040000300883120313800083120313C20A9D294C
:1004100083120313420883120313AC0083120313E5
:10042000C203831203132C080319342A8312031303
:100430004208433E83120313AC0000300318013E10
:10044000AD002C088312031384008313831203135B
:100450002D18831783120313000883120313AE00B1
:100460008A1120238A11082A08001830FE0004305F
:10047000FF0080308A110000F7238A1100008312E8
:100480000313D8007F08D7001A30D9000430DA00EF
:10049000831203135708DB005808DC00FF30D7072E
:1004A000031CD8035B085C040319CD2A04305907E8
:1004B000DB00DC01DC0D5A08DC075B08FE005C0891
:1004C000FF0080308A110000F7238A110000831298
:1004D0000313DE007F08DD005908FE005A08FF0004
:1004E00080308A110000F7238A1100008312031361
:1004F000E000DC007F08DF00DB0002305907DB0092
:10050000DC01DC0D5A08DC075B08FE005C08FF001C
:1005100080308A110000F7238A1100008312031330
:10052000DC00E2007F08DB00E100831203135D08BA
:10053000E1005E08E200FF30DD07031CDE03610816
:1005400062040319C62A5F08FE006008FF008030BD
:100550008A110000E4238A11000083120313E100D2
:100560005B088312031384008313831203135C1844
:100570008317610883120313800083120313DF0AB9
:100580000319E00ADB0A0319DC0A952A06308312F4
:100590000313D9070318DA0A482A8A110000D3285E
:1005A000080083120313E4007F08E3007E08E600DE
:1005B0007D08E500E701E8010130E900EA0165088E
:1005C0006604031DE72AFF30FF00FF301F2B831254
:1005D000031365086608EB00EB1BF52A0310E50D15
:1005E000E60D0310E90DEA0DE72A831203136908EB
:1005F0006A0403191A2B66086402031D012B65089F
:100600006302031C112B831203136908E7076A08AE
:1006100003186A0FE8076508E3026608031C660F03
:10062000E402031083120313E60CE50C0310EA0C3A
:10063000E90CF52A831203136708FF006808080015
:1006400083120313A700831603132B0A83120313C9
:10065000A800103028020318A801831603132C08E1
:10066000831203132806031D472B0430AA00A7306A
:10067000A9008030AB002908FE002A08FF002B08E3
:100680008A11AF238A11FF30FF00FF306B2B8316D6
:1006900003132B08473E83120313A90000300318ED
:1006A000013EAA00290883120313840083138312D6
:1006B00003132A1883172708831203138000831259
:1006C0000313280883160313AB00831603130C16B9
:1006D0000030FF000030080083160313A1007F08DC
:1006E000A0007E08A3007D08A2002304031D7C2B2C
:1006F000FF30FF00FF30AE2B013083160313A40040
:100700008316031322082308A500A51B8C2B0310B6
:10071000A20DA30DA40A802B00308316031324041A
:100720000319A92B23082102031D982B220820025C
:10073000031CA22B831603132208A0022308031C08
:10074000230FA102031083160313A30CA20CA4030E
:100750008C2B831603132008FF0021080800831246
:100760000313BC007F08BB007E08BA00831203138A
:100770008B1383120313BD01831203133D083A0741
:10078000BE003B080318013EBF003C080318013EB1
:10079000C0003E08FE003F08FF0040088A11E42325
:1007A0008A1183120313C10041080319E32B410886
:1007B000831203139900831203130C1EDB2B831285
:1007C0000313BD0ABC2B0800003A0319EB2B803A37
:1007D0000319F22B00347E08840083137F188317DB
:1007E000000808007F088A007E0882000800003A9E
:1007F0000319FF2B803A0319092CFF0100347E08EE
:10080000840083137F1883170008FF00840A000800
:1008100008008A110000F223FD00FE0FFF03FF0A0B
:100820008A110000F223FC007D08FF007C0808000C
:1008300008340034E53404346C34003402340034B9
:10084000E73404346E34003402340034E9340434C0
:10085000A634003402340034EB340434A8340034B9
:100860000234003403340034AB3400340134003437
:10087000F1340434AC34003401340034F234043440
:10088000AD34003401340034F3340434AF34003474
:1008900001340034831603130515051687168613D5
:1008A000861650309F00831203179F111F119E134D
:1008B0001F109F101E121E159E150830831603135D
:1008C000990018159B159816181283120313981780
:1008D00005309700831603130C1183120313900144
:1008E0000B178B178F018E01831603130C158312C0
:1008F00003131014080083120313B4007F08B3001D
:100900007E08B200B5018312031335083207B60022
:1009100033080318013EB70034080318013EB8003D
:100920003608FE003708FF0038088A11E4238A11D0
:1009300083120313B90039080319A62C39088A1148
:1009400020238A1183120313B50A832C0800423432
:100950005534463446344534523420344F345734B9
:100960004534523446344C344F3457340A3400340E
:1009700049344E34543420344534523452340A34D9
:100980000034533459344E3443340A340034773409
:1009900031343A3420340034743431343A3420342D
:1009A0000034303420340A340034313420340A34F2
:1009B0000034463420340A34003477343A34203456
:1009C000003474343A3420340034003400340034B9
:1009D00000340034003400340034093400340A3464
:0809E00000340034003400343F
:02400E00D43F9D
:00000001FF
