:020000040000FA
:1000000000008A11C9280034F200030E8301F100B8
:100010000A088A01F000040883160313AC00831257
:1000200003130C1E6328831603132A088316031375
:100030002906031D1F28831603130C126328831639
:1000400003132A08453E83120313A000003003184F
:10005000013EA1002008831203138400831383123E
:1000600003132118831783120313000899008312C6
:1000700003132008831203138400831383120313D2
:100080002118831700308312031380008316031393
:100090002A0883120313A000A101A00A0319A10AD0
:1000A0002108803E803E031D572810302002031C8B
:1000B0005D2883120313A001A101831203132008FA
:1000C00083160313AA00831203130C1DA4280C111A
:1000D000171C892817108F018E011608831203132D
:1000E000A00083160313A200A3012208A300A2010B
:1000F00083120313150883120313A000A101200823
:1001000083160313A2040030A304831603132814D8
:10011000A428831203131714160883120313A000D4
:1001200083160313A000A1012008A100A0018312DF
:100130000313150883120313A000A10120088316DE
:100140000313A0040030A10483160313AB0A653027
:100150002B02031CBB28043083120313A1000730B9
:10016000A0008030A2002008FE002108FF00220825
:100170008A11FE228A11831603132C08831203139B
:10018000840070088A008301710E8300F20E720EE3
:1001900009006730FE000330FF0080308A11000044
:1001A00046238A11000083120313D6007F08D5006E
:1001B0006930D7000330D800831203135508D900E3
:1001C0005608DA00FF30D507031CD60359085A0435
:1001D0000319612904305707D900DA01DA0D5808EC
:1001E000DA075908FE005A08FF0080308A11000023
:1001F00046238A11000083120313DC007F08DB0012
:100200005708FE005808FF0080308A11000046237E
:100210008A11000083120313DE00DA007F08DD007C
:10022000D90002305707D900DA01DA0D5808DA0789
:100230005908FE005A08FF0080308A11000046234A
:100240008A11000083120313DA00E0007F08D9004E
:10025000DF00831203135B08DF005C08E000FF305F
:10026000DB07031CDC035F08600403195A295D08DF
:10027000FE005E08FF0080308A11000033238A11DF
:10028000000083120313DF00590883120313840054
:100290008313831203135A1883175F0883120313FF
:1002A000800083120313DD0A0319DE0AD90A031939
:1002B000DA0A2929063083120313D7070318D80A4C
:1002C000DC288A110000C12A080083120313AC0045
:1002D0007F08AB00AD01831203132B082C04031D10
:1002E00074292D08031DBC29831203132D08413ED8
:1002F000AE0000300318013EAF000A30FD000030B0
:10030000FE002B08FF002C088A117E228A117F082C
:1003100083120313B0002E08831203138400831387
:10032000831203132F1883173008831203138000DE
:100330000A30FD000030FE00831203132B08FF007B
:100340002C088A11E3218A1183120313AC007F0861
:10035000AB003030B0072E088312031384008313E0
:10036000831203132F18831730088312031380009E
:1003700083120313AD0A6B29831203132D08AB00FC
:10038000831203132B08AC00AB032C080319E229DA
:100390002B08413EAC0000300318013EAD002C0894
:1003A0008312031384008313831203132D188317FE
:1003B00083120313000883120313AE008A11322242
:1003C0008A11C029080083120313E2007F08E100AC
:1003D0007E08E4007D08E300E501E6010130E70066
:1003E000E80163086404031DF929FF30FF00FF30B2
:1003F000312A8312031363086408E900E91B072A02
:100400000310E30DE40D0310E70DE80DF929831245
:1004100003136708680403192C2A64086202031D89
:10042000132A63086102031C232A8312031367083B
:10043000E50768080318680FE6076308E102640827
:10044000031C640FE202031083120313E40CE30C99
:100450000310E80CE70C072A831203136508FF005A
:100460006608080083120313A60083160313290AE3
:1004700083120313A700103027020318A701831665
:1004800003132A08831203132706031D592A033076
:10049000A900F630A8008030AA002808FE0029082C
:1004A000FF002A088A11FE228A11FF30FF00FF3068
:1004B0007D2A831603132908453E83120313A800DF
:1004C00000300318013EA90028088312031384009A
:1004D0008313831203132918831726088312031327
:1004E000800083120313270883160313A9008316C1
:1004F00003130C160030FF000030080083120313B2
:10050000EB007F08EA007E08ED007D08EC006D043A
:10051000031D8E2AFF30FF00FF30C02A01308312F6
:100520000313EE00831203136C086D08EF00EF1B3A
:100530009E2A0310EC0DED0DEE0A922A0030831274
:1005400003136E040319BB2A6D086B02031DAA2A4C
:100550006C086A02031CB42A831203136C08EA02B3
:100560006D08031C6D0FEB02031083120313ED0CD7
:10057000EC0CEE039E2A831203136A08FF006B083B
:1005800008008A1199238A1183160313281CF92A5B
:100590002810831603132008FF0021088A11652103
:1005A0008A11043083120313A4003C30A30080306E
:1005B000A5002308FE002408FF0025088A11CA238D
:1005C0008A11831603132208FF0023088A1165216C
:1005D0008A11043083120313A4003E30A30080303C
:1005E000A5002308FE002408FF0025088A11CA235D
:1005F0008A1183160313AB01C42A08008312031364
:10060000BB007F08BA007E08B900831203138B1366
:1006100083120313BC01831203133C083907BD0086
:100620003A080318013EBE003B080318013EBF0014
:100630003D08FE003E08FF003F088A1133238A115F
:1006400083120313C00040080319322B40088312A1
:1006500003139900831203130C1E2A2B8312031316
:10066000BC0A0B2B0800003A03193A2B803A0319F5
:10067000412B00347E08840083137F188317000801
:1006800008007F088A007E0882000800003A0319EB
:100690004E2B803A0319582BFF0100347E0884004A
:1006A00083137F1883170008FF00840A00080800DE
:1006B0008A1100004123FD00FE0FFF03FF0A8A118B
:1006C00000004123FC007D08FF007C08080008347E
:1006D000003434340434A03400340234003436346A
:1006E0000434A23400340234003438340434A434E2
:1006F0000034023400343A340434A6340034023472
:10070000003403340034A93400340134003440345C
:100710000434AA3400340134003441340434AB349A
:1007200000340134003442340434AD340034013434
:1007300000348316031305150516871686138616CF
:1007400050309F00831203179F111F119E131F101B
:100750009F101E121E159E15083083160313990054
:1007600018159B1598161812831203139817053045
:100770009700831603130C118312031390010B17B8
:100780008B178F018E01831603130C15831203132D
:100790001014080083120313B3007F08B2007E0810
:1007A000B100B4018312031334083107B5003208D5
:1007B0000318013EB60033080318013EB7003508A0
:1007C000FE003608FF0037088A1133238A1183128E
:1007D0000313B80038080319F52B38088A113222A0
:1007E0008A1183120313B40AD22B08004234553401
:1007F000463446344534523420344F34573445342B
:10080000523446344C344F3457340A34003449346B
:100810004E34543420344534523452340A34003483
:10082000533459344E3443340A3400347734313439
:100830003A3420340034743431343A3420340034BF
:10084000303420340A340034313420340A34003453
:10085000463420340A34003477343A3420340034B7
:1008600074343A342034003400340034003400341A
:100870000034003400340034093400340A340034C5
:06088000003400340034D6
:02400E00D43F9D
:00000001FF
