:020000040000FA
:1000000000008A11E62A0034F200030E8301F10099
:100010000A088A01F000040883160313BC00831247
:1000200003130B1D17288B120B118101071083126C
:1000300003130C1E6B28831603133A08831603134D
:100040003906031D2728831603130C126B28831609
:1000500003133A084D3E83120313DD0000300318EA
:10006000013EDE005D0883120313840083138312B4
:1000700003135E1883178312031300089900831279
:1000800003135D0883120313840083138312031385
:100090005E18831700308312031380008316031346
:1000A0003A0883120313DD00DE01DD0A0319DE0ABC
:1000B0005E08803E803E031D5F2810305D02031CF9
:1000C000652883120313DD01DE01831203135D082B
:1000D00083160313BA00831203130C1DB62883166C
:1000E00003130C1183120313171C952817108F018B
:1000F0008E01160883120313DD0083160313B2006A
:10010000B3013208B300B20183120313150883123E
:100110000313DD00DE015D0883160313B204003013
:10012000B304831603133814B0288312031317146F
:10013000160883120313DD0083160313B000B10108
:100140003008B100B00183120313150883120313A2
:10015000DD00DE015D0883160313B0040030B10436
:10016000831603130C15831203130C118316031348
:10017000BB0A831603133C08831203138400700820
:100180008A008301710E8300F20E720E0900831241
:100190000313DF018A113F248A11831603133811D8
:1001A000381083160313381CDA2A381007308316E8
:1001B00003133302031DDE2859303202031C092ABF
:1001C0000730831603133302031DE8289E303202E2
:1001D0000318092A0730831603133702031DF22878
:1001E00059303602031C092A0730831603133702DD
:1001F000031DFC289E3036020318092A0530831699
:1002000003133102031D062947303002031C57290E
:100210000530831603133102031D10299630300276
:10022000031857290530831603133502031D1A29B5
:1002300047303402031C5729053083160313350257
:10024000031D2429963034020318572906308312DF
:100250000313E1001030E0008030E2006008FE008F
:100260006108FF0062088A1112258A1183120313A4
:100270005F08393EE00000300318013EE1006008ED
:1002800083120313840083138312031361188317EB
:10029000023083120313800083160313B201B301EB
:1002A00083160313B001B10183120313DF0A013077
:1002B000831603133102031D5F297D303002031CB6
:1002C000B0290130831603133102031D6929C2309E
:1002D00030020318B0290130831603133502031DC1
:1002E00073297D303402031CB029013083160313B7
:1002F0003502031D7D29C23034020318B0290630AF
:1003000083120313E1000C30E0008030E20060084B
:10031000FE006108FF0062088A1112258A1183120B
:1003200003135F08393EE00000300318013EE1008E
:10033000600883120313840083138312031361186C
:100340008317013083120313800083160313B20155
:10035000B30183160313B001B10183120313DF0A43
:100360000130831603133502031DB8297D30340292
:10037000031C092A0130831603133502031DC22909
:10038000C23034020318092A0530831603133102E0
:10039000031DCC2947303002031C092A053083167F
:1003A00003133102031DD629963030020318092A9F
:1003B000063083120313E1001430E0008030E200C5
:1003C0006008FE006108FF0062088A1112258A1188
:1003D000831203135F08393EE00000300318013E2A
:1003E000E100600883120313840083138312031354
:1003F00061188317033083120313800083160313DD
:10040000B201B30183160313B001B10183120313C8
:10041000DF0A3A30831603133302031D112A993081
:100420003202031CC22A3E30831603133302031D1B
:100430001B2A803032020318C22A013083160313AC
:100440003102031D252A7D303002031CC22A0130EF
:10045000831603133102031D2F2AC2303002031802
:10046000C22A053083120313E100F730E000803028
:10047000E2006008FE006108FF0062088A11122590
:100480008A1183160313B201B30183160313B0015B
:10049000B101013083120313E000DF035F08E100C4
:1004A0000B30E200831203136108393EE300003091
:1004B0000318013EE40063088312031384008313CE
:1004C0008312031364188317831203130008831223
:1004D0000313E5006208AD3EE30005300318013E5A
:1004E000E4006308FE006408FF0080308A117B246A
:1004F0008A11831203136506031DE001E103E20B79
:10050000522A6108DF0060080319992A0530E100CA
:10051000F030E0008030E2006008FE006108FF007B
:1005200062088A1112258A118312031307148101AC
:100530008B16053083120313E100FD30E00080309C
:10054000E2006008FE006108FF0062088A111225BF
:100550008A11831203135F088A1182238A110630DD
:1005600083120313E1002A30E0008030E2006008CB
:10057000FE006108FF0062088A1112258A118312A9
:100580000313DF0183160313320883160313B60027
:1005900083160313330883160313B700831603135C
:1005A000300883160313B40083160313310883162F
:1005B0000313B50083160313BB0113308312031317
:1005C0005F02031CD128DF01D1280800AF30FE00F4
:1005D0000430FF0080308A1100008E248A11000050
:1005E00083160313A1007F08A000B130A2000430DD
:1005F000A300831603132008A4002108A500FF30E0
:10060000A007031CA1032408250403197E2B043032
:100610002207A400A501A50D2308A5072408FE00B4
:100620002508FF0080308A1100008E248A11000006
:1006300083160313A7007F08A6002208FE002308E4
:10064000FF0080308A1100008E248A11000083167A
:100650000313A900A5007F08A800A4000230220708
:10066000A400A501A50D2308A5072408FE00250860
:10067000FF0080308A1100008E248A11000083164A
:100680000313A500AB007F08A400AA008316031380
:100690002608AA002708AB00FF30A607031CA70303
:1006A0002A082B040319772B2808FE002908FF00CD
:1006B00080308A1100007B248A1100008316031306
:1006C000AA002408831203138400831383160313E0
:1006D000251883172A088312031380008316031337
:1006E000A80A0319A90AA40A0319A50A462B063069
:1006F00083160313A2070318A30AF92A8A1100001C
:10070000C728080083120313A000A1010030831240
:1007100003132004031D8F2B2108031DCC2B8312F0
:1007200003132108353EA20000300318013EA30048
:100730000A30FF0020088A1142258A118312031310
:10074000A40022088312031384008313831203136B
:100750002318831724088312031380000A30FF0034
:100760008312031320088A11E1248A1183120313D0
:10077000A0003030A40722088312031384008313DF
:100780008312031323188317240883120313800092
:1007900083120313A10A862B831203132108A000DE
:1007A000831203132008A100A00321080319F22BD0
:1007B0002008353EA10000300318013EA2002108A8
:1007C00083120313840083138312031322188317E5
:1007D00083120313000883120313A3008A11F32367
:1007E0008A11D02B080083120313E600831603132B
:1007F000390A83120313E700103067020318E70178
:10080000831603133A08831203136706031D1A2C79
:100810000530E9009C30E8008030EA006808FE00FE
:100820006908FF006A088A1112258A11FF30FF004B
:10083000FF303E2C8316031339084D3E83120313F9
:10084000E80000300318013EE90068088312031332
:1008500084008313831203136918831766088312B5
:100860000313800083120313670883160313B90070
:10087000831603130C160030FF00003008008316A7
:1008800003130515051687168613861650309F002C
:10089000831203179F111F119E131F109F101E120A
:1008A0001E159E158316031307100830990018159E
:1008B0009B159816181283120313981783160313A7
:1008C000811281110115811401108312031390010B
:1008D00005309700831603130C11831203130C11B8
:1008E0000B178B178F018E01831603130C158312C0
:1008F000031310140800003A0319822C803A0319DC
:10090000892C00347E08840083137F188317000825
:1009100008007F088A007E0882000800003A031958
:10092000962C803A0319A02CFF0100347E08840025
:1009300083137F1883170008FF00840A000808004B
:100940008A1100008924FD00FE0FFF03FF0A8A11AF
:1009500000008924FC007D08FF007C0808000834A2
:10096000003420340634B0340034023400342234ED
:100970000634B23400340234003424340634B4343F
:1009800000340234003426340634B63400340234E1
:10099000003403340034B9340034013400342C34CE
:1009A0000634BA340034013400342D340634BB34F8
:1009B0000034013400342E340634BD3400340134A4
:1009C000003483120313EB007F08EC00ED010130CB
:1009D000EE006C08031DEE2CFF30112D8312031363
:1009E0006C08EF00EF1BF92C0310EC0D0310EE0D5B
:1009F000EE2C0030831203136E0403190E2D6C08C5
:100A00006B02031C072D6E08ED076C08EB02031048
:100A100083120313EC0C0310EE0CF92C8312031356
:100A20006D08080083120313AF007F08AE007E0834
:100A3000AD00B0018312031330082D07B1002E085A
:100A40000318013EB2002F080318013EB30031081D
:100A5000FE003208FF0033088A117B248A118312BA
:100A60000313B40034080319412D3408831203130F
:100A70009900831203130C1E392D83120313B00A3D
:100A80001A2D080083160313AC007F08AD002D0853
:100A9000031D4C2DFF306F2D013083160313AE0064
:100AA000831603132D08AF00AF1B5A2D0310AD0D95
:100AB000AE0A502D0030831603132E0403196C2D3B
:100AC0002D082C02031C662D2D08AC020310831682
:100AD0000313AD0CAE035A2D831603132C08080024
:100AE00083120313A7007F08A6007E08A500A801B3
:100AF0008312031328082507A90026080318013EBE
:100B0000AA0027080318013EAB002908FE002A08A6
:100B1000FF002B088A117B248A1183120313AC0077
:100B20002C0803199B2D2C088A11F3238A11831298
:100B30000313A80A782D080042345534463446344D
:100B40004534523420344F345734453452344634CB
:100B50004C344F3457340A340034033403340334F0
:100B600003340334033403340334033403340334CD
:100B70000334543449344D34303420344F345734F2
:100B800046340A34003449344E3454342034453425
:100B9000523452340A3400348312031399008312FE
:100BA00003130C1ECF2D0800503449345234313415
:100BB0003A342034003450344934523432343A34E4
:100BC0002034003450344934453431343A342034FC
:100BD000003450344934453432343A34203400340B
:100BE0004C3449346734683474340A340034533430
:100BF00059344E3443340A340034693420343D349B
:100C000020340034773431343A34203400347434AE
:100C100031343A3420340034303420340A3400344F
:100C2000313420340A340034463420340A34003459
:100C300077343A342034003474343A342034003475
:100C40000034003400340034003400340034003404
:0E0C5000093400340A34003400340034003417
:02400E00D43F9D
:00000001FF
