:020000040000FA
:1000000000008A11EB2A0034F200030E8301F10094
:100010000A088A01F000040883160313EB00831218
:1000200003130B1D18280B11810183160313EA0A11
:10003000831203130C1E6C288316031366088316A1
:1000400003136506031D2828831603130C126C285E
:10005000831603136608A03E83160313B000003016
:100060000318013EB1003008831203138400831388
:1000700083160313311883178312031300089900A2
:10008000831603133008831203138400831383162B
:100090000313311883170030831203138000831673
:1000A0000313660883160313B000B101B00A0319E5
:1000B000B10A3108803E803E031D602810303002B6
:1000C000031C662883160313B001B10183160313C2
:1000D000300883160313E600831203130C1DB728A0
:1000E000831603130C1183120313171C9628171081
:1000F0008F018E01160883160313B00083160313B5
:10010000DE00DF015E08DF00DE0183120313150845
:1001100083160313B000B101300883160313DE0405
:100120000030DF04831603136414B1288312031311
:100130001714160883160313B00083160313DC008C
:10014000DD015C08DD00DC01831203131508831652
:100150000313B000B101300883160313DC04003030
:10016000DD04831603130C15831203130C1183167D
:100170000313E70A831603136B0883120313840027
:1001800070088A008301710E8300F20E720E09005E
:1001900083160313B2018A1198258A11831603135B
:1001A00064116410831203138B138101FA308316D8
:1001B0000313E9007D3083160313E8008312031351
:1001C000010883160313B300831203138B17073040
:1001D00083160313B5000C30B4008030B600340829
:1001E000FE003508FF0036088A1134268A1183166E
:1001F000031333088A1105248A1107308316031369
:10020000B5003430B4008030B6003408FE00350844
:10021000FF0036088A1134268A11831203138B13C8
:100220008101AE3083160313E0000130E100753028
:1002300083160313E2000730E3008312031301085F
:1002400083160313B300831203138B17073083162F
:100250000313B5002230B4008030B6003408FE002D
:100260003508FF0036088A1134268A1183160313D5
:1002700033088A1105248A11073083160313B50049
:100280003430B4008030B6003408FE003508FF007A
:1002900036088A1134268A1183160313EA01831261
:1002A000031381010B118B1683160313641CE62ABA
:1002B00064100730831603135F02031D6129593050
:1002C0005E02031C8B2A0730831603135F02031D93
:1002D0006B299E305E0203188B2A073083160313A6
:1002E0006302031D752959306202031C8B2A0730F3
:1002F000831603136302031D7F299E3062020318D5
:100300008B2A0530831603135D02031D89294730AC
:100310005C02031CC4290530831603135D02031D10
:10032000932996305C020318C42905308316031301
:100330006102031D9D2947306002031CC42905305A
:10034000831603136102031DA72996306002031868
:10035000C429073083160313B5001A30B400803067
:10036000B6003408FE003508FF0036088A1134262E
:100370008A1183160313DE01DF0183160313DC01E8
:10038000DD0183160313B20A0130831603135D02E5
:10039000031DCC297D305C02031C072A0130831623
:1003A00003135D02031DD629C2305C020318072A1D
:1003B0000130831603136102031DE0297D306002C2
:1003C000031C072A0130831603136102031DEA2967
:1003D000C23060020318072A073083160313B500E2
:1003E0001630B4008030B6003408FE003508FF0037
:1003F00036088A1134268A1183160313DE01DF01C1
:1004000083160313DC01DD0183160313B20A0130E6
:10041000831603136102031D0F2A7D306002031C43
:100420004A2A0130831603136102031D192AC230C0
:10043000600203184A2A0530831603135D02031D68
:10044000232A47305C02031C4A2A05308316031313
:100450005D02031D2D2A96305C0203184A2A0730DC
:1004600083160313B5001E30B4008030B600340884
:10047000FE003508FF0036088A1134268A118316DB
:100480000313DE01DF0183160313DC01DD01831694
:100490000313B20A831203138B120108831603138A
:1004A000B3000730B5002230B4008030B600340805
:1004B000FE003508FF0036088A1134268A1183169B
:1004C00003136A088A1105248A110730831603135F
:1004D000B5003230B4008030B6003408FE00350874
:1004E000FF0036088A1134268A1183160313330855
:1004F0008A1105248A11073083160313B40034309F
:10050000B3008030B5003308FE003408FF00350822
:100510008A1134268A111F30831603135F02031DCC
:10052000932AA5305E02031CCE2A203083160313C3
:100530005F02031D9D2A08305E020318CE2A013097
:10054000831603135D02031DA72A7D305C02031C82
:10055000CE2A0130831603135D02031DB12AC23077
:100560005C020318CE2A073083160313B40006304A
:10057000B3008030B5003308FE003408FF003508B2
:100580008A1134268A1183160313DE01DF018316D4
:100590000313DC01DD0183160313B20A8316031370
:1005A0005E0883160313E200831603135F088316A5
:1005B0000313E300831603135C0883160313E000A0
:1005C000831603135D0883160313E10083160313D8
:1005D000E7014C2908001130FE000530FF00803093
:1005E0008A110000E2258A11000083160313BD0062
:1005F0007F08BC001330BE000530BF008316031314
:100600003C08C0003D08C100FF30BC07031CBD030F
:10061000400841040319832B04303E07C000C10188
:10062000C10D3F08C1074008FE004108FF008030AF
:100630008A110000E2258A11000083160313C3000B
:100640007F08C2003E08FE003F08FF0080308A118C
:100650000000E2258A11000083160313C500C100C3
:100660007F08C400C00002303E07C000C101C10DB8
:100670003F08C1074008FE004108FF0080308A1192
:100680000000E2258A11000083160313C100C70091
:100690007F08C000C600831603134208C600430843
:1006A000C700FF30C207031CC303460847040319F1
:1006B0007C2B4408FE004508FF0080308A110000B2
:1006C000CF258A11000083160313C6004008831249
:1006D00003138400831383160313411883174608FA
:1006E00083120313800083160313C40A0319C50A77
:1006F000C00A0319C10A4B2B063083160313BE0729
:100700000318BF0AFE2A8A110000C82808008312B5
:100710000313A1007F08A000A20183120313200885
:100720002104031D962B2208031DDE2B83120313C5
:1007300022083B3EA30000300318013EA4000A300B
:10074000FD000030FE002008FF0021088A11552519
:100750008A117F0883120313A50023088312031351
:10076000840083138312031324188317250883122C
:10077000031380000A30FD000030FE0083120313D3
:100780002008FF0021088A1176248A11831203139E
:10079000A1007F08A0003030A507230883120313AF
:1007A00084008313831203132418831725088312EC
:1007B0000313800083120313A20A8D2B83120313E9
:1007C0002208A000831203132008A100A00321081F
:1007D0000319042C20083B3EA10000300318013E01
:1007E000A2002108831203138400831383120313CE
:1007F0002218831783120313000883120313A30024
:100800008A11C5248A11E22B080083120313A60063
:10081000A7010030831203132604031D122C27089E
:10082000031D4F2C831203132708403EA8000030FD
:100830000318013EA9000A30FF0026088A11642629
:100840008A1183120313AA00280883120313840059
:10085000831383120313291883172A08831203139F
:1008600080000A30FF008312031326088A11032632
:100870008A1183120313A6003030AA0728088312B6
:1008800003138400831383120313291883172A0880
:1008900083120313800083120313A70A092C831207
:1008A00003132708A600831203132608A700A60334
:1008B00027080319752C2608403EA70000300318AE
:1008C000013EA800270883120313840083138312B8
:1008D00003132818831783120313000883120313CA
:1008E000A9008A11C5248A11532C0800831603130A
:1008F000C9007F08C8007E08CB007D08CA00CC0173
:10090000CD010130CE00CF014A084B04031D8C2CD1
:10091000FF30FF00FF30C42C831603134A084B0836
:10092000D000D01B9A2C0310CA0DCB0D0310CE0D96
:10093000CF0D8C2C831603134E084F040319BF2CC4
:100940004B084902031DA62C4A084802031CB62C7A
:10095000831603134E08CC074F0803184F0FCD071B
:100960004A08C8024B08031C4B0FC9020310831628
:100970000313CB0CCA0C0310CF0CCE0C9A2C83168D
:1009800003134C08FF004D08080083160313B7003B
:1009900083160313650A83160313B8001030380258
:1009A0000318B80183160313660883160313380669
:1009B000031DEC2C0630BA00BE30B9008030BB00FD
:1009C0003908FE003A08FF003B088A1134268A11D4
:1009D000FF30FF00FF30102D831603136508A03E83
:1009E00083160313B90000300318013EBA0039081A
:1009F0008312031384008313831603133A18831797
:100A000037088312031380008316031338088316F4
:100A10000313E500831603130C160030FF000030AB
:100A200008000B3400342A340734DC340034023438
:100A300000342C340734DE340034023400342E34D5
:100A40000734E03400340234003430340734E23404
:100A500000340234003403340034E534003401340B
:100A6000003436340734E63400340134003437348B
:100A70000734E73400340134003438340734E834C0
:100A800000340134003439340734E934003401349B
:100A900000343A340734EA340034013400343B344F
:100AA0000734EC3400340134003483160313D200CD
:100AB0007F08D1007E08D4007D08D3005404031DB4
:100AC000652DFF30FF00FF30972D01308316031393
:100AD000D5008316031353085408D600D61B752D72
:100AE0000310D30DD40DD50A692D003083160313DE
:100AF00055040319922D54085202031D812D5308E9
:100B00005102031C8B2D831603135308D102540882
:100B1000031C540FD202031083160313D40CD30CFE
:100B2000D503752D831603135108FF0052080800E2
:100B3000831603130515051687168613861650307F
:100B40009F00831203179F111F119E131F109F10E8
:100B50001E121E159E1508308316031399001815D2
:100B60009B159816181283120313981783160313F4
:100B70008112811101118110011083120313900160
:100B80000C1005309700831603130C118312031306
:100B90000C110B178B178F018E0110140800003AEF
:100BA0000319D62D803A0319DD2D00347E08840008
:100BB00083137F188317000808007F088A007E08C7
:100BC00082000800003A0319EA2D803A0319F42D37
:100BD000FF0100347E08840083137F188317000808
:100BE000FF00840A000808008A110000DD25FD00CE
:100BF000FE0FFF03FF0A8A110000DD25FC007D08BF
:100C0000FF007C08080083160313D7007F08D80074
:100C1000D9010130DA005808031D102EFF30332EA1
:100C2000831603135808DB00DB1B1B2E0310D80DA3
:100C30000310DA0D102E0030831603135A04031923
:100C4000302E58085702031C292E5A08D907580875
:100C5000D702031083160313D80C0310DA0C1B2ED3
:100C6000831603135908080083120313B5007F0885
:100C7000B4007E08B300B6018312031336083307AD
:100C8000B70034080318013EB80035080318013EC8
:100C9000B9003708FE003808FF0039088A11CF254F
:100CA0008A1183120313BA003A080319632E3A0813
:100CB000831203139900831203130C1E5B2E8312FD
:100CC0000313B60A3C2E080083120313EC007F08BE
:100CD000ED006D08031D6E2EFF30912E0130831242
:100CE0000313EE00831203136D08EF00EF1B7C2E3D
:100CF0000310ED0DEE0A722E0030831203136E0402
:100D000003198E2E6D086C02031C882E6D08EC02F0
:100D1000031083120313ED0CEE037C2E83120313D6
:100D20006C08080083120313AD007F08AC007E0836
:100D3000AB00AE01831203132E082B07AF002C0863
:100D40000318013EB0002D080318013EB1002F0822
:100D5000FE003008FF0031088A11CF258A11831266
:100D60000313B20032080319BD2E32088A11C524BC
:100D70008A1183120313AE0A9A2E080042345534A6
:100D8000463446344534523420344F345734453495
:100D9000523446344C344F3457340A3400345434CB
:100DA00049344D34303420344F34573446340A34C7
:100DB000003449344E34543420344534523452349F
:100DC0000A340034831203139900831203130C1E98
:100DD000E52E080050344934523431343A3420344A
:100DE000003450344934523432343A3420340034EC
:100DF00050344934453431343A342034003450349A
:100E00004934453432343A3420340034533459347C
:100E10004E3443340A340034773431343A34203495
:100E20000034743431343A342034003430342034D3
:100E30000A340034313420340A3400344634203447
:100E40000A34003477343A342034003474343A3479
:100E500020340034003400340034003400340034D2
:100E600000340034093400340A34003400340034CF
:080E70000034003400340034AA
:02400E00D43F9D
:00000001FF
