:020000040000FA
:1000000000008A11292A0034F200030E8301F10056
:100010000A088A01F000040883160313DE00831225
:1000200003130C1E6328831603135C088316031343
:100030005B06031D1F28831603130C126328831607
:1000400003135C085D3E83120313A0000030031805
:10005000013EA1002008831203138400831383123E
:1000600003132118831783120313000899008312C6
:1000700003132008831203138400831383120313D2
:100080002118831700308312031380008316031393
:100090005C0883120313A000A101A00A0319A10A9E
:1000A0002108803E803E031D572810302002031C8B
:1000B0005D2883120313A001A101831203132008FA
:1000C00083160313DC00831203130C1DB12883165F
:1000D00003130C1183120313171C8D2817108F01A3
:1000E0008E01160883120313A00083160313D40095
:1000F000D5015408D500D4018312031315088312C7
:100100000313A000A101200883160313D4040030B8
:10011000D504831603135A14AB2883120313171440
:10012000160883120313A00083120313ED00EE01DF
:100130006D08EE00ED0183120313150883120313FB
:10014000A000A101200883120313ED040030EE0487
:10015000831603135A14831603130C158312031307
:100160000C11831603135E088312031384007008B6
:100170008A008301710E8300F20E720E09008A114B
:10018000B7248A11831603135A1183120313A20191
:10019000831203138101831603135A1C91295A10E9
:1001A0000730831603135502031DD8285930540213
:1001B000031CFB280730831603135502031DE22896
:1001C0009E3054020318FB2807308316031359028C
:1001D000031DEC2859305802031CFB2807308316F6
:1001E00003135902031DF6289E3058020318FB28FA
:1001F000831603135A150A308312031322020318BD
:100200005329831603135A1D53290230FF0083120A
:10021000031322088A1114258A1183120313A300E1
:10022000A4012308493EA5000030A60000300318B1
:10023000240FA60725088312031384008313831257
:10024000031326188317831203136D0883120313F5
:100250008000840A831203136E0883120313800044
:10026000831203132308A03EA30024080318240FBD
:10027000003EA40023088312031384008313831217
:1002800003132418831783160313540883120313CC
:100290008000840A83160313550883120313800019
:1002A00083120313A20A053083120313A4005730EC
:1002B000A3008030A5002308FE002408FF002508C5
:1002C0008A11E8248A118312031301088A118D23ED
:1002D0008A11053083120313A4007A30A300803002
:1002E000A5002308FE002408FF0025088A11E82441
:1002F0008A1183160313540883160313D800831638
:100300000313550883160313D900831203136D08D2
:1003100083160313D600831203136E088316031388
:10032000D7000A30831203132202031C242AA301DC
:100330000230FF008312031323088A1114258A1147
:1003400083120313A400A5012408493EA60000302F
:10035000A70000300318250FA707260883120313F0
:100360008400831383120313271883178312031344
:10037000000883120313A80083120313840A0008E1
:1003800083120313A9002808FF0029088A11C52237
:100390008A11053083120313A7007830A60080303D
:1003A000A8002608FE002708FF0028088A11E82474
:1003B0008A11831203132408A03EA4002508031801
:1003C000250F003EA5002408831203138400831325
:1003D0008312031325188317831203130008831253
:1003E0000313A60083120313840A00088312031365
:1003F000A7002608FF0027088A11C5228A110530A8
:1004000083120313A5007A30A4008030A6002408CC
:10041000FE002508FF0026088A11E8248A118312AD
:100420000313A30A0A302302031C98290530A400F1
:100430004C30A3008030A5002308FE002408FF00F4
:1004400025088A11E8248A1183160313DD01C828C0
:1004500008008530FE000430FF0080308A11000063
:1004600064248A11000083160313B5007F08B400CA
:100470008730B6000430B700831603133408B80081
:100480003508B900FF30B407031CB5033808390438
:100490000319C12A04303607B800B901B90D37086D
:1004A000B9073808FE003908FF0080308A110000C3
:1004B00064248A11000083160313BB007F08BA006E
:1004C0003608FE003708FF0080308A1100006424DF
:1004D0008A11000083160313BD00B9007F08BC0019
:1004E000B80002303607B800B901B90D3708B907AE
:1004F0003808FE003908FF0080308A1100006424AB
:100500008A11000083160313B900BF007F08B800EA
:10051000BE00831603133A08BE003B08BF00FF303D
:10052000BA07031CBB033E083F040319BA2A3C0860
:10053000FE003D08FF0080308A11000051248A111E
:10054000000083160313BE003808831203138400CF
:10055000831383160313391883173E08831203137A
:10056000800083160313BC0A0319BD0AB80A0319D5
:10057000B90A892A063083160313B6070318B70A87
:100580003C2A8A110000BF28080083120313B00020
:100590007F08AF00B101831203132F083004031941
:1005A000172B3108453EB20000300318013EB3005E
:1005B0000A30FD000030FE002F08FF0030088A11CD
:1005C000D9238A117F0883120313B40032088312DF
:1005D000031384008313831203133318831734081F
:1005E0008312031380000A30FD000030FE008312E6
:1005F00003132F08FF0030088A113E238A1183124B
:100600000313B0007F08AF003030B4073208831204
:1006100003138400831383120313331883173408DE
:1006200083120313800083120313B10ACB2A8312AF
:1006300003133108AF00831203132F08B000AF0378
:10064000300803193D2B2F08453EB0000030031839
:10065000013EB10030088312031384008313831218
:100660000313311883178312031300088312031333
:10067000B2008A118D238A111B2B080083160313E5
:10068000C1007F08C0007E08C3007D08C200C4010D
:10069000C5010130C600C70142084304031D542BA5
:1006A000FF30FF00FF308C2B8316031342084308F2
:1006B000C800C81B622B0310C20DC30D0310C60D6A
:1006C000C70D542B83160313460847040319872BC1
:1006D00043084102031D6E2B42084002031C7E2B7F
:1006E000831603134608C40747080318470FC507B6
:1006F0004208C0024308031C430FC10203108316C3
:100700000313C30CC20C0310C70CC60C622B831658
:1007100003134408FF004508080083120313AA00CE
:10072000831603135B0A83120313AB0010302B02F2
:100730000318AB01831603135C08831203132B0603
:10074000031DB42B0530AD003230AC008030AE005C
:100750002C08FE002D08FF002E088A111C248A1187
:10076000FF30FF00FF30D82B831603135B085D3E7C
:1007700083120313AC0000300318013EAD002C08B7
:100780008312031384008313831203132D1883171A
:100790002A08831203138000831203132B08831685
:1007A0000313DB00831603130C160030FF00003028
:1007B000080083160313CA007F08C9007E08CC0016
:1007C0007D08CB004C04031DE92BFF30FF00FF30F8
:1007D0001B2C013083160313CD00831603134B0823
:1007E0004C08CE00CE1BF92B0310CB0DCC0DCD0A3F
:1007F000ED2B0030831603134D040319162C4C08FF
:100800004A02031D052C4B084902031C0F2C8316BA
:1008100003134B08C9024C08031C4C0FCA020310F7
:1008200083160313CC0CCB0CCD03F92B83160313C7
:100830004908FF004A08080083120313BF007F081D
:10084000BE007E08BD00831203138B1383120313B3
:10085000C0018312031340083D07C1003E0803187E
:10086000013EC2003F080318013EC3004108FE00DC
:100870004208FF0043088A1151248A11831203138E
:10088000C40044080319502C440883120313990030
:10089000831203130C1E482C83120313C00A292C45
:1008A0000800003A0319582C803A03195F2C0034D1
:1008B0007E08840083137F188317000808007F08D0
:1008C0008A007E0882000800003A03196C2C803AE6
:1008D0000319762CFF0100347E08840083137F18EF
:1008E00083170008FF00840A000808008A1100002E
:1008F0005F24FD00FE0FFF03FF0A8A1100005F2442
:10090000FC007D08FF007C080800083400347034C7
:1009100005346D3400340234003472340534D43478
:1009200000340234003474340534D63400340234D4
:10093000003476340534D8340034023400340334BF
:100940000034DB340034013400347C340534DC34CE
:100950000034013400347D340534DD340034013496
:1009600000347E340534DF3400340134003483161F
:1009700003130515051687168613861650309F003B
:10098000831203179F111F119E131F109F101E1219
:100990001E159E15083083160313990018159B1514
:1009A00098161812831203139817053097008316B0
:1009B00003130C118312031390010B178B178F0174
:1009C0008E01831603130C158312031310140800F1
:1009D00083120313B7007F08B6007E08B500B80184
:1009E0008312031338083507B90036080318013E8F
:1009F000BA0037080318013EBB003908FE003A0868
:100A0000FF003B088A1151248A1183120313BC0092
:100A10003C080319132D3C088A118D238A11831277
:100A20000313B80AF02C080083160313CF007F08C5
:100A3000D000D1010830D200831603134F1C222DA1
:100A40005008D107031083160313CF0C0310500D69
:100A5000D300D0005203D300D2005308031D1C2D35
:100A60005108080042345534463446344534523433
:100A700020344F3457344534523446344C344F3498
:100A800057340A34003449344E3454342034453415
:100A9000523452340A340034533459344E344334CB
:100AA0000A340034773431343A3420340034743426
:100AB00031343A3420340034303420340A340034B1
:100AC000313420340A340034463420340A340034BB
:100AD00077343A342034003474343A3420340034D7
:100AE0000034003400340034003400340034003466
:0E0AF000093400340A34003400340034003479
:02400E00D43F9D
:00000001FF
