:020000040000FA
:1000000000008A11B52B0034F200030E8301F100C9
:100010000A088A01F000040883160313E100831222
:1000200003130B1D17288B120B118101061383126A
:1000300003130C1E6B28831603135F088316031328
:100040005E06031D2728831603130C126B288316E4
:1000500003135F08603E83160313A00000300318EB
:10006000013EA1002008831203138400831383162A
:1000700003132118831783120313000899008316B2
:1000800003132008831203138400831383160313BE
:100090002118831700308312031380008316031383
:1000A0005F0883160313A000A101A00A0319A10A87
:1000B0002108803E803E031D5F2810302002031C73
:1000C000652883160313A001A101831603132008DA
:1000D00083160313DF00831203130C1DB628831647
:1000E00003130C1183120313171C952817108F018B
:1000F0008E01160883160313A00083160313D7007E
:10010000D8015708D800D7018312031315088316A6
:100110000313A000A101200883160313D7040030A5
:10012000D804831603135D14B02883120313171425
:10013000160883160313A00083160313D500D601F7
:100140005508D600D501831203131508831603132F
:10015000A000A101200883160313D5040030D604A3
:10016000831603130C15831203130C118316031348
:10017000E00A8316031361088312031384007008D6
:100180008A008301710E8300F20E720E09008A113B
:100190000F268A11831603135D115D100A30FD00CE
:1001A0000030FE000030FF0000308A1123258A1144
:1001B00083160313A20183160313A4012208A300CC
:1001C000FF0000308A11CF248A1183160313A40084
:1001D0007F08A3000730A600B330A5008030A70039
:1001E0002508FE002608FF0027088A1132278A11F9
:1001F00083160313A6012208A500FF0000308A1110
:1002000051248A11073083160313A600E030A5009D
:100210008030A7002508FE002608FF0027088A1165
:1002200032278A11831603132308FF0024088A113A
:1002300051248A11073083160313A600E230A5006B
:100240008030A7002508FE002608FF0027088A1135
:1002500032278A110130831603132402031D322929
:10026000F5302302031C4B29831603132208AE3EEC
:10027000A50000300318013EA600250883120313D1
:100280008400831383160313261883170230831206
:100290000313800082290130831603132402031DF7
:1002A00053292C30230203186C29831603132208C8
:1002B000AE3EA30000300318013EA40023088312C1
:1002C0000313840083138316031324188317013048
:1002D0008312031380008229831603132208AE3E83
:1002E000A30000300318013EA40023088312031367
:1002F0008400831383160313241883170330831297
:100300000313800083160313A20A0C302202031C7D
:10031000DB28A201073083160313A400B330A30027
:100320008030A5002308FE002408FF0025088A115C
:1003300032278A1183160313A4012208A300FF00A9
:1003400000308A1151248A11073083160313A40048
:10035000E030A3008030A5002308FE002408FF0041
:1003600025088A1132278A11831603132208AE3E0C
:10037000A30000300318013EA400230883120313D6
:100380008400831383160313241883178312031323
:10039000000883160313A500A300A4012308FF008F
:1003A00000308A1151248A11073083160313A400E8
:1003B000E230A3008030A5002308FE002408FF00DF
:1003C00025088A1132278A1183160313A20A0C30DA
:1003D0002202031C8A29831603135D1CA92B5D10BE
:1003E0000730831603135802031DF82959305702AA
:1003F000031CF32A0730831603135802031D022A35
:100400009E3057020318F32A0730831603135C0249
:10041000031D0C2A59305B02031CF32A0730831694
:1004200003135C02031D162A9E305B020318F32A95
:100430000530831603135602031D202A4730550248
:10044000031C612A0530831603135602031D2A2A52
:10045000963055020318612A0530831603135A0299
:10046000031D342A47305902031C612A05308316C4
:1004700003135A02031D3E2A963059020318612ABB
:100480008316031322083B3EA30000300318013EED
:10049000A400230883120313840083138316031319
:1004A000241883170230831203138000831603136A
:1004B000D701D80183160313D501D6018316031380
:1004C000A20A0130831603135602031D692A7D30E8
:1004D0005502031CAA2A0130831603135602031D7A
:1004E000732AC23055020318AA2A01308316031357
:1004F0005A02031D7D2A7D305902031CAA2A0130AD
:10050000831603135A02031D872AC23059020318A7
:10051000AA2A8316031322083B3EA30000300318C7
:10052000013EA4002308831203138400831383165F
:1005300003132418831701308312031380008316DA
:100540000313D701D80183160313D501D6018316EF
:100550000313A20A0130831603135A02031DB22AA1
:100560007D305902031CF32A0130831603135A020B
:10057000031DBC2AC23059020318F32A0530831622
:1005800003135602031DC62A47305502031CF32AE3
:100590000530831603135602031DD02A96305502E8
:1005A0000318F32A8316031322083B3EA3000030EE
:1005B0000318013EA400230883120313840083134D
:1005C0008316031324188317033083120313800048
:1005D00083160313D701D80183160313D501D6015F
:1005E00083160313A20A3A30831603135802031D1D
:1005F000FB2A99305702031C912B3E3083160313BC
:100600005802031D052B803057020318912B01302F
:10061000831603135602031D0F2B7D305502031C56
:10062000912B0130831603135602031D192BC23080
:1006300055020318912B073083160313A400AD3025
:10064000A3008030A5002308FE002408FF00250831
:100650008A1132278A1183160313D701D801831612
:100660000313D501D601013083160313A300A2039F
:10067000831203138B13831603132208A4000B3079
:10068000A5008316031324083B3EA6000030031880
:10069000013EA700260883120313840083138316E8
:1006A00003132718831783120313000883160313F9
:1006B000A8002508AE3EA60000300318013EA700A2
:1006C0002608831203138400831383160313271849
:1006D0008317831203130008831603132806031DD0
:1006E000A301A403A50B412B2408A200831203132A
:1006F0008B178316031323080319912B0730A400CB
:10070000A630A3008030A5002308FE002408FF00C7
:1007100025088A1132278A118312031306178101D3
:100720008B1683160313570883160313DB008316F7
:100730000313580883160313DC00831603135508AC
:1007400083160313D9008316031356088316031365
:10075000DA0083160313E001133083160313220219
:10076000031CEB29A201EB290800D030FE00063063
:10077000FF0080308A110000AF268A110000831626
:100780000313BB007F08BA00D230BC000630BD00A6
:10079000831603133A08BE003B08BF00FF30BA07B8
:1007A000031CBB033E083F0403194D2C04303C07D7
:1007B000BE00BF01BF0D3D08BF073E08FE003F0859
:1007C000FF0080308A110000AF268A1100008316D6
:1007D0000313C1007F08C0003C08FE003D08FF0075
:1007E00080308A110000AF268A110000831603139F
:1007F000C300BF007F08C200BE0002303C07BE003D
:10080000BF01BF0D3D08BF073E08FE003F08FF00C7
:1008100080308A110000AF268A110000831603136E
:10082000BF00C5007F08BE00C40083160313400844
:10083000C4004108C500FF30C007031CC1034408C1
:1008400045040319462C4208FE004308FF0080308F
:100850008A1100009C268A11000083160313C4002D
:100860003E088312031384008313831603133F1877
:100870008317440883120313800083160313C20AEC
:100880000319C30ABE0A0319BF0A152C06308316C2
:100890000313BC070318BD0AC82B8A110000C72820
:1008A000080083120313A1007F08A000A201831295
:1008B000031320082104031D602C2208031DA82C0B
:1008C000831203132208363EA30000300318013EB2
:1008D000A4000A30FD000030FE002008FF002108BF
:1008E0008A1159268A117F0883120313A500230851
:1008F00083120313840083138312031324188317B2
:1009000025088312031380000A30FD000030FE002A
:10091000831203132008FF0021088A1174258A110D
:1009200083120313A1007F08A0003030A50723081D
:100930008312031384008313831203132418831771
:10094000250883120313800083120313A20A572C75
:10095000831203132208A000831203132008A100AE
:10096000A00321080319CE2C2008363EA100003038
:100970000318013EA200210883120313840083138D
:1009800083120313221883178312031300088312A0
:100990000313A3008A11C3258A11AC2C080083120B
:1009A0000313D0007F08CF00D1000310510DCF00FA
:1009B0000310CF0D81304F04D000831203139F002A
:1009C0000130FD000030FE000030FF0000308A11D1
:1009D00023258A11831203139F1483120313D10159
:1009E000831203139F1CF72C83120313D10A831263
:1009F00003135108D200013A031D092D0130FD00F7
:100A00000030FE000030FF0000308A1123258A11DB
:100A1000ED2C831203131E0883120313D300D1009D
:100A2000D000831603131E0883120313CF00D201D4
:100A3000D001D2014F08D100D0040030D3045008B7
:100A4000FF005308080083120313D7007F08D60065
:100A50007E08D5007D08D400831203135408D80003
:100A60005508D9005608DA005708DB00FF30D407D4
:100A7000FF30031CD507FF30031CD607FF30031CD3
:100A8000D707580859045A045B040319732D4A30D8
:100A9000D8000130D900DA01DB01FF3083120313E3
:100AA0005807DC00FF30DD0059080318590FDD0737
:100AB000FF30DE005A0803185A0FDE07FF30DF0050
:100AC0005B0803185B0FDF075C08D8005D08D900DE
:100AD0005E08DA005F08DB005C085D045E045F040A
:100AE000031D4D2D2C2D080083160313C7007F080E
:100AF000C6007E08C9007D08C800CA01CB010130CC
:100B0000CC00CD0148084904031D8A2DFF30FF00A9
:100B1000FF30C22D8316031348084908CE00CE1BB0
:100B2000982D0310C80DC90D0310CC0DCD0D8A2DC5
:100B3000831603134C084D040319BD2D49084702C1
:100B4000031DA42D48084602031CB42D831603136D
:100B50004C08CA074D0803184D0FCB074808C602BA
:100B60004908031C490FC702031083160313C90C5D
:100B7000C80C0310CD0CCC0C982D831603134A0817
:100B8000FF004B08080083160313A9008316031304
:100B90005E0A83160313AA0010302A020318AA0162
:100BA000831603135F08831603132A06031DEA2D19
:100BB0000730AC005E30AB008030AD002B08FE008B
:100BC0002C08FF002D088A1102278A11FF30FF0030
:100BD000FF300E2E831603135E08603E8316031348
:100BE000AB0000300318013EAC002B088312031346
:100BF00084008313831603132C1883172908831288
:100C000003138000831603132A0883160313DE00E0
:100C1000831603130C160030FF0000300800831603
:100C200003138616061687170717871507158714E7
:100C300007140516051585140514871686138616E0
:100C400050309F00831203179F151F159F141F1408
:100C50009E171E179E161E169E151E159E141E14F8
:100C60008316031306130830990018159B15981660
:100C7000181283120313981783160313811281111C
:100C800001158114011083120313900105309700A0
:100C9000831603130C11831203130C110B178B17FC
:100CA0008F018E01831603130C1583120313101486
:100CB000080083160313D0007F08CF007E08D200FF
:100CC0007D08D1005204031D692EFF30FF00FF3064
:100CD0009B2E013083160313D30083160313510890
:100CE0005208D400D41B792E0310D10DD20DD30A93
:100CF0006D2E00308316031353040319962E5208E9
:100D00005002031D852E51084F02031C8F2E83169F
:100D100003135108CF025208031C520FD0020310D4
:100D200083160313D20CD10CD303792E831603132D
:100D30004F08FF0050080800003A0319A32E803A1C
:100D40000319AA2E00347E08840083137F188317AA
:100D5000000808007F088A007E0882000800003A28
:100D60000319B72E803A0319C12EFF0100347E0803
:100D7000840083137F1883170008FF00840A00088B
:100D800008008A110000AA26FD00FE0FFF03FF0ADB
:100D90008A110000AA26FC007D08FF007C080800DC
:100DA00008340034D6340734D534003402340034E7
:100DB000D8340734D734003402340034DA340734FA
:100DC000D934003402340034DC340734DB340034EA
:100DD0000234003403340034DE340034013400348F
:100DE000E4340734DF34003401340034E5340734AC
:100DF000E034003401340034E6340734E2340034A3
:100E00000134003483120313B0007F08AF007E0862
:100E1000AE00B1018312031331082E07B2002F0870
:100E20000318013EB30030080318013EB400320835
:100E3000FE003308FF0034088A119C268A118312B1
:100E40000313B50035080319312F35088312031336
:100E50009900831203130C1E292F83120313B10A66
:100E60000A2F080083120313A8007F08A7007E083A
:100E7000A600A9018312031329082607AA00270840
:100E80000318013EAB0028080318013EAC002A08F5
:100E9000FE002B08FF002C088A119C268A11831261
:100EA0000313AD002D0803195D2F2D088A11C325EA
:100EB0008A1183120313A90A3A2F080042345534C9
:100EC000463446344534523420344F345734453454
:100ED000523446344C344F3457340A34003454348A
:100EE00049344D34303420344F34573446340A3486
:100EF000003449344E34543420344534523452345E
:100F00000A340034831203139900831203130C1E56
:100F1000852F080050344934523431343A34203467
:100F2000003450344934523432343A3420340034AA
:100F300050344934453431343A3420340034503458
:100F40004934453432343A34203400344C34493452
:100F50006734683474340A340034533459344E34AA
:100F600043340A340034693420343D3420340034AE
:100F7000773431343A3420340034743431343A34F0
:100F800020340034303420340A34003431342034F6
:100F90000A340034463420340A34003477343A3486
:100FA0002034003474343A342034003400340034B3
:100FB0000034003400340034003400340934003488
:0E0FC000203400340A3400340034003400348D
:02400E00D43F9D
:00000001FF
