:020000040000FA
:1000000000008A11C62A0034F200030E8301F100B9
:100010000A088A01F000040883160313E000831223
:1000200003130B1D15280B118101831203130C1EE2
:100030006928831603135E08831603135D06031DE8
:100040002528831603130C126928831603135E08F0
:10005000A03E83160313B00000300318013EB10028
:10006000300883120313840083138316031331189B
:1000700083178312031300089900831603133008B3
:100080008312031384008313831603133118831719
:100090000030831203138000831603135E08831657
:1000A0000313B000B101B00A0319B10A3108803E50
:1000B000803E031D5D2810303002031C6328831628
:1000C0000313B001B1018316031330088316031321
:1000D000DE00831203130C1DB428831603130C11C6
:1000E00083120313171C932817108F018E01160813
:1000F00083160313B00083160313D600D7015608E6
:10010000D700D60183120313150883160313B0001A
:10011000B101300883160313D6040030D7048316C8
:1001200003135C14AE2883120313171416088316E6
:100130000313B00083160313D400D5015408D5006F
:10014000D40183120313150883160313B000B10101
:10015000300883160313D4040030D5048316031328
:100160000C15831203130C1183160313DF0A831675
:100170000313600883120313840070088A0083014C
:10018000710E8300F20E720E090083160313B20182
:10019000B3018A11BE248A11831603135C115C100B
:1001A000831603135C1C242A5C1007308316031388
:1001B0005702031DDD2859305602031CC929073098
:1001C000831603135702031DE7289E3056020318B7
:1001D000C9290730831603135B02031DF128593028
:1001E0005A02031CC9290730831603135B02031D3F
:1001F000FB289E305A020318C929831603135C1585
:100200000530831603135502031D08294730540295
:10021000031C43290530831603135502031D1229BD
:1002200096305402031843290530831603135902EC
:10023000031D1C2947305802031C4329053083162F
:1002400003135902031D2629963058020318432927
:10025000063083160313B5003530B4008030B60085
:100260003408FE003508FF0036088A115F258A1120
:1002700083160313D601D70183160313D401D501C6
:1002800083160313B20A0130831603135502031DAC
:100290004B297D305402031C862901308316031339
:1002A0005502031D5529C230540203188629013016
:1002B000831603135902031D5F297D305802031C66
:1002C00086290130831603135902031D6929C230A0
:1002D000580203188629063083160313B5003130FF
:1002E000B4008030B6003408FE003508FF00360840
:1002F0008A115F258A1183160313D601D70183164D
:100300000313D401D50183160313B20A01308316F7
:1003100003135902031D8E297D305802031CC9297D
:100320000130831603135902031D9829C230580265
:100330000318C9290530831603135502031DA2298A
:1003400047305402031CC929053083160313550294
:10035000031DAC29963054020318C92906308316B0
:100360000313B5003930B4008030B6003408FE0005
:100370003508FF0036088A115F258A11831603139A
:10038000D601D70183160313D401D50183160313B5
:10039000B20A3A30831603135702031DD12999304C
:1003A0005602031C0C2A3E30831603135702031D0A
:1003B000DB298030560203180C2A01308316031300
:1003C0005502031DE5297D305402031C0C2A01301F
:1003D000831603135502031DEF29C230540203187C
:1003E0000C2A063083160313B5002130B400803088
:1003F000B6003408FE003508FF0036088A115F2574
:100400008A1183160313D601D70183160313D4016F
:10041000D50183160313B20A8316031356088316F5
:100420000313DA0083160313570883160313DB0044
:1004300083160313540883160313D800831603137B
:10044000550883160313D900831603130C110A30C1
:10045000831603133302031CBE2AB4010230FF00CB
:100460008316031334088A11BB258A1183160313DC
:10047000B500B60135083B3EB7000030B80000308B
:100480000318360FB8073708831203138400831349
:100490008316031338188317831203130008831677
:1004A0000313B90083120313840A0008831603138D
:1004B000BA003908FF003A088A1162238A1106300F
:1004C00083160313B8004D30B7008030B9003708E9
:1004D000FE003808FF0039088A115F258A1183164B
:1004E000031335084F3EB50036080318360F003E9B
:1004F000B600350883120313840083138316031395
:100500003618831783120313000883160313B700EA
:1005100083120313840A000883160313B8003708F4
:10052000FF0038088A1162238A11063083160313EC
:10053000B6004F30B5008030B7003508FE003608F1
:10054000FF0037088A115F258A1183160313B40A46
:100550000A303402031C2E2A0630B5002130B400C4
:100560008030B6003408FE003508FF0036088A11D6
:100570005F258A1183160313B201B3018316031397
:100580000C1583160313DF01D02808002D30FE0060
:100590000530FF0080308A1100000C258A11000010
:1005A00083120313E4007F08E3002F30E5000530D9
:1005B000E600831203136308E7006408E800FF30D5
:1005C000E307031CE4036708680403195E2B043087
:1005D0006507E700E801E80D6608E8076708FE0020
:1005E0006808FF0080308A1100000C258A11000085
:1005F00083120313EA007F08E9006508FE0066081D
:10060000FF0080308A1100000C258A11000083123F
:100610000313EC00E8007F08EB00E70002306507F9
:10062000E700E801E80D6608E8076708FE006808CB
:10063000FF0080308A1100000C258A11000083120F
:100640000313E800EE007F08E700ED0083120313B8
:100650006908ED006A08EE00FF30E907031CEA03B1
:100660006D086E040319572B6B08FE006C08FF0021
:1006700080308A110000F9248A11000083120313CC
:10068000ED0067088312031384008313831203139E
:10069000681883176D0883120313800083120313F5
:1006A000EB0A0319EC0AE70A0319E80A262B0630BD
:1006B00083120313E5070318E60AD92A8A110000FA
:1006C000C528080083120313A1007F08A000A2011F
:1006D0008312031320082104031D712B2208031D1C
:1006E000B92B831203132208363EA30000300318EF
:1006F000013EA4000A30FD000030FE002008FF008B
:1007000021088A117B248A117F0883120313A50014
:100710002308831203138400831383120313241802
:10072000831725088312031380000A30FD00003070
:10073000FE00831203132008FF0021088A11E02322
:100740008A1183120313A1007F08A0003030A5078F
:1007500023088312031384008313831203132418C2
:100760008317250883120313800083120313A20A40
:10077000682B831203132208A0008312031320089E
:10078000A100A00321080319DF2B2008363EA10099
:1007900000300318013EA2002108831203138400D5
:1007A0008313831203132218831783120313000881
:1007B00083120313A3008A112F248A11BD2B080072
:1007C00083160313C1007F08C0007E08C3007D08A4
:1007D000C200C401C5010130C600C701420843047C
:1007E000031DF62BFF30FF00FF302E2C8316031362
:1007F00042084308C800C81B042C0310C20DC30DD7
:100800000310C60DC70DF62B8316031346084704C5
:100810000319292C43084102031D102C42084002F1
:10082000031C202C831603134608C407470803182B
:10083000470FC5074208C0024308031C430FC1020B
:10084000031083160313C30CC20C0310C70CC60C91
:10085000042C831603134408FF0045080800831680
:100860000313BB00831603135D0A83160313BC0036
:1008700010303C020318BC01831603135E08831674
:1008800003133C06031D562C0530BE00D930BD00B5
:100890008030BF003D08FE003E08FF003F088A117F
:1008A0005F258A11FF30FF00FF307A2C8316031377
:1008B0005D08A03E83160313BD0000300318013EFF
:1008C000BE003D08831203138400831383160313B1
:1008D0003E1883173B08831203138000831603130B
:1008E0003C0883160313DD00831603130C16003037
:1008F000FF000030080083160313CA007F08C900F8
:100900007E08CC007D08CB004C04031D8B2CFF30EF
:10091000FF00FF30BD2C013083160313CD0083167A
:1009200003134B084C08CE00CE1B9B2C0310CB0DA1
:10093000CC0DCD0A8F2C0030831603134D04031900
:10094000B82C4C084A02031DA72C4B084902031C73
:10095000B12C831603134B08C9024C08031C4C0F1F
:10096000CA02031083160313CC0CCB0CCD039B2CB3
:10097000831603134908FF004A080800831603136F
:100980000515051687168613861650309F008312AC
:1009900003179F111F119E131F109F101E121E156B
:1009A0009E15083083160313990018159B15981689
:1009B00018128312031398178316031381128111DF
:1009C000011181100110831203139001053097006B
:1009D000831603130C11831203130C110B178B17BF
:1009E0008F018E01831603130C1583120313101449
:1009F0000800003A0319002D803A0319072D00342E
:100A00007E08840083137F188317000808007F087E
:100A10008A007E0882000800003A0319142D803AEB
:100A200003191E2DFF0100347E08840083137F18F4
:100A300083170008FF00840A000808008A110000DC
:100A40000725FD00FE0FFF03FF0A8A11000007259E
:100A5000FC007D08FF007C080800083400344534A1
:100A60000634D43400340234003447340634D634E7
:100A700000340234003449340634D83400340234AB
:100A800000344B340634DA34003402340034033496
:100A90000034DD3400340134003451340634DE34A3
:100AA00000340134003452340634DF34003401346D
:100AB000003453340634E1340034013400348312FA
:100AC0000313B0007F08AF007E08AE00B1018312AF
:100AD000031331082E07B2002F080318013EB3009C
:100AE00030080318013EB4003208FE003308FF004E
:100AF00034088A11F9248A1183120313B5003508CA
:100B000003198E2D350883120313990083120313E2
:100B10000C1E862D83120313B10A672D0800831261
:100B20000313A8007F08A7007E08A600A90183126E
:100B3000031329082607AA0027080318013EAB0063
:100B400028080318013EAC002A08FE002B08FF000D
:100B50002C088A11F9248A1183120313AD002D0881
:100B60000319BA2D2D088A112F248A118312031319
:100B7000A90A972D080083160313CF007F08D00021
:100B8000D1010830D200831603134F1CC92D500821
:100B9000D107031083160313CF0C0310500DD3009D
:100BA000D0005203D300D2005308031DC32D5108B7
:100BB00008004234553446344634453452342034E7
:100BC0004F3457344534523446344C344F34573410
:100BD0000A340034543449344D34303420344F34E2
:100BE000573446340A34003449344E3454342034B3
:100BF0004534523452340A340034831203139900BA
:100C0000831203130C1E002E080050344934523452
:100C100031343A342034003450344934523432348C
:100C20003A342034003450344934453431343A3481
:100C30002034003450344934453432343A3420348A
:100C40000034533459344E3443340A340034773446
:100C500031343A3420340034743431343A3420346A
:100C60000034303420340A340034313420340A342F
:100C70000034463420340A34003477343A34203493
:100C8000003474343A3420340034003400340034F6
:100C900000340034003400340034093400340A34A1
:080CA00000340034003400347C
:02400E00D43F9D
:00000001FF
