:020000040000FA
:1000000000008A11782B0034F200030E8301F10006
:100010000A088A01F000040883120317A300831260
:1000200003130C1E6328831603136E088316031331
:100030006D06031D1F28831603130C1263288316F5
:1000400003136E08B43E83120313A000003003189C
:10005000013EA1002008831203138400831383123E
:1000600003132118831783120313000899008312C6
:1000700003132008831203138400831383120313D2
:100080002118831700308312031380008316031393
:100090006E0883120313A000A101A00A0319A10A8C
:1000A0002108803E803E031D572810302002031C8B
:1000B0005D2883120313A001A101831203132008FA
:1000C00083160313EE00831203130C1DAE28831650
:1000D00003130C1183120313171C8D2817108F01A3
:1000E0008E01160883120313A00083160313E60083
:1000F000E7016608E700E60183120313150883127F
:100100000313A000A101200883160313E6040030A6
:10011000E704831603136C14A8288312031317141F
:10012000160883120313A00083160313E400E501ED
:100130006408E500E4018312031315088312031316
:10014000A000A101200883160313E4040030E50495
:10015000831603130C15831203130C118312031758
:10016000230883120313840070088A008301710E30
:100170008300F20E720E090083120313A2018A118A
:100180001A268A11831603136C116C108312031341
:100190008B138101FA3083120317A2007D30831282
:1001A0000317A10083120313010883120313A30092
:1001B000831203138B17073083120313A500A33098
:1001C000A4008030A6002408FE002508FF002608B1
:1001D0008A111D278A118312031323088A118D2483
:1001E0008A11073083120313A500CB30A40080309E
:1001F000A6002408FE002508FF0026088A111D27F6
:100200008A11831203138B138101AE3083160313FB
:10021000E8000130E900753083160313EA00073067
:10022000EB0083120313010883120313A30083124C
:1002300003138B17073083120313A500B930A400F2
:100240008030A6002408FE002508FF0026088A1139
:100250001D278A118312031323088A118D248A1102
:10026000073083120313A500CB30A4008030A60012
:100270002408FE002508FF0026088A111D278A1180
:1002800083120313A4018312031381018316031342
:100290006C1CE02A6C100730831603136702031DE1
:1002A000532959306602031C3F2A07308316031373
:1002B0006702031D5D299E30660203183F2A07303E
:1002C000831603136B02031D672959306A02031C4E
:1002D0003F2A0730831603136B02031D71299E30DA
:1002E0006A0203183F2A831603136C150530831620
:1002F00003136502031D7E2947306402031CB929DC
:100300000530831603136502031D882996306402A5
:100310000318B9290530831603136902031D9229B6
:1003200047306802031CB92905308316031369029C
:10033000031D9C29963068020318B92907308312DF
:100340000313A600B130A5008030A7002508FE00E9
:100350002608FF0027088A111D278A118316031318
:10036000E601E70183160313E401E5018312031399
:10037000A20A0130831603136502031DC1297D30D3
:100380006402031CFC290130831603136502031D5C
:10039000CB29C23064020318FC29013083160313F1
:1003A0006902031DD5297D306802031CFC29013038
:1003B000831603136902031DDF29C2306802031884
:1003C000FC29073083120313A600AD30A50080304E
:1003D000A7002508FE002608FF0027088A111D2710
:1003E0008A1183160313E601E70183160313E40160
:1003F000E50183120313A20A013083160313690275
:10040000031D042A7D306802031C3F2A0130831635
:1004100003136902031D0E2AC230680203183F2A23
:100420000530831603136502031D182A4730640242
:10043000031C3F2A0530831603136502031D222A7D
:100440009630640203183F2A073083120313A60074
:10045000B530A5008030A7002508FE002608FF0063
:1004600027088A111D278A1183160313E601E70165
:1004700083160313E401E50183120313A20A093072
:10048000831203132202031CC52A831603136C1D57
:10049000C52A0A308312031324020318C52A023026
:1004A000FF0024088A1149278A1183120313A5002B
:1004B000A6012508533EA7000030A800003003180D
:1004C000260FA807270883120313840083138312BF
:1004D0000313281883178316031364088312031366
:1004E0008000840A831603136508831203138000B7
:1004F000831203132508A03EA50026080318260F23
:10050000003EA60025088312031384008313831280
:100510000313261883178316031366088312031325
:100520008000840A83160313670883120313800074
:1005300083120313A40A8312031301088312031303
:10054000A3000730A600B930A5008030A700250819
:10055000FE002608FF0027088A111D278A11831232
:10056000031323088A118D248A1107308312031381
:10057000A500CB30A3008030A6002308FE0025088C
:10058000FF0026088A111D278A11831203138B1777
:1005900083160313660883160313EA0083160313F6
:1005A000670883160313EB0083160313640883168E
:1005B0000313E80083160313650883160313E90089
:1005C0000A30831203132202031C732BA30102308F
:1005D000FF008312031323088A1149278A1183120B
:1005E0000313A500A6012508533EA7000030A8006C
:1005F00000300318260FA80727088312031384006E
:10060000831383120313281883178312031300081C
:1006100083120313A90083120313840A00088312B0
:100620000313AA002908FF002A088A1114248A113A
:10063000073083120313A800C930A7008030A90037
:100640002708FE002808FF0029088A111D278A11A3
:10065000831203132508A03EA50026080318260FC1
:10066000003EA6002508831203138400831383121F
:10067000031326188317831203130008831203132E
:10068000A70083120313840A000883120313A8002F
:100690002708FF0028088A1114248A1107308312C2
:1006A0000313A600CB30A5008030A7002508FE006C
:1006B0002608FF0027088A111D278A1183120313B9
:1006C000A30A0A302302031CE72A0730A5009D3045
:1006D000A3008030A6002308FE002508FF0026089E
:1006E0008A111D278A1183120317A00143290800CC
:1006F000DC30FE000530FF0080308A1100009D26AE
:100700008A11000083160313C5007F08C400DE3081
:10071000C6000530C700831603134408C800450807
:10072000C900FF30C407031CC50348084904031966
:10073000102C04304607C800C901C90D4708C90775
:100740004808FE004908FF0080308A1100009D26FD
:100750008A11000083160313CB007F08CA004608E5
:10076000FE004708FF0080308A1100009D268A1194
:10077000000083160313CD00C9007F08CC00C80019
:1007800002304607C800C901C90D4708C907480813
:10079000FE004908FF0080308A1100009D268A1162
:1007A000000083160313C900CF007F08C800CE00E5
:1007B000831603134A08CE004B08CF00FF30CA0748
:1007C000031CCB034E084F040319092C4C08FE00F0
:1007D0004D08FF0080308A1100008A268A1100002F
:1007E00083160313CE004808831203138400831377
:1007F00083160313491883174E08831203138000CE
:1008000083160313CC0A0319CD0AC80A0319C90AAF
:10081000D82B063083160313C6070318C70A8B2B81
:100820008A110000BC28080083120313B1007F085E
:10083000B000B20183120313300831040319662C8F
:1008400032084B3EB30000300318013EB4000A30BA
:10085000FD000030FE003008FF0031088A119925A4
:100860008A117F0883120313B50033088312031320
:1008700084008313831203133418831735088312FB
:10088000031380000A30FD000030FE0083120313C2
:100890003008FF0031088A11FE248A1183120313E5
:1008A000B1007F08B0003030B5073308831203135E
:1008B00084008313831203133418831735088312BB
:1008C0000313800083120313B20A1A2C831203133A
:1008D0003208B000831203133008B100B0033108AE
:1008E00003198C2C30084B3EB10000300318013E38
:1008F000B20031088312031384008313831203139D
:100900003218831783120313000883120313B300F2
:100910008A114D258A116A2C080083120313B60030
:10092000B7010030831203133604031D9A2C3708D5
:10093000031DD72C8312031337084F3EB800003035
:100940000318013EB9000A30FF0036088A11EF266D
:100950008A1183120313BA00380883120313840028
:10096000831383120313391883173A08831203136E
:1009700080000A30FF008312031336088A11BE2656
:100980008A1183120313B6003030BA073808831275
:1009900003138400831383120313391883173A084F
:1009A00083120313800083120313B70A912C83125E
:1009B00003133708B600831203133608B700B603D3
:1009C00037080319FD2C36084F3EB70000300318D6
:1009D000013EB80037088312031384008313831287
:1009E00003133818831783120313000883120313A9
:1009F000B9008A114D258A11DB2C080083120313DC
:100A0000E8007F08E7007E08EA007D08E900EB01C6
:100A1000EC010130ED00EE0169086A04031D142D9C
:100A2000FF30FF00FF304C2D8312031369086A0862
:100A3000EF00EF1B222D0310E90DEA0D0310ED0D61
:100A4000EE0D142D831203136D086E040319472D48
:100A50006A086802031D2E2D69086702031C3E2DDB
:100A6000831203136D08EB076E0803186E0FEC0773
:100A70006908E7026A08031C6A0FE8020310831280
:100A80000313EA0CE90C0310EE0CED0C222D83127B
:100A900003136B08FF006C08080083120313AB00FC
:100AA000831603136D0A83120313AC0010302C025B
:100AB0000318AC01831603136E08831203132C066C
:100AC000031D742D0730AE006730AD008030AF00DD
:100AD0002D08FE002E08FF002F088A1155268A11C6
:100AE000FF30FF00FF30982D831603136D08B43ECE
:100AF00083120313AD0000300318013EAE002D0831
:100B00008312031384008313831203132E18831795
:100B10002B08831203138000831203132C088316FF
:100B20000313ED00831603130C160030FF00003092
:100B3000080083160313D1007F08D0007E08D3007D
:100B40007D08D2005304031DA92DFF30FF00FF30A4
:100B5000DB2D013083160313D400831603135208D0
:100B60005308D500D51BB92D0310D20DD30DD40ACF
:100B7000AD2D00308316031354040319D62D5308EA
:100B80005102031DC52D52085002031CCF2D8316A0
:100B900003135208D0025308031C530FD102031051
:100BA00083160313D30CD20CD403B92D831603136D
:100BB0005008FF00510808000A340034C1340734DB
:100BC000E434003402340034C3340734E6340034EF
:100BD00002340034C5340734E834003402340034BD
:100BE000C7340734EA3400340234003403340034A8
:100BF000ED34003401340034CD340734EE340034A5
:100C000001340034CE34073420340134013400344C
:100C1000CF3407342134013401340034D034073464
:100C20002234013401340034D13407342434013403
:100C30000134003483160313051505168716861331
:100C4000861650309F00831203179F111F119E13A9
:100C50001F109F101E121E159E15083083160313B9
:100C6000990018159B1598161812831203139817DC
:100C700083160313811281110111811001100530B7
:100C8000831203139700831603130C1183120313AB
:100C90000C1190010B178B178F018E018316031314
:100CA0000C15831203131014080083120313C500DC
:100CB0007F08C4007E08C300831203138B138312C2
:100CC0000313C6018312031346084307C7004408F1
:100CD0000318013EC80045080318013EC900470833
:100CE000FE004808FF0049088A118A268A118312EB
:100CF0000313CA004A080319892E4A0883120313F2
:100D00009900831203130C1E812E83120313C60A4B
:100D1000622E0800003A0319912E803A0319982E8A
:100D200000347E08840083137F18831700080800AE
:100D30007F088A007E0882000800003A0319A52E69
:100D4000803A0319AF2EFF0100347E08840083131C
:100D50007F1883170008FF00840A000808008A1122
:100D600000009826FD00FE0FFF03FF0A8A11000015
:100D70009826FC007D08FF007C08080083160313FA
:100D8000D6007F08D700D8010130D9005708031DCD
:100D9000CB2EFF30EE2E831603135708DA00DA1B32
:100DA000D62E0310D70D0310D90DCB2E003083168D
:100DB000031359040319EB2E57085602031CE42EA3
:100DC0005908D8075708D602031083160313D70C07
:100DD0000310D90CD62E8316031358080800831667
:100DE0000313E0007F08E1006108031DF92EFF30C6
:100DF0001C2F013083160313E200831603136108CE
:100E0000E300E31B072F0310E10DE20AFD2E003083
:100E10008316031362040319192F61086002031C6F
:100E2000132F6108E002031083160313E10CE203A1
:100E3000072F831603136008080083120313BD00F5
:100E40007F08BC007E08BB00BE01831203133E086E
:100E50003B07BF003C080318013EC0003D080318D3
:100E6000013EC1003F08FE004008FF0041088A1112
:100E70008A268A1183120313C20042080319482FDD
:100E800042088A114D258A1183120313BE0A252FA9
:100E9000080083160313DB007F08DC00DD01083047
:100EA000DE00831603135B1C572F5C08DD0703105D
:100EB00083160313DB0C03105C0DDF00DC005E0304
:100EC000DF00DE005F08031D512F5D08080042347B
:100ED0005534463446344534523420344F34573434
:100EE0004534523446344C344F3457340A34003489
:100EF00049344E34543420344534523452340A3454
:100F0000003450344934523431343A3420340034CB
:100F100050344934523432343A342034003450346A
:100F20004934453431343A3420340034503449346F
:100F3000453432343A3420340034533459344E3446
:100F400043340A340034773431343A3420340034B2
:100F5000743431343A3420340034303420340A3498
:100F60000034313420340A340034463420340A3416
:100F7000003477343A342034003474343A34203432
:100F800000340034003400340034003400340034C1
:100F90000034093400340A3400340034003400349E
:040FA00000340034E5
:02400E00D43F9D
:00000001FF
