:020000040000FA
:1000000000008A118F2A0034F200030E8301F100F0
:100010000A088A01F000040883120317A300831260
:1000200003130C1E6328831603136E088316031331
:100030006D06031D1F28831603130C1263288316F5
:1000400003136E08B43E83120313A000003003189C
:10005000013EA1002008831203138400831383123E
:1000600003132118831783120313000899008312C6
:1000700003132008831203138400831383120313D2
:100080002118831700308312031380008316031393
:100090006E0883120313A000A101A00A0319A10A8C
:1000A0002108803E803E031D572810302002031C8B
:1000B0005D2883120313A001A101831203132008FA
:1000C00083160313EE00831203138F018E010C1DA0
:1000D000DE28831603130C1183120313171C8F28B9
:1000E000171096019501160883120313A0008316BA
:1000F0000313E600E7016608E700E6018312031335
:10010000150883120313A000A1012008831603130E
:10011000E6040030E704831603136C14AD28831241
:1001200003131714160883120313A0008316031376
:10013000E400E5016408E500E401831203131508F7
:1001400083120313A000A101200883160313E40403
:100150000030E504831603136C14831203130C118F
:100160000F0883120313A00083160313E600E701B0
:100170006608E700E601831203130E0883120313D7
:10018000A000A101200883160313E6040030E70451
:100190006608FF0067088A112B238A110630831234
:1001A0000313A100C130A0008030A2002008FE008F
:1001B0002108FF0022088A112F268A1183120317B3
:1001C000230883120313840070088A008301710ED0
:1001D0008300F20E720E09008A1131258A118316EE
:1001E00003136C116C10831203138B138101FA300B
:1001F00083120317A2007D3083120317A10083121C
:100200000313010883120313A300831203138B1734
:10021000063083120313A5009930A4008030A60095
:100220002408FE002508FF0026088A112F268A11BF
:100230008312031323088A1164248A11063083125F
:100240000313A400C130A3008030A5002308FE00E2
:100250002408FF0025088A112F268A118312031310
:10026000A301831603136C1CF7296C100730831647
:1002700003136702031D3E2959306602031C6129DE
:100280000730831603136702031D48299E30660258
:10029000031861290730831603136B02031D5229CB
:1002A00059306A02031C61290730831603136B025D
:1002B000031D5C299E306A0203186129831603130B
:1002C0006C150A308312031323020318B92983160D
:1002D00003136C1DB9290230FF0083120313230896
:1002E0008A115B268A1183120313A400A501240836
:1002F000533EA6000030A70000300318250FA707C3
:100300002608831203138400831383120313271810
:100310008317831603136408831203138000840A6F
:1003200083160313650883120313800083120313DB
:100330002408A03EA40025080318250F003EA500B0
:1003400024088312031384008313831203132518D4
:100350008317831603136608831203138000840A2D
:100360008316031367088312031380008312031399
:10037000A30A063083120313A5009E30A400803028
:10038000A6002408FE002508FF0026088A112F2653
:100390008A118312031301088A1164248A1106301A
:1003A00083120313A500C130A4008030A6002408E6
:1003B000FE002508FF0026088A112F268A118316C1
:1003C0000313660883160313EA00831603136708F2
:1003D00083160313EB0083160313640883160313B9
:1003E000E80083160313650883160313E9000A3037
:1003F000831203132302031C8A2AA4010230FF0084
:100400008312031324088A115B268A1183120313B3
:10041000A500A6012508533EA7000030A800003023
:100420000318260FA80727088312031384008313D9
:1004300083120313281883178312031300088312EF
:100440000313A90083120313840A00088312031301
:10045000AA002908FF002A088A112B238A110630D6
:1004600083120313A800BF30A7008030A90027081B
:10047000FE002808FF0029088A112F268A118312FE
:1004800003132508A03EA50026080318260F003EEA
:10049000A600250883120313840083138312031319
:1004A0002618831783120313000883120313A7006F
:1004B00083120313840A000883120313A800270879
:1004C000FF0028088A112B238A1106308312031398
:1004D000A600C130A5008030A7002508FE00260830
:1004E000FF0027088A112F268A1183120313A40AFA
:1004F0000A302402031CFE290630A5009330A40014
:100500008030A6002408FE002508FF0026088A1176
:100510002F268A1183120317A00131290800F33016
:10052000FE000430FF0080308A110000AF258A11E0
:10053000000083160313C5007F08C400F530C60011
:100540000430C700831603134408C8004508C900D7
:10055000FF30C407031CC503480849040319272BAF
:1005600004304607C800C901C90D4708C907480833
:10057000FE004908FF0080308A110000AF258A1173
:10058000000083160313CB007F08CA004608FE0054
:100590004708FF0080308A110000AF258A11000053
:1005A00083160313CD00C9007F08CC00C8000230B9
:1005B0004607C800C901C90D4708C9074808FE0019
:1005C0004908FF0080308A110000AF258A11000021
:1005D00083160313C900CF007F08C800CE0083161E
:1005E00003134A08CE004B08CF00FF30CA07031C94
:1005F000CB034E084F040319202B4C08FE004D0876
:10060000FF0080308A1100009C258A1100008316AB
:100610000313CE0048088312031384008313831648
:100620000313491883174E0883120313800083169F
:100630000313CC0A0319CD0AC80A0319C90AEF2A01
:10064000063083160313C6070318C70AA22A8A11A5
:100650000000EC28080083120313B1007F08B000EB
:10066000B201831203133008310403197D2B3208C1
:100670004B3EB30000300318013EB4000A30FD00C9
:100680000030FE003008FF0031088A11B0248A11C2
:100690007F0883120313B500330883120313840009
:1006A000831383120313341883173508831203133B
:1006B00080000A30FD000030FE0083120313300872
:1006C000FF0031088A1115248A1183120313B10027
:1006D0007F08B0003030B50733088312031384005D
:1006E00083138312031334188317350883120313FB
:1006F000800083120313B20A312B831203133208D2
:10070000B000831203133008B100B003310803199D
:10071000A32B30084B3EB10000300318013EB2005D
:1007200031088312031384008313831203133218D6
:10073000831783120313000883120313B3008A1173
:1007400064248A11812B080083120313B600B701B9
:100750000030831203133604031DB12B3708031D29
:10076000EE2B8312031337084F3EB80000300318F6
:10077000013EB9000A30FF0036088A1101268A11AD
:1007800083120313BA0038088312031384008313FF
:1007900083120313391883173A0883120313800056
:1007A0000A30FF008312031336088A11D0258A11FC
:1007B00083120313B6003030BA07380883120313CC
:1007C0008400831383120313391883173A088312A2
:1007D0000313800083120313B70AA82B8312031399
:1007E0003708B600831203133608B700B60337087C
:1007F0000319142C36084F3EB70000300318013E91
:10080000B800370883120313840083138312031381
:100810003818831783120313000883120313B900D7
:100820008A1164248A11F22B080083120313E80052
:100830007F08E7007E08EA007D08E900EB01EC0193
:100840000130ED00EE0169086A04031D2B2CFF3016
:10085000FF00FF30632C8312031369086A08EF005E
:10086000EF1B392C0310E90DEA0D0310ED0DEE0D11
:100870002B2C831203136D086E0403195E2C6A0877
:100880006802031D452C69086702031C552C83125E
:1008900003136D08EB076E0803186E0FEC07690869
:1008A000E7026A08031C6A0FE802031083120313AD
:1008B000EA0CE90C0310EE0CED0C392C8312031337
:1008C0006B08FF006C08080083120313AB0083164B
:1008D00003136D0A83120313AC0010302C020318AB
:1008E000AC01831603136E08831203132C06031D39
:1008F0008B2C0630AE007930AD008030AF002D0873
:10090000FE002E08FF002F088A1167258A11FF308C
:10091000FF00FF30AF2C831603136D08B43E831223
:100920000313AD0000300318013EAE002D08831202
:10093000031384008313831203132E1883172B08C9
:10094000831203138000831203132C0883160313EE
:10095000ED00831603130C160030FF000030080072
:1009600083160313D1007F08D0007E08D3007D08D2
:10097000D2005304031DC02CFF30FF00FF30F22CC7
:10098000013083160313D40083160313520853084F
:10099000D500D51BD02C0310D20DD30DD40AC42CF6
:1009A00000308316031354040319ED2C530851022D
:1009B000031DDC2C52085002031CE62C8316031383
:1009C0005208D0025308031C530FD10203108316A0
:1009D0000313D30CD20CD403D02C8316031350086A
:1009E000FF00510808000A340034B7340634E434F8
:1009F000003402340034B9340634E63400340234AE
:100A00000034BB340634E834003402340034BD34DE
:100A10000634EA3400340234003403340034ED3454
:100A2000003401340034C3340634EE34003401346D
:100A30000034C43406342034013401340034C53465
:100A400006342134013401340034C63406342234EF
:100A5000013401340034C734063424340134013401
:100A6000003483160313051505168716861386169C
:100A700050309F00831203179F111F119E131F10E8
:100A80009F101E121E159E15083083160313990021
:100A900018159B15981618128312031398178316AE
:100AA000031381128111011181100110053083128D
:100AB00003139700831603130C11831203130C11F5
:100AC00090010B178B178F018E01101408008312F1
:100AD0000313C5007F08C4007E08C30083120313FC
:100AE0008B1383120313C6018312031346084307B3
:100AF000C70044080318013EC80045080318013E1A
:100B0000C9004708FE004808FF0049088A119C25D3
:100B10008A1183120313CA004A0803199B2D4A083D
:100B2000831203139900831203130C1E932D831257
:100B30000313C60A742D0800003A0319A32D803A46
:100B40000319AA2D00347E08840083137F188317AD
:100B5000000808007F088A007E0882000800003A2A
:100B60000319B72D803A0319C12DFF0100347E0807
:100B7000840083137F1883170008FF00840A00088D
:100B800008008A110000AA25FD00FE0FFF03FF0ADE
:100B90008A110000AA25FC007D08FF007C080800DF
:100BA00083160313D6007F08D700D8010130D9007F
:100BB0005708031DDD2DFF30002E83160313570841
:100BC000DA00DA1BE82D0310D70D0310D90DDD2D47
:100BD00000308316031359040319FD2D57085602DC
:100BE000031CF62D5908D8075708D60203108316A0
:100BF0000313D70C0310D90CE82D831603135808E0
:100C0000080083160313E0007F08E1006108031D5C
:100C10000B2EFF302E2E013083160313E2008316B5
:100C200003136108E300E31B192E0310E10DE20A30
:100C30000F2E003083160313620403192B2E610854
:100C40006002031C252E6108E002031083160313C3
:100C5000E10CE203192E83160313600808008312C7
:100C60000313BD007F08BC007E08BB00BE018312D9
:100C700003133E083B07BF003C080318013EC000B9
:100C80003D080318013EC1003F08FE004008FF0078
:100C900041088A119C258A1183120313C20042085D
:100CA00003195A2E42088A1164248A1183120313ED
:100CB000BE0A372E080083160313DB007F08DC0012
:100CC000DD010830DE00831603135B1C692E5C080F
:100CD000DD07031083160313DB0C03105C0DDF002C
:100CE000DC005E03DF00DE005F08031D632E5D088D
:100CF00008004234553446344634453452342034A6
:100D00004F3457344534523446344C344F345734CE
:100D10000A34003449344E34543420344534523487
:100D200052340A340034533459344E3443340A3480
:100D30000034773431343A3420340034743431346C
:100D40003A3420340034303420340A34003431341E
:100D500020340A340034463420340A3400347734E2
:100D60003A342034003474343A34203400340034BB
:100D700000340034003400340034003400340934CA
:100D800000340A34003400340034003400340034B9
:02400E00D43F9D
:00000001FF
